:020000022000DC
:10600000000001204D1303007513030077130300F4
:10601000791303007B1303007D13030000000000CD
:106020000000000000000000000000007F130300DB
:106030008113030000000000831303008513030095
:106040001168020087130300C56C02008713030068
:10605000871303008713030081680200871303007E
:1060600087130300871303008713030087130300BC
:1060700087130300F96D02008713030087130300E1
:1060800087130300297E0200871303008713030090
:106090008713030087130300B1B6020087130300C0
:1060A000871303008713030087130300871303007C
:1060B00087130300871303000000000000000000A6
:1060C000871303008713030087130300871303005C
:1060D00087130300871303008713030000000000E9
:1060E00000000000000000000000000000000000B0
:1060F00000000000000000000000000000000000A0
:10610000000000000000000000000000000000008F
:10611000000000000000000000000000000000007F
:10612000000000000000000000000000000000006F
:10613000000000000000000000000000000000005F
:10614000000000000000000000000000000000004F
:10615000000000000000000000000000000000003F
:10616000000000000000000000000000000000002F
:10617000000000000000000000000000000000001F
:10618000000000000000000000000000000000000F
:1061900000000000000000000000000000000000FF
:1061A00000000000000000000000000000000000EF
:1061B00000000000000000000000000000000000DF
:1061C00000000000000000000000000000000000CF
:1061D00000000000000000000000000000000000BF
:1061E00000000000000000000000000000000000AF
:1061F000000000000000000000000000000000009F
:1062000010B5054C237833B9044B13B10448AFF3F0
:1062100000800123237010BD802C002000000000AE
:10622000706E030008B5034B1BB103490348AFF37D
:10623000008008BD00000000842C0020706E030068
:10624000A3F5803A704700BF174B002B08BF134BD4
:106250009D46FFF7F5FF00218B460F461348144A71
:10626000121A0CF0A7FC0E4B002B00D098470D4BD8
:10627000002B00D098470020002104000D000D489D
:10628000002802D00C48AFF300800CF051FC200035
:10629000290005F0CBF80CF037FC00BF0000080027
:1062A000000000000000000000000120802C002001
:1062B000EC390020000000000000000005F028B8C4
:1062C0000021084604F0D8BF08B50846114600F082
:1062D000B9F9002008BD00BF30B5054685B00020E3
:1062E00000F05CF9044610B1204605B030BD281D11
:1062F000039006F0FBFC0E490398009423462246C7
:1063000006F056FD10F1360F0CD00028ECD048F204
:10631000115348F2165410F1380F08BF1C4620469E
:1063200005B030BD48F21454204605B030BD00BF62
:10633000C962020008B5043006F0DEFC00F060F926
:10634000002008BD08B5043006F024FE10F1360F19
:106350000DD048B148F2115248F2165310F1380FDF
:1063600008BF1346184608BD0346184608BD48F244
:106370001453184608BD00BF114608B51A4604302C
:1063800006F0C8FC10F1360F0DD048B148F211529A
:1063900048F2165310F1380F08BF1346184608BDCF
:1063A0000346184608BD48F21453184608BD00BFFE
:1063B00010B568B90E4CA368012262703BB1D3E9F5
:1063C00000230020A2609847A368002BF7D110BDDE
:1063D0000128FCD1064C2369A070002BF7D0D3E92B
:1063E00000230120226198472369002BF7D110BDBB
:1063F0009C2C002070B910B5074CA3680122627074
:106400003BB1D3E900230020A2609847A368002B8A
:10641000F7D110BD704700BF9C2C002030B501287B
:1064200083B004D0032821D0B0B103B030BD294CD3
:1064300000230DF107008DF8073001F0A1FC23784F
:106440006BB3E3689DF8070001221344E360A27078
:1064500001F0BCFC03B030BD1F4B0122C3F880200B
:10646000BFF34F8FBFF36F8F03B030BD194C00F0F7
:10647000A7F900230DF107008DF8073001F080FC2B
:10648000E368013BE360E3681BB9144BD3F80054A5
:10649000C5B19DF8070001F099FC03B030BD10486C
:1064A0006360A3602361E36000F07EF905F0FAF811
:1064B00060B10A4A01232370D2F80024002AC0D018
:1064C000A370BEE700F08EF9A570E2E700F078F95E
:1064D000EFE700BF9C2C002000E100E0000001403D
:1064E000B163020031DF704700B585B0024600237A
:1064F0000DF10F008DF807208DF80F3001F040FCF2
:1065000005F0D0F830B19DF80F0001F05FFC05B048
:106510005DF804FB09480DF1070103F0AFFD0748E2
:1065200003F09EFD0028EED000F046FC9DF80F0021
:1065300001F04CFC05B05DF804FB00BF9C6E03004D
:1065400000B583B098B103280ED100230DF10700E8
:106550008DF8073001F014FC0E480378012B11D0A0
:106560009DF8070001F032FC03B05DF804FB094B15
:106570001B78012BF8D100F01FFC03B05DF804EB91
:1065800000F022BC0449013000F0D4FB00F002FC12
:10659000E6E700BF002D0020E964020010B5154CAD
:1065A000227882B012BB14498DF807200346002BD5
:1065B00008BF0B460DF107001B88A4F8013001F05D
:1065C000DFFB05F06FF840B19DF807000123237051
:1065D00001F0FCFB002002B010BD0849601C00F077
:1065E000A9FB0028F7D100F0D5FBEDE7852002B02C
:1065F00010BD00BF002D0020002F0300E964020041
:1066000000B583B000230DF107008DF8073001F0CD
:10661000B7FB05F047F860B19DF8070001F0D6FB25
:10662000064803F0F7FD064B00221A7003B05DF830
:1066300004FB00F0C1FB00F0C7FBEDE79C6E03001C
:10664000002D002000293ED02DE9F04FDFF878A082
:1066500083B006468B4642F207095F46402F28BFAB
:1066600040275FFA87F800250CE09DF8070001F04D
:10667000ADFB41463046FFF735FF48450446F2D0B2
:10668000022C17D10DF107008DF8075001F078FBAF
:1066900005F008F80028E8D13A463146504603F0A4
:1066A00061FD044600F076FB9DF8070001F08EFBCB
:1066B000022CE7D0002CD6D1BBEB070B3E44CCD14B
:1066C00003B0BDE8F08F70479C6E030030B50A4BF5
:1066D0000A4C53F8213054F82110027885B0D0E9E3
:1066E00001548DF80020C26801958DF8084003928E
:1066F0006846984705B030BD082D0020042D0020C5
:1067000030B50A4B0A4C53F8213054F82110027866
:1067100085B0D0E901548DF80020C26801958DF84C
:10672000084003926846984705B030BD082D002008
:10673000042D0020F0B5174B06784F7F43F8262034
:106740001446154B154A9F550546086942F8260020
:106750008C46BCE80F0089B0EE46AEE80F009CE81E
:106760000F008EE80F0004964FB1002C0C4A6946CA
:1067700008BF2246281D00F09FFE09B0F0BD002C86
:10678000084A694608BF224605F10C0000F030FCBB
:1067900009B0F0BD082D00200C2D0020042D002094
:1067A000CD66020001670200044A137923B9012172
:1067B000106091801846704785207047102D00208A
:1067C000074B1A68D20704D4C02283F800230122A1
:1067D0001A604FF080430122C3F81825704700BFAC
:1067E00000E100E04FF0804202210023C2F80813CC
:1067F00082B0C2F80431D2F8043101930123019927
:10680000D360D2F81834DB03FBD402B0704700BF6A
:1068100010B54FF0804382B0D3F8002162B100215F
:10682000164AC3F80011D3F80011507900910121E4
:10683000009CC3F80813A8B14FF08043D3F804219B
:10684000CAB10022C3F80421D3F804210192022125
:106850000A4A0198C3F808131368012002B0BDE882
:10686000104018471368517198474FF08043D3F890
:106870000421002AE5D102B010BD00BF102D002078
:10688000F0B585B01D4A00230193D2F8001101290B
:1068900000F0E5811E46194BD3F80421012A00F0CF
:1068A000CF81164BD3F80821012A00F0B881134B91
:1068B000D3F80C21012A00F0A381104BD3F810214A
:1068C000012A00F08E810D4BD3F81421012A00F02B
:1068D00079810A4BD3F81821012A00F06481074B13
:1068E000D3F81C21012A0BD0044BD3F87C21012AB8
:1068F00000F0C28126BB05B0F0BD00BF00600040C3
:10690000D3F804231206EFD50022C3F81C21D3F8D4
:106910001C110291D3F87C110298012946F08006DF
:106920000ED1C3F87C21D3F87C2103924FF0A04311
:10693000039AD3F820250192C3F8202546F000469B
:10694000BE4F00240125A30003F180432E4203F52E
:10695000C0434FEA45050BD0D3F8100557F8242063
:10696000D3F81015C0F30420C1F3014102B19047E0
:106970000134082CE7D1002EBDDAB04C01254FF0D0
:10698000A04694F95000471C3DD0C0F3C20304AAAE
:106990001344C1B213F80C2C00F0070305FA03F3FB
:1069A0001A4200F03F002ED0830003F1A04305FA05
:1069B00000F7D3F80027D3F800C72CF4403CC3F805
:1069C00000C7C2F30142D3F800C7022A0CBF4FF43C
:1069D000403E4FF4003E4CEA0E0CC3F800C72318AB
:1069E000C6F8207593F9303054F823305BB189092B
:1069F000032900F06581022A00F05F81032A02D199
:106A0000022900F05D8194F95100411C3DD0C0F392
:106A1000C20304AA1344C1B213F80C2C00F00703FC
:106A200005FA03F31A4200F03F002ED0830003F171
:106A3000A04305FA00F7D3F80027D3F800C72CF4D9
:106A4000403CC3F800C7C2F30142D3F800E7022A72
:106A50000CBF4FF4403C4FF4003C4CEA0E0CC3F822
:106A600000C72318C6F8207593F9303054F8233046
:106A70005BB18909032900F01981022A00F0138112
:106A8000032A02D1022900F0118194F95200421C1C
:106A90003DD0C0F3C20304AA1344C1B213F80C2CB6
:106AA00000F0070305FA03F31A4200F03F002ED06E
:106AB000830003F1A04305FA00F7D3F80027D3F8C9
:106AC00000C72CF4403CC3F800C7C2F30142D3F81E
:106AD00000E7022A0CBF4FF4403C4FF4003C4CEA64
:106AE0000E0CC3F800C72318C6F8207593F9303090
:106AF00054F823305BB18909032900F0D280022ABF
:106B000000F0CC80032A02D1022900F0CA8094F957
:106B10005300431C3DD0C0F3C20304AA1344C1B2C6
:106B200013F80C2C00F0070305FA03F31A4200F0E7
:106B30003F002ED0830003F1A04305FA00F7D3F8FD
:106B40000027D3F800C72CF4403CC3F800C7C2F3B9
:106B50000142D3F800E7022A0CBF4FF4403C4FF447
:106B6000003C4CEA0E0CC3F800C72318C6F8207589
:106B700093F9303054F823305BB18909032900F0D0
:106B80009A80022A00F09480032A02D1022900F0A0
:106B90009280D6F820350193C6F82035002B7FF47B
:106BA000F0AE05B0F0BDD3F8042351067FF597AEE3
:106BB0000022C3F81821D3F818310293029B46F043
:106BC00040068CE6D3F8042390067FF582AE0022BF
:106BD000C3F81421D3F814310293029B46F0200627
:106BE00077E6D3F80423D4067FF56DAE0022C3F810
:106BF0001021D3F810310293029B46F0100662E692
:106C0000D3F8042315077FF558AE0022C3F80C21F2
:106C1000D3F80C310293029B46F008064DE6D3F8F8
:106C2000042357077FF543AE0022C3F80821D3F8A9
:106C300008310293029B46F0040638E6182D002026
:106C4000D3F8042392077FF52CAE0022C3F8042169
:106C5000D3F804310293029B46F0020621E6D2F8F3
:106C6000046316F001063FF416AEC2F80031D2F804
:106C700000310293029B0EE60022C3F87C21D3F878
:106C80007C2103924FF0A043039AD3F82025019270
:106C9000C3F82025002E3FF470AE4FE601297FF4A3
:106CA00036AF984733E701297FF4EFAE9847ECE61B
:106CB00001297FF46EAF98476BE701297FF4A3AEFB
:106CC0009847A0E6014B1B68184700BF742D0020B1
:106CD000104B98421BD130B583B000230DF1070053
:106CE0008DF807300D4601F04BF80B4B9DF807006F
:106CF0001C793CB901221D601A7101F067F8204629
:106D000003B030BD01F062F8112003B030BD0020A7
:106D1000704700BF00200040742D0020034B9842B4
:106D200003D1034B00221A601A7170470020004003
:106D3000742D0020134A137813BB10B40378124C3F
:106D4000DB07216006D51149D1F8043543F0010372
:106D5000C1F804350D4C0E49D4F8003223F001037C
:106D6000C4F8003243785B01DBB281F80D334FF495
:106D700000530B600123137000205DF8044B704733
:106D800085207047802D00207C2D002000D0004001
:106D900000E100E0074B0022C3F8002182B0D3F8E5
:106DA0000021019201990122C3F804231A6002B064
:106DB000704700BF00D00040024B0122C3F80823F7
:106DC0005A60704700D00040084B094901224FF437
:106DD0000050C3F808235A60C1F88000BFF34F8FFA
:106DE000BFF36F8F034B00221A70704700D0004032
:106DF00000E100E0802D0020074B0022C3F80021B5
:106E000082B0D3F800210192019A044AD3F8080510
:106E10001368C0B202B0184700D000407C2D00209B
:106E200010B5714AD2F8043399058AB068D5D2F802
:106E30002431002B64D00023C2F82431D2F824314D
:106E400001934FF40171694B0198C2F8081393F84C
:106E5000291009B901215160634902228DF81820D7
:106E6000D1F88024C1F880249FED5D7B9969D868B2
:106E7000CDE9081283ED067BD3E90012079006A83E
:106E80009047594AD2F81C31C3B1584B5869196A16
:106E900088426AD993F8281001F0FF00002964D1D4
:106EA000C2F81C01D2F81C11039103999C68186A5E
:106EB000196A205C01311962C2F81C054A4AD2F8ED
:106EC0004431DBB10021494BC2F84411D2F84401EE
:106ED00093F829100090009809B1012111609A6976
:106EE00062B1D8685C6A00210122CDE9070499618A
:106EF0008DF8182006A8D3E9001290470AB010BDFB
:106F0000394AD2F804335B07BBD5D2F80831002BDD
:106F1000B7D0364B996900293ED00021C2F808113C
:106F2000D2F8081104910499D868596AD2F8182542
:106F300042545A6A996901325A625A6A8A42A0D105
:106F4000DA69002A31D09A611A69D8685C6ADA6015
:106F5000002101220894D961596207905C68196880
:106F60008DF8182006A8A0478BE71F4A0020C2F81A
:106F70001C01D2F81C210292029A5A69002A9DD063
:106F8000D3E901215C698DF81800CDE90714586137
:106F9000196806A8904791E7C2F80811D2F80801CD
:106FA00005900598D2F81825C7E793F8292012B95B
:106FB0000D4A012151600C4A4FF40171C2F80813C7
:106FC000D8685C6A0021012299618DF81820D3E904
:106FD0000012CDE9070406A8904752E7AFF30080FE
:106FE000000000000000000000200040882D00206C
:106FF0002DE9F041604E90F804802C2303FB0863D8
:1070000082B093F82A30002B40F0898005460C4668
:1070100000685A491746FFF75BFE00287BD12368BA
:10702000591C0CD04FF0A041012202FA03F3C1F821
:107030000835236803F5E073032241F823206368D1
:107040005A1C06D003F5E0734FF0A042002142F82D
:1070500023102B68A269C3F82425227D637D134386
:107060002A68C2F86C35D4E900122B68C3F81425DD
:10707000C3F80C15237D012B5CD02C2303FB08F3F4
:10708000F21857602269F25097B32A68237F0021D3
:10709000C2F81C11D2F81C210092009A2A68C2F88A
:1070A0004411D2F844210192019A2A683449C2F865
:1070B00004132A6842F3073100294FEA123232DB07
:1070C00001F160415B0101F56141DBB281F8003300
:1070D0002B6843F30732002A4FEA133109DB294CAE
:1070E0005209012301F01F0103FA01F144F82210B3
:1070F0002B680422C3F800252C2303FB0866012219
:107100000023C6E9063386F82930736186F82A2001
:1071100002B0BDE8F081112002B0BDE8F081082086
:1071200002B0BDE8F081184902F00F025B01DBB24A
:107130008B54CDE7A368591C06D003F5E0734FF0DC
:10714000A042002142F82310E3685A1C0DD04FF0F2
:10715000A041012202FA03F3C1F80835E36803F500
:10716000E073032241F82320E3682A68A168C2F88B
:107170000835C2F8101580E7882D0020216E020026
:107180008000020000E100E014ED00E0F8B50368C3
:107190000679324C0022C3F800252C2303FB06435A
:1071A0005B68C3B103682E4AC3F80823036843F33E
:1071B0000732002A4FEA13310EDB5209294D2032E3
:1071C000012301F01F0103FA01F145F82210BFF37A
:1071D0004F8FBFF36F8F0368D3F80CC5D3F81475C6
:1071E000D3F80815D3F810554FF0FF32C3F8142523
:1071F000C3F80C2503689445C3F80825C3F8102587
:1072000006D00CF5E07C4FF0A043022243F82C207E
:107210007B1C06D007F5E0774FF0A043022243F82D
:1072200027206A1C06D005F5E0754FF0A043022226
:1072300043F825204B1C06D04FF0A04301F5E07128
:10724000022243F821200068FFF768FD2C2303FB8E
:107250000644002384F82A306360F8BD882D00209E
:107260008402020000E100E02DE9F041334C90F887
:1072700004E02C2303FB0E438446586984B00028A5
:107280004ED15A619960186283F82800DCF800201A
:10729000C2F81C01D2F81C210292029ADCF80020EC
:1072A00001219160DCF800209D68C2F81C01D2F831
:1072B0001C1101910199196A6E5C196A01311962F8
:1072C000C2F81C655A6812B104B0BDE8F0815E696D
:1072D0001A6ADCF8001096421BD9074602E093F8C0
:1072E00028200ABBD1F81C21002AF8D0C1F81C7153
:1072F000D1F81C210392039A1A6A15F802801A6ABF
:1073000001321A62C1F81C851A6A9642EAD8DCF882
:107310000010D1F81C31002BFBD00123CB6004E01E
:10732000112004B0BDE8F0810F202C2303FB0E4494
:107330000023636104B0BDE8F08100BF882D002008
:1073400010B55B4BD3F824218AB0002A58D0002214
:10735000C3F82421D3F82411049102228DF81820B7
:107360000499544AD3F88014C3F880149FED4E7BDF
:107370000991D3F83C45D06882ED067BCDE907043E
:10738000D2E9001306A89847494BD3F8442152B1DB
:107390000021484AC3F84411D3F84401916903908D
:1073A0000398002961D1424BD3F8202162B100201B
:1073B000C3F82001D3F82021029201213D4A029C0A
:1073C000D9605169002943D1394BD3F85821AAB16A
:1073D0000020C3F85801D3F85811364A0191019999
:1073E000516959B1D3F84C458DF81800D2E90131F3
:1073F0005061CDE9071406A8116898470AB010BD7E
:10740000D3F810110029BFD0C3F81021D3F8101100
:10741000284C05910599A169D3F83C058842B3D160
:10742000E169002933D0C4E90612D3F8002222F022
:107430002002C3F80022E2680792012122698DF838
:107440001810089063682168E26006A898479BE7D7
:10745000D3F84C458DF81800D2E901315061CDE9DF
:10746000071406A811689847AEE79FED0F7BD3F885
:107470003C45D0684FF0010CCDE9070482ED067B56
:10748000D2E900138DF818C006A898478BE7E26888
:10749000A1610123CDE907208DF8183006A8D4E9B1
:1074A0000013984770E700BF0000000000000000D4
:1074B00000200040B82D00202DE9F04307796D4EE3
:1074C00007EBC70306EB830387B093F82030002B4C
:1074D00040F0A38004460D46006867499046FFF7D8
:1074E000F7FB002840F095802B68591C4FEAC7092C
:1074F0000CD04FF0A041012202FA03F3C1F8083585
:107500002B6803F5E073032241F823206B685A1CB3
:1075100006D003F5E0734FF0A042002142F823109B
:107520002368AA69C3F824252B7D6A7D1A43236842
:10753000C3F86C25D5E900312268C2F80C35C2F8D1
:1075400014152B7D012B73D009EB070206EB820388
:10755000C3F804802B6946F82230B8F1000F47D0F9
:1075600021682B7F0022C1F81021D1F81011019160
:1075700001992168C1F82021D1F8201102910299C6
:107580002168C1F82421D1F82411039103992168BD
:10759000C1F84421D1F84411049104992168C1F83B
:1075A0005821D1F858210592059A22683349C2F82A
:1075B0000413226842F3073100294FEA123230DB0C
:1075C00001F160415B0101F56141DBB281F80033FB
:1075D000226842F30733002B4FEA123109DB284DB2
:1075E0005B09012201F01F0102FA01F145F82310A5
:1075F00022684F4406EB87060121002386F82010FD
:107600000821C2F80015C6E90633736107B0BDE86A
:10761000F083112007B0BDE8F083082007B0BDE873
:10762000F083184902F00F025B01DBB28B54CFE705
:10763000AB68591C06D003F5E0734FF0A04200215F
:1076400042F82310EB685A1C0DD04FF0A0410122E4
:1076500002FA03F3C1F80835EB6803F5E07303227F
:1076600041F82320EB682268A968C2F80835C2F8FF
:10767000101569E7B82D0020417302001003420085
:1076800000E100E014ED00E02DE9F04105794B4CFC
:1076900005EBC50304EB830301465B68006882B019
:1076A000EE00C3B1464BC0F808330B6843F3073212
:1076B000002A4FEA13330EDB5209DFF808C12032EB
:1076C000012703F01F0307FA03F34CF82230BFF33E
:1076D0004F8FBFF36F8F731904EB83039A69D0F850
:1076E000003223F02003C0F8003242B10023C0F87A
:1076F0004431D0F844310093009B012343600023C0
:10770000C0F85831D0F858310193019B7319012208
:1077100004EB8303C2609A69D0F85831002BFBD088
:107720001AB1D0F84431002BF6D00023C0F8003550
:107730000B684FF0FF32D3F80C85D3F814E5D3F87B
:107740000875D3F810C5C3F80C25C3F814250B68C9
:107750009045C3F80825C3F8102506D008F5E07851
:107760004FF0A043022243F82820BEF1FF3F06D08D
:107770000EF5E07E4FF0A043022243F82E20BCF12C
:10778000FF3F06D00CF5E07C4FF0A043022243F807
:107790002C207B1C06D007F5E0774FF0A043022297
:1077A00043F82720FFF7BAFA354404EB8504002399
:1077B00084F82030636002B0BDE8F081B82D00206D
:1077C0001003420000E100E001F0604CBCF1005FFA
:1077D00030D170B590F804E0264C0EEBCE0C04EBE3
:1077E0008C0C0346DCF8140082B04FEACE0500286A
:1077F0003BD1CCF81420CCF808101A68C2F820014C
:10780000D2F820210192019A1A68C2F85801D2F8E0
:1078100058210092009A1A68DCF81460C2F84415E6
:10782000C2F848651A6801219160DCF804201AB199
:1078300002B070BD102070471A6800E0C0B9D2F8DD
:107840002011D2F858010029F8D088B90121D1605F
:107850001B68D3F85821002AFBD005EB0E0304EB7C
:10786000830300225A6102B070BD112002B070BDC6
:107870000F20F2E7B82D002010B44FF08053D3F85A
:1078800030315A1C04BF4FF0704393F8E03F062B91
:1078900008D14FF08053B34AD3F82433C3F3042301
:1078A000C2F840354FF0704393F8E02F062A00F0FD
:1078B0001B814FF08053D3F830315C1C04BF4FF074
:1078C000704393F8E03F062B09D14FF080534FF0FF
:1078D0008042D3F84432C3F34233C2F83C354FF010
:1078E000704393F8E02F062A00F0E9804FF08053B0
:1078F000D3F83031581C04BF4FF0704393F8E03F89
:10790000062B08D14FF080430022C3F80C21C3F8A6
:107910001021C3F838254FF0704393F8E02F062A62
:1079200000F0AA804FF08052D2F83031591C20D09C
:10793000062BD2F8342126D08B4AD2F8883043F473
:107940007003C2F88830BFF34F8FBFF36F8F4FF0D3
:107950001023D3F80022002AC0F22281D3F8043287
:10796000002BC0F21D81814B814A1A605DF8044BE7
:1079700070474FF0704292F8E01FD2F8E82F0629C6
:10798000DAD1C2F30312033A032A40F2C4804FF063
:107990008053784AD3F80414C2F82015D3F8081499
:1079A000C2F82415D3F80C14C2F82815D3F8101413
:1079B000C2F82C15D3F81414C2F83015D3F81814E3
:1079C000C2F83415D3F81C14C2F84015D3F82014AB
:1079D000C2F84415D3F82414C2F84815D3F8281473
:1079E000C2F84C15D3F82C14C2F85015D3F8301443
:1079F000C2F85415D3F83414C2F86015D3F838140B
:107A0000C2F86415D3F83C14C2F86815D3F84014D2
:107A1000C2F86C15D3F84414D3F83031C2F870159D
:107A20005C1C04BF4FF0704393F8E03F062B83D1FA
:107A30004FF080524FF08041D2F85832D2F83021C6
:107A400003F04F03501CC1F8E43E69D0062A7FF4CE
:107A500073AFD1F80034DA076ED44FF08053D3F807
:107A60003431033B032B50D9434AD2F83C3743F41B
:107A70008063C2F83C375FE7D3F8E83FC3F30313F2
:107A8000033B032B3FF64EAF3C4AD25C22B14FF092
:107A900080420321C2F8A015394AD35C002B3FF481
:107AA00041AF384B0524012000213F22C3F8104686
:107AB000C3F88806C3F81816C3F8142632E7D3F8BB
:107AC000E83FC3F30313033B032B3FF60FAF2E4AEC
:107AD000D35C002B3FF40AAF234AD2F8FC3023F0EA
:107AE0008073C2F8FC3001E7D3F8E83FC3F3031317
:107AF000033B032B3FF6DDAE244AD35C002B3FF45F
:107B0000D8AE234B234A5A67D3E6234AD35C002BD3
:107B10003FF412AFA8E721498A5C002A80D036E7FB
:107B20004FF0704393F8E03F062B7FF405AFD1F898
:107B30000034DB077FF500AF4FF080534FF08042F9
:107B4000D3F830316FF00101062BC2F800147FF436
:107B5000F3AE4FF08053D3F83431033B032B83D87B
:107B6000D3E700BF0030014000ED00E0D02B002043
:107B70000090D00300C0004000100040342F0300EC
:107B8000342F030000500040342F0300342F030033
:107B900000C007400DF0ADBA302F03002C2F0300BA
:107BA000184A0123C2F80435D2F80034002BFBD068
:107BB0004FF010231521134AC3F80012D2F80034F5
:107BC000002BFBD04FF0102315210E4AC3F80412EE
:107BD000D2F80034002BFBD000230A49C2F8043548
:107BE000D1F80034002BFBD0BFF34F8F0649074B71
:107BF000CA6802F4E0621343CB60BFF34F8F00BF4B
:107C0000FDE700BF00E0014000ED00E00400FA05E0
:107C100000B585B00346002101AA44F20100CDE978
:107C20000111039300F004F805B05DF804FB00BFF8
:107C300010B572B603F0F4F802F052FC0028FBD144
:107C4000104B114C1149E41AE408240444F00100DB
:107C500002F076FD0E4BD3F8F030DB0700D500BE06
:107C60000C4944F0020002F06BFDBFF34F8F08494E
:107C7000094BCA6802F4E0621343CB60BFF34F8F35
:107C800000BFFDE7FC6E03002C6F0300442F0300D0
:107C900000ED00E0502F03000400FA05037F0BB154
:107CA0000020704730B5044683B0A2611A480D46E3
:107CB00000F0A4F8194B1A685B688018184AD2E9DA
:107CC000001243F10003884273EB020203D210F169
:107CD000807043F100032818226943F10003C4E9CE
:107CE000020302B125610F4801A901F009F9034619
:107CF00048B100250B481D705C6001A901F032F904
:107D000020B903B030BD042003B030BD024800F0FC
:107D100079F8284603B030BDD42B0020E02D002098
:107D2000F82D0020E82D002030B5044683B0002552
:107D30000C48257701A901F0E3F880B10346012240
:107D4000027001A907485C6001F00CF908B903B0A2
:107D500030BD054800F056F8284603B030BD042079
:107D600003B030BDE82D0020D42B0020401A20F0B5
:107D70007F407047014800F041B800BFD42B00207D
:107D800070B4EFF3108472B60D4B9A68AAB9012152
:107D900099600C490C4ED1F8805035401D60C1F8F7
:107DA0008060D1F884505D604FF0FF33C1F88430BB
:107DB000027004B962B670BC704701230370F8E723
:107DC000002E002000E100E0FC06FFBD094B9A6890
:107DD0007AB170B910B4EFF3108172B6064A1C681C
:107DE00014605C685460986001B962B65DF8044B39
:107DF00070477047002E002000E100E00368D3F8D0
:107E00000405704790F90430002B09DB5A09054836
:107E100003F01F030121403201FA03F340F822303E
:107E2000704700BF00E100E0024A034B10681B6886
:107E3000184700BF0C2E0020142E00202DE9F04121
:107E4000436888461BB1334AD468A3423CD2324EC1
:107E50000023A8F800307268012702F5805C4FF615
:107E6000FF75083294450DD8022FA8F8007006F16E
:107E700014064CD0726802F5805C083294454FF0CD
:107E80000207F1D913680133EED05388033302EBB4
:107E900083039C45E8D3B2F804E0AE4509D01488CA
:107EA0003CB19468611C04D00168A14205D01A4617
:107EB000D8E79C45D8D91A46E4E7184B42601B899D
:107EC00003810120BDE8F08112699342BFD813F00D
:107ED0000305BCD1114A048912899442B7D10468C0
:107EE0009A689442B3D10C484268934203D902F590
:107EF0008052934207D38269934208D902F5805297
:107F0000934204D20125A8F800500120DAE70020AE
:107F1000D8E700BF6C2C0020582E00203C2E0020FB
:107F20002DE9F04F9D4F8BB004464FF6FF783E6829
:107F3000002E00F0BA803278531E052B00F27282B8
:107F4000DFE803F058212103033E002C40F0B48009
:107F50003379012B00F0BA82022B00F0C580002B90
:107F600000F0928205AD0594C5E902442C6148F207
:107F70000E6406943378023B042B49D8DFE803F003
:107F8000897569624500B6F814A0002C40F05A8249
:107F9000834D0AEB8A0305EB83034FEA8A091C89A8
:107FA0005B6803EB8404B37D062B00F23084DFE8CA
:107FB00013F07D016A019D018C01490132010D011F
:107FC000002C79D1DFF8FCC19CF80C30002B00F0BC
:107FD000AA809CF800308CF80C40013B062B00F284
:107FE0002182DFE813F01D03D902C601B2011F028E
:107FF00009039E01002C40F01E823379032B00F20E
:108000008780DFE803F0BE63789F05238DF8143086
:10801000644C04F1100654F8043B284603B1984719
:10802000A642F8D16049614800243C6000F0DCFFC2
:108030005F48012101F0A0F800287FF478AF0BB071
:10804000BDE8F08F04238DF81430F388ADF82030AC
:10805000DEE703238DF81430F388ADF82030338940
:10806000ADF82230F3680793D2E702238DF814307D
:108070003389ADF82030B388ADF82230F368079328
:10808000B37DA3F10603B3FA83F35B098DF82430C3
:10809000BEE701238DF814303389ADF82030B38862
:1080A000ADF82230F3680793B2E73F493F4800F04C
:1080B00069FF064638603EE74FF4064405AD0023ED
:1080C000C5E90033C5E902332B6152E7344D2B7803
:1080D000022B00F080832B7D022B00F08C83354B2C
:1080E00001221A7000225A6005AD00240594C5E9EA
:1080F00002442C613DE7304A3048022100233371AD
:1081000091801168012201F0BFFC002897D03E68E1
:10811000284A05AD002305935360C5E902332B615E
:1081200048F20D6425E79CF80030072B00F2A68288
:10813000DFE813F0BA02A402A402D502F102F700AC
:10814000F7009E021C4C1E4A1C484FF0000986F89E
:108150000490CDF800900823216801F003FC194B2E
:108160005D8805EB85030E4D05F8239005EB83052F
:1081700023686A686B60A3882B8102232260A38036
:10818000C3E701230C493371002309680E4A0093A9
:108190000A48082301F0E6FBB7E700BF542E002091
:1081A000582E0020242E00204C2E0020802E00204F
:1081B000902E0020342E0020942E00206C2C0020C5
:1081C000702F03003C2E0020782F0300324641F62A
:1081D0001D5409EB0A0105EB8101F388088903337B
:1081E00003440B81D144F38805EB89051646C3F59A
:1081F0007F436A89FD3313446B8105AD41F61D52FF
:1082000000239442059308BF1C46C5E902332B6145
:108210003FF4AFAEC0E2A54BA54A5968A54BA648AE
:108220001C880623B37500230093042301F09AFBF6
:1082300010BB04EB840305EB830501232B740BB007
:10824000BDE8F08F9948B3699A4903604FF0000B7D
:10825000C0F804B0FFF7F2FD002800F0AF8202235F
:10826000B37504239448CDF800B02146F21801F00C
:1082700079FB00283FF4E3AEB37D3A68022B48F265
:108280000D64AFD9A5E7032A0CBF05230623B375F8
:10829000002300938848211D042306F1080201F001
:1082A00061FB0028E8D10BB0BDE8F08F0223B37565
:1082B00000230093042380482146F21801F052FB6A
:1082C0000028D9D10BB0BDE8F08FF38832690120C6
:1082D000B0750020009004F10C0177489B0001F07C
:1082E00041FB0028C8D10BB0BDE8F08F336972485C
:1082F000002B14BF03230123B3750023009304F163
:108300000801042306F10C0201F02CFB00283FF4C5
:1083100096AEB37D3A68022B48F20D647FF662AFE9
:1083200057E7664A64481168002307228CF800204A
:108330000093634ACCF80430082301F013FB044691
:10834000002C3FF47CAE3E6857E7BCF802305D4D30
:1083500003EB830305EB8305EB68002B54D16968BD
:10836000554804228CF80020012201F08DFB0446C0
:10837000E6E7DCF804205148538884880168033319
:1083800001EB8401002003249BB200909B008CF839
:108390000040494801F0E6FA0446D1E701200346CF
:1083A000ACF8023000EB800305EB8303DCF804201B
:1083B00059684FEA800E01F58056002A00F01D82B0
:1083C0005388033302EB8302964217D913680133B3
:1083D00014D05388033302EB83039E420ED3948858
:1083E000444505D014881CB19468013440F00181E3
:1083F0009E4203D91A4613680133EAD1704405EB53
:108400008005EB68002BABD02C4A2B4805230221BA
:1084100091808CF8003011680023012201F034FBB8
:1084200004468DE705AD0023059348F20E64C5E9C7
:1084300002332B619DE5244B00225A604FF4064421
:1084400005AD3CE6B37D1F4D022B08D90AEB8A022D
:1084500005EB8202F388118903330B4413814FEA41
:108460008A09D144F38805EB8905C3F57F436A89FE
:10847000FD3313446B8105AD002305934FF406448F
:10848000C5E902332B6174E502233371CDE906445B
:1084900005ADF36805930DF112012846FFF7CEFCF8
:1084A000002840F04D8148F2096408E6182E0020AB
:1084B0006C2F03009C2E00206C2C0020942E00209A
:1084C000782F0300582E0020342E0020B44B1B7848
:1084D000002B00F05581DFF8D0E2BEF80490B9F12E
:1084E000010F11D8AF4D039409EB890205EB82020D
:1084F000137883B109F101091FFA89F3012BAEF852
:10850000049002F11402F3D9A748082200210AF0CE
:1085100051FB3E68E8E55368DEF8001003F5805C27
:1085200003F1080A002900F029814B88033301EB8D
:1085300083018C4506D8039BCEF80030DAE79C45D2
:10854000F9D919460B680133F5D04B88033301EB99
:1085500083039C45EFD38C884445F0D0B1F800B03C
:10856000BBF1000FEBD088680130E8D0F388CEF87B
:108570000010A342D6D1002300938C4A8C480423D8
:1085800001F0F0F9002840F03B8109EB890905EB87
:10859000890501232B7452E5BCF80200814DDCF8FB
:1085A000042000EB800305EB83034FEA800E59683B
:1085B00001F58056002A40F0A98001F10802B2427C
:1085C000BFF41CAF136801333FF418AF5388033373
:1085D00002EB8303B3423FF611AF9488444500F0A9
:1085E000C8801488002C00F0C4809468013400F026
:1085F000C080CCF80420BEE6BCF80220694D930090
:10860000134405EB8305062400236968694A009337
:1086100067488CF80040082301F0A4F904468FE66F
:108620009CF80A304BB15F4DE86800238CF80A30A3
:1086300018B92B7C002B40F0E8809CF80B3053B12C
:10864000584D00238CF80B302B6A23B995F8243051
:10865000002B7FF4A3AE05AD002305938CF800300A
:10866000C5E90233ACF80230CCF804302B6180E469
:1086700001238CF800309CF80A30D3E7013B062B2D
:108680003FF6D0AE01A252F823F000BF21860200CF
:1086900099850200738302004B8302002584020047
:1086A000F9850200238302003E4DBCF808302A7D84
:1086B0000133ACF80830B2FA82F22B785209B3FADF
:1086C00083F38CF80B2000225B09ACF802208CF8B5
:1086D0000C2001228CF80A308CF80020A2E7BCF8AC
:1086E0000200304D344CDCF8042000EB800305EB35
:1086F000830356885968A38803333344A380022335
:108700008CF8003000FA03FE01F5805653880333DD
:1087100002EB830253E7BCF80220224D264902EB0C
:10872000820305EB83038888188158680C68086009
:108730000220888000215C60197402FA00F35FE770
:1087400006991A4A8B88F3800B8833811848009465
:108750000423BDF8124001F005F9002837D1114B70
:1087600004EB840403EB8404012323740BB0BDE801
:10877000F08FB342BFF442AE1A4623E75146D8E623
:1087800005AD2146084808220AF014FA0594C5E907
:1087900002442C6148F201643E68FFF7EABB00BF67
:1087A000342E0020582E0020A02E00206C2F030015
:1087B0006C2C0020702F0300942E002005AD059036
:1087C00048F20964C5E902002861FFF7D2BB3E68A0
:1087D00048F20D6473E4002303EB830305EB83028B
:1087E0000D485168002205F82320009208230B4A07
:1087F00001F0B8F889E40123EEE701F10802E3E5AE
:108800003E6848F20D6405AD59E40346C8E53246BA
:1088100048F20E64DDE400BF6C2C0020702F0300D2
:108820004068FFF77DBB00BF30B370B50D4682B026
:10883000F1B10DF106010446FFF700FB18B948F24B
:10884000096002B070BDBDF806000D4B666800EB14
:10885000800003EB800001210C3000F081FC2E60D1
:10886000636801220C3300206B60A27202B070BDFD
:1088700048F2046002B070BD48F20460704700BF67
:10888000582E002010B310B582B00DF10601044639
:10889000FFF7D4FAB0B1BDF806300E4A03EB8303FC
:1088A00002EB8303DA684AB1A27A3AB1DA680021AE
:1088B000013A0846DA60A17202B010BD48F20560C4
:1088C00002B010BD48F2096002B010BD48F2046069
:1088D000704700BF582E00202DE9F047514B1B7800
:1088E00082B083B30C46002945D00A884FF6FF7347
:1088F0009A4222D04B8803B34D6815F0030534D15A
:10890000B1F8089009F103039BB240F2FE329342A2
:1089100034D8454A1178074639B95089118901443C
:10892000194489B2B1F5806F2BD9117D89B148F214
:108930000665284602B0BDE8F08748F20365284680
:1089400002B0BDE8F08748F20165284602B0BDE8F4
:10895000F087D08B918B0144194489B2B1F5806FB7
:10896000E5D84FF00108C2460DE048F202652846FE
:1089700002B0BDE8F08748F20465DAE748F208651E
:10898000D7E7A846AA460AEB8A0A02EB8A0A0344FA
:1089900001A92648AAF80A3000F0B2FA1C220646BD
:1089A00000210AF007F9002E2FD0A6F81480022328
:1089B0004FF0000886F81680337063683361012138
:1089C0001B4800F0CDFBF060238833816388174893
:1089D000B38001A9A6F80690A6F80A8000F0C2FAB2
:1089E00047B1C7F80480F268124B3A601B8987F8D8
:1089F0000A803B811048012100F0A6FB04460028B4
:108A000097D1FFF78DFA254693E7BAF80A30C9F5F2
:108A10007F4909F1FD099944AAF80A9048F20765CF
:108A200087E700BF342E0020582E0020802E002023
:108A3000502E00203C2E0020902E00202DE9F047E3
:108A400082B068B3524B1B78002B41D00C4639B32F
:108A50000A884FF6FF739A4234D04B8893B34E681E
:108A600016F003063AD1B1F808A00AF103039BB24D
:108A700040F2FE32934234D8464A1178054639B95D
:108A8000518910890844184480B2B0F5806F2BD901
:108A9000117D59B148F20666304602B0BDE8F08754
:108AA00048F20466304602B0BDE8F087D18B908B67
:108AB0000844184480B2B0F5806FEBD84FF001093C
:108AC000C84613E048F20366304602B0BDE8F087BE
:108AD00048F20166304602B0BDE8F08748F202660F
:108AE000DAE748F20866D7E7B146B04608EB8808EF
:108AF00002EB88080B442848A8F80A3001A900F0C6
:108B0000FFF91C22074600210AF054F8002F32D04A
:108B10004FF000080323A7F8149087F816803B70E5
:108B200063683B6101211D4800F01AFBF86023884F
:108B30003B816388BB800423A7F806A0BB752B6824
:108B4000BB6101A91448A7F80A8000F00BFAC5F828
:108B50000480FA68124B2A601B89124885F80A8043
:108B60002B81012100F0F0FA0446002894D1FFF790
:108B7000D7F9264690E7B8F80A30CAF57F4A0AF1D5
:108B8000FD0A9A44A8F80AA048F2076684E700BFE5
:108B9000342E0020582E0020802E0020502E002041
:108BA0003C2E0020902E002070B51D4B1B7882B00B
:108BB0000BB34FF6FF739842044626D001A919481B
:108BC00000F09EF91C220546002109F0F3FFBDB11B
:108BD000052301262B70EC8001A912482E7100F0AC
:108BE000C1F91148314600F0AFFA044690B10024B3
:108BF000204602B070BD48F20164204602B070BD4C
:108C000048F20764204602B070BD48F20364204673
:108C100002B070BDFFF784F9204602B070BD00BFFE
:108C2000342E0020802E0020902E00202DE9F047C9
:108C3000374C2478002C5FD0002A61D0002B5FD005
:108C40009C88012C60D8334D661C04EB840405EB32
:108C500084058A462C78B6B24FF6FF774FF00008AD
:108C600044B1022E9E8005F114054DD02C780226C9
:108C7000002CF6D11C68D5F804C00CF5805E002CE1
:108C800037D0B4F802C00CF1030C04EB8C0474452B
:108C900005D3C3F80080E4E7E645FAD964462168C5
:108CA0000131F6D0B4F802C00CF1030C04EB8C0CCB
:108CB000E645EED3B4F80490B945EDD0B4F8009091
:108CC000B9F1000FE8D0A1680131E5D01C60B4F81B
:108CD00004C08445CFD1B4F800C0D445CBD1A1683D
:108CE000116019680C4B51601B8913810020BDE88D
:108CF000F0870CF10804CAE748F20160BDE8F0878C
:108D000048F20460BDE8F08748F20960EFE700BF71
:108D1000342E0020582E00203C2E0020364B1B788D
:108D2000002B60D0002961D0002A5FD02DE9F043EC
:108D3000B2F804E0BEF1010F5BD8304B0EF1010533
:108D40000EEB8E0E03EB8E0EADB29EF800304FF69A
:108D5000FF764FF000094BB1022D95800EF1140EF5
:108D600047D09EF800300225002BF5D11368DEF8BD
:108D700004C00CF58054002B32D0B3F802C00CF1C3
:108D8000030C03EB8C03A34205D3C2F80090E3E786
:108D90006445FAD963461F680137F6D0B3F802C0BC
:108DA0000CF1030C03EB8C0C6445EED3B3F8048098
:108DB000B045EDD0B3F80080B8F1000FE8D09F685F
:108DC0000137E5D013601C888442D0D19B680B60CA
:108DD00012680B4B4A601B890B810020BDE8F083B1
:108DE0000CF10803CFE748F20160704748F20460D5
:108DF000704748F20960F1E7342E0020582E002019
:108E00003C2E0020364B1B78002B60D0002961D00F
:108E1000002A5FD02DE9F043B2F804E0BEF1010F63
:108E20005BD8304B0EF101050EEB8E0E03EB8E0E70
:108E3000ADB29EF800304FF6FF764FF000094BB10F
:108E4000022D95800EF1140E47D09EF800300225B9
:108E5000002BF5D11368DEF804C00CF58054002B0C
:108E600032D0B3F802C00CF1030C03EB8C03A34225
:108E700005D3C2F80090E3E76445FAD963461F685A
:108E80000137F6D0B3F802C00CF1030C03EB8C0CE5
:108E90006445EED3B3F80480B045EDD0B3F800805C
:108EA000B8F1000FE8D09F680137E5D013609C88C7
:108EB0008442D0D19B680B6012680B4B4A601B89BF
:108EC0000B810020BDE8F0830CF10803CFE748F2E6
:108ED0000160704748F20460704748F20960F1E7AA
:108EE000342E0020582E00203C2E002020B119B135
:108EF00003680B600020704748F20460704700BFB1
:108F000010B483B050E8013F1FFA83FCC489A44425
:108F10008489A44528BFACEB040C0489A44502BF96
:108F2000BFF32F8F002207E0CCEA030C40E801C416
:108F3000002CE7D14FF001028DF803200193019C32
:108F40009DF803200C6032B1006810FA84F003B081
:108F50005DF8044B704702F0FF03184603B05DF85C
:108F6000044B70470A884B889A4201D00020704712
:108F700050E8012FC2EA024240E80123002BF7D15A
:108F80000120704710B483B050E8023F1FFAA3FCE1
:108F9000C488A44502BFBFF32F8F00220EE0C4890E
:108FA000A4448489A44528BFACEB040CC3EA0C4C50
:108FB00040E802C4002CE7D14FF001028DF80320F5
:108FC0000193019C9DF803200C6032B1006800EB16
:108FD000144003B05DF8044B704702F0FF031846DD
:108FE00003B05DF8044B70470A884B889A4201D061
:108FF0000020704750E8022FC2EA224240E80223D4
:10900000002BF7D1012070474B0901F01F024FF0F0
:10901000010C0CFA02F100EB830000F07DB800BFF8
:109020004B0910B501F01F040121A14000EB8300A2
:1090300000F066F8E04000F0010010BD01F01F02F2
:10904000012303FA02F24B0900EB8300D14300F045
:109050006FB800BF4B0901F01F0150F82300C84052
:1090600000F00100704700BF2DE9F04F01F1FF3B18
:1090700083B04FEA5B130F460546019300264FF07D
:10908000010A55F8264005EB8608E44394FAA4F457
:10909000FCB1B4FA84F404EB46144FEA4619A74233
:1090A00017D904F01F0360090AFA03F105EB8000E9
:1090B0009B4600F025F820FA0BF0C30711D5D8F82D
:1090C0000030DB4393FAA3F3B3FA83F44C44002B50
:1090D000E5D1019AB24206F1010301D01E46D0E764
:1090E0003C46204603B0BDE8F08F00BF034653E87E
:1090F000000F0A4643E8002C9CF0000FF7D17047A0
:10910000034653E8000F40EA010243E8002C9CF0BC
:10911000000FF6D1704700BF034653E8002F42EA24
:10912000010043E8000C9CF0000FF6D1704700BF2F
:10913000034653E8002F02EA010043E8000C9CF0CC
:10914000000FF6D1704700BF034653E8000F00EB55
:10915000010243E8002C9CF0000FF6D1704700BFDD
:10916000034653E8002F02EB010043E8000C9CF09B
:10917000000FF6D1704700BF034653E8002FA2EB63
:10918000010043E8000C9CF0000FF6D1704700BFCF
:109190000346012253E8001F41EA020043E8000CA5
:1091A0009CF0000FF6D170470346002253E8000FF1
:1091B00000EA020143E8001C9CF0000FF6D1704762
:1091C00030B583B0044600250DF107008DF8075037
:1091D000FEF7D6FDD4E900311A688A4210D9511E33
:1091E00019602168A3680D6812F8012C208A5B1BA6
:1091F000E56800FB02550A79DBB29A4238BF0B7171
:109200009DF80700FEF7E2FD284603B030BD00BF21
:1092100030B5054683B00DF1070000230C468DF8EC
:109220000730FEF7ADFD2A681368591C1160E96824
:109230002A8A641AB4FBF2F41C709DF80700FEF74A
:10924000C5FD03B030BD00BF826842B110B5044611
:1092500043690168006998470023A36010BD704707
:109260000EB400B582B0039921B104AB01AA0193F9
:1092700000F0B6F802B05DF804EB03B0704700BF31
:109280002DE9F04F154683B0A942DDF830900D9AD4
:109290000F4606469A46C0F09E800B464FF00108E6
:1092A000B3FBF5F39D4208F10108F9D9D04538BF69
:1092B000D04612F00103019302D1B9F1000F67D13A
:1092C000B268BAF1010F4FF0010406D90AF1FF3A72
:1092D000BAF1010F05FB04F4F8D8B7FBF4F39D4293
:1092E00005D805FB04F4B7FBF4F39D42F9D9DFF888
:1092F000ECA007E0AC42B4FBF5F31AD3B2681C460D
:10930000B7FBF3F31AF803B0BBF10A0F04FB1377B2
:1093100028D03368511CB16003F802B0D6E901329D
:109320009A42E7D33046FFF78FFFB4FBF5F3AC4228
:10933000E4D2019B9BB1B9F1000F10D02024C845A5
:1093400009F1FF390BD2B3683268591CB160D454AB
:10935000D6E901329A4214D2B9F1000FEFD103B02D
:10936000BDE8F08F511C3368B1604FF00D01995486
:10937000D6E901329A42CCD33046FFF765FFB26896
:10938000C7E73046FFF760FFB9F1000FD7D1E6E736
:1093900093071AD42024B268C84502F1010190D283
:1093A0003368B1609C54D6E901329A4209F1FF3921
:1093B00003D2B9F1000FEFD183E73046FFF744FF46
:1093C000B268B9F1000FE7D17BE7BAF1000F0CBF2B
:1093D00030242024DFE74FF0010867E78C2F0300DB
:1093E000002900F05C822DE9F04FDFF870950D78D0
:1093F00085B0064690460C464FF00D0A0FE00A2D48
:10940000B36800F08E803268591CB160D554D6E93B
:1094100001329A4280F081802578002D69D0013494
:10942000002D66D0252DEAD10027234614F8012B04
:109430002D2A6CD0302A6DD02B2A61D02A2A7FD0D9
:10944000A2F1300109294FF000050BD805EB850585
:1094500002EB450513F8012FA2F130010929A5F10E
:109460003005F3D92E2A1C4675D0002301E014F8EC
:10947000012F02F0FB016829F9D0252A00F086812E
:10948000583AD1B2202930D8202A2ED8DFE812F05D
:1094900021002D002D002D002D002D002D002D0070
:1094A0002D002D002D00FE0079002D002D002D0037
:1094B0002D0079002D002D002D002D002D002D00F8
:1094C000BD002D002D001A012D0016012D002D00CC
:1094D0002100D8F800101022081DC8F80000096803
:1094E0003046CDE90057FFF7CBFE01342578002D3B
:1094F00095D1337B002B40F0438105B0BDE8F08F60
:10950000234614F8012B2D2A47F0040792D147F087
:1095100001078AE747F0020787E73046FFF794FE26
:109520007AE73268591CB16002F803A0D6E901233A
:109530009342FFF468AF3046FFF786FEB36862E7F8
:10954000D8F80020111DC8F8001015685A782E2A86
:1095500003F1010489D16278A2F13003092B04F1EF
:1095600001044FF0000384D803EB830302EB4303B1
:1095700014F8012FA2F130010929A3F13003F3D926
:1095800077E7D8F80020111DC8F80010D2F800B015
:109590008BEAEB72A2EBEB72092A40F3DB81DFF876
:1095A000C0C3012011466329ACFB02E200F10100B7
:1095B0004FEAD202F6DC9842024638BF1A460292BF
:1095C000002D00F01E81BBF1000FC0F22E817A0742
:1095D00000F12B81B80740F12A81002B40F0278150
:1095E000BBF1000FC0F27D817A0700F18D8107F099
:1095F0000302022A00F05D81CDE9005759460A2294
:109600003046FFF73DFE013470E7D8F800301A1DF0
:10961000C8F800201F68B3683268581C3021B06059
:10962000D154D6E90123934280F0FA80591C326864
:10963000B1607821D154D6E901329A4280F0EB80B2
:109640000F2F03D93B461B090F2BFCD84FF0805539
:1096500006E00F2D4FEA15137FF647AFB2681D469F
:10966000B7FBF5F319F803B0BBF10A0F05FB13774D
:1096700077D03368511CB16003F802B0D6E90132EB
:109680009A42E6D33046FFF7DFFDE2E7D8F8003034
:109690001A1DC8F800201D78B3680A2D00F03A8121
:1096A0003268591CB160D554D6E901329A42FFF4B0
:1096B0001CAF3046FFF7C8FD013417E7D8F800109B
:1096C0000A2209E7D8F800301A1DC8F8002017F060
:1096D0000107D3F800B064D1BBF1000F03D05846A6
:1096E00009F070FA0746BD4215D9202201E0BD42BB
:1096F00011D0B1683368481CB0605A54D6E90130C3
:10970000984205F1FF35F2D33046FFF79DFDBD428B
:109710004FF02002EDD19BF80050002D3FF4E5AE54
:109720000A2DB0680FD03368421CB2601D54D6E9D0
:109730000130984280F0B4801BF8015F002D3FF4A7
:10974000D4AE0A2DEFD13368421CB26003F800A0FA
:10975000D6E901309842E6D33046FFF775FDB06890
:10976000E1E73368511CB16003F802A0D6E9013289
:109770009A42FFF47EAF3046FFF766FDB26878E7A5
:10978000304605B0BDE8F04FFFF75EBDB368316805
:10979000581CB060CA54D6E901329A4289D20134C9
:1097A000A4E69BF80030002B00F0D680B0685F463E
:1097B000CBF101020A2B02EB070B5ED0411CB1601A
:1097C00031680B54D6E90130984248D217F8013F6E
:1097D000002BEFD15D457FF688AE202702E05D4586
:1097E0003FF483AEB2683368511CB1609F54D6E930
:1097F00001329A4205F1FF35F1D33046FFF724FDDF
:10980000EDE7B80705D5002B3FF4EAAEF9073FF5C1
:10981000E7AE0025E4E63046FFF716FDB2680FE735
:109820003046FFF711FDB36800E7013DD2E6F907C6
:109830003FF5D6AE002DECD020220299A942BFF40C
:10984000CFAEB168481CB06030684254D6E901011F
:10985000814205F1FF356CD2002DEED1D9E73046BB
:109860000292FFF7F1FC17F8013F002BB2D0029AE9
:10987000B0680A2B02EB070BA0D1411CB160316824
:1098800001F800A0D6E90110884297D33046CDE90F
:109890000232FFF7D9FCDDE90232B0688EE770478B
:1098A0003046FFF7D1FC1BF8015F002D7FF438AF85
:1098B0001BE6002B7FF4A0AE8DB1302202998D42C1
:1098C0007FF69AAEB168481CB06030684254D6E961
:1098D0000101814205F1FF3535D2002DEED1002581
:1098E0008AE6B1683268481CB060CBF1000B2D20CD
:1098F0005054D6E901219142FFF479AE30460393EA
:10990000FFF7A2FC039B72E6B1683268481CB060A6
:109910002B20EDE73268591CB16002F803A0D6E9AC
:1099200001239342FFF4BCAE3046FFF78DFCB368D1
:10993000B6E630460393FFF787FC039B2022002DF9
:109940007FF47BAF65E730460393FFF77DFC039B15
:109950003022C2E701202EE69B463BE78C2F030016
:10996000CDCCCCCC2DE9F04182B0002859D01546A1
:10997000002A5FD00768002F65D01C466BB346688D
:10998000D6F80480B3FBF8F608FB163676BB11F068
:10999000030F34D1AD073BD1C568A94211D22E4B7C
:1099A0002E482F4AC01A1024C0082E4BA0402E4922
:1099B000009440F0010001F055F9204602B0BDE8E6
:1099C000F081056901F1FF3E7444AC42E7D8FC68C0
:1099D000A44602B0BDE8F04160471F4B1F48234A30
:1099E000C01AC0081F4B09240004E0E71A4B1B48AB
:1099F0001F4AC01AC0081B4B09240004D7E7164BA6
:109A000016481C4AC01A1024C008164BA040CEE7C6
:109A1000114B1248184AC01A1024C008114BA0401C
:109A2000C5E70D4B0D48154AC01AC0080D4B0E2452
:109A30000004BCE7084B0948114AC01AC008094B8A
:109A40000E240004B3E7044B04480E4AC01AC008B1
:109A5000044B08240004AAE7FC6E0300646F0300B3
:109A6000A030030064310300A42F0300EC2F030097
:109A700038300300643003007C3003009C2F030067
:109A800030300300D82F0300F0B583B000283AD05F
:109A90000668002E40D022B3446827687C1E0C4222
:109AA00028D1C468A14210D2204B2148214AC01AB3
:109AB0001024C008204BA0402049009440F0010031
:109AC00001F0D0F8204603B0F0BD4C1E07FB024E5B
:109AD0000469A645E8D83469A44603B0BDE8F0405F
:109AE0006047124B1248164AC01AC008124B09248C
:109AF0000004E1E70D4B0E48124AC01A1024C008BA
:109B00000D4BA040D8E7094B09480F4AC01AC008BE
:109B1000094B0E240004CFE7044B05480B4AC01A3A
:109B2000C008054B08240004C6E700BFFC6E030014
:109B3000646F0300F030030050310300A42F0300D2
:109B4000EC2F0300C83003009C2F0300D82F030024
:109B500029DF704728DF7047034B187A0122B0FADB
:109B600080F05A7440097047B82E002030B53B4D44
:109B70002B7A87B0002B3AD0394B1C6802232B720A
:109B80002379002B3ED0012B25D022689368C3B1E6
:109B90000023CDE902330093049303230193A368C8
:109BA00005932379002B4BD0012B07D102238DF88D
:109BB0000030E368616904911B030293936868466F
:109BC00098472849284800232B726B6007B0BDE8EE
:109BD0003040FFF709BAD4E903031844FFF7BAFF8E
:109BE00020B31128D1D101232B7207B030BD1D49FC
:109BF0001D48FFF7C7F91A4B044618600028BDD16D
:109C00006860F2E7D4E90523D21AB2F5805F28BF75
:109C10004FF480529208E1682069012A38BF01227E
:109C200019441844FFF794FF0028DAD12B7C002B4D
:109C3000DBD10146022007B0BDE8304000F016B885
:109C400001238DF8003023690293E1686369CDE94F
:109C50000313684693689847B3E700BFB82E002007
:109C6000D02E0020CC2E0020A82E0020831E012BF9
:109C700042D810B5354C237A86B0002B3AD0022B4F
:109C800031D103283ED0324B00221B68E2601A79A2
:109C9000002A44D0012A26D1D3E9042101328A4284
:109CA0001A6120D10020207219688A68BAB1002296
:109CB000CDE90222009204929A68019005921A79E5
:109CC000002A39D0012A07D102228DF80020DA6853
:109CD00058690490120302928B68684698471D49A0
:109CE0001D48FFF781F9637C3BB906B0BDE8104021
:109CF000FFF73CBF06B010BD704706B0BDE810408E
:109D000001F0C0BCE3680133082B01D8E360EAE747
:109D10000F4B00221B68E26022720D20C4E7D3E9DA
:109D20000512881AB0F5805F94BF121802F58052B0
:109D300091429A61D7D1B5E701228DF800201A69C6
:109D40000292DA685B69CDE90323C5E7B82E0020EB
:109D5000D02E0020CC2E0020A82E002000F0FD03E5
:109D6000012B00D0704730B53D4DA0F10100B0FA95
:109D700080F02B7A0022400987B06A742874002B87
:109D80004ED0384B1C6802232B722379002B52D003
:109D9000012B07D1D4E903031844FFF7DBFE58B3C6
:109DA00011281CD0226893687BB10023CDE90233CF
:109DB0000093049303230193A368059323792BB3A2
:109DC000012B10D0936868469847274927480023FD
:109DD0002B726B6007B0BDE83040FFF705B9012377
:109DE0002B7207B030BD02238DF80030E368616943
:109DF00004911B030293E5E72B7C002BF1D1014674
:109E0000022007B0BDE83040FFF730BF01238DF8D6
:109E100000302369E16802936369CDE90313D1E758
:109E200011491248FFF7AEF80E4B0446186000289F
:109E3000A9D16860D5E7D4E90523D21AB2F5805FCD
:109E400028BF4FF480529208E1682069012A38BF88
:109E5000012219441844FFF77BFE0028A0D1CBE76C
:109E6000B82E0020D02E0020CC2E0020A82E0020BE
:109E70002DE9F041058A0331043D4E198046B6FBB9
:109E8000F5F6FFF79DF9A0B3F6B24FF48073013EEB
:109E900004468380C580C0F800802BD0034600258F
:109EA00008E06279AE4202F1010262713860C0F8E6
:109EB00000801FD040461F46FFF782F90135034658
:109EC0000028EED16779791E17D0224601339942D6
:109ED0001268FBD1D2F800805FB12668002501E04E
:109EE00034463668214640460135FFF791F9AF42C6
:109EF000F6D800242046BDE8F08120682146FFF70F
:109F000087F9F6E701210430FFF72AB92DE9F0417E
:109F1000012104460430FFF72FF910F0FF0301D0B0
:109F2000BDE8F0816779791E16D022460133994247
:109F30001268FBD1D2F80080002FF1D026680025EE
:109F400001E034463668214640460135FFF760F9A6
:109F5000AF42F6D8BDE8F08120682146BDE8F04167
:109F6000FFF756B92DE9F8438846C788417907FBC2
:109F700001F1043902EB030C1E1D6145154638BF83
:109F8000CD1AB7420446B6FBF7F207FB126002D8BF
:109F9000013A2468FCD13E1AAE4228BF2E469DB13C
:109FA0004FF000090430AD1B324608EB0901204494
:109FB00008F0F2FDAF42B14424683E464FF0000085
:109FC00028BF2E46002DEDD1BDE8F8832DE9F843DA
:109FD0000446C788407907FB00F0043802EB030C05
:109FE0001E1D6045154638BFC51AB7428846B6FBE8
:109FF000F7F107FB116202D801392468FCD1BE1ABF
:10A00000AE4228BF2E469DB14FF00009111DAD1B79
:10A010003246214408EB090008F0BEFDAF42B144CE
:10A0200024683E464FF0000228BF2E46002DEDD199
:10A03000BDE8F883064A074B10B5002414701C6075
:10A04000BFF35F8F0449054800F0FAF8204610BDC1
:10A05000DC2E0020E02E002084310300D42E0020CE
:10A060000368826818685B68934234BF0133002339
:10A07000C01AB0FA80F04009704700BF70B50446BE
:10A0800082B000250DF107000E468DF80750FDF750
:10A0900077FE2368A26818685968914238BF4D1C42
:10A0A000A84212D0586859688A420BD800225A60D8
:10A0B000E268531E072B19D8DFE803F04540183B30
:10A0C0001818183301315960F2E7217C002941D179
:10A0D00058685D68AA423AD859602268A168136836
:10A0E0008B4234BF013300231360E1E763683146DC
:10A0F00000FB023008F050FD2268136851688B4263
:10A1000082BFA06801300918CB1A91689DF807003A
:10A11000994238BF9360FDF759FE0024204602B0F3
:10A1200070BD636896ED007B03EBC00080ED007BA3
:10A13000E2E76368326843F82020DDE7636832882D
:10A1400023F81020D8E7636832781A54D4E7013531
:10A150005D60C2E79DF80700FDF738FE0424204645
:10A1600002B070BD2DE9F041144682B01AB9204604
:10A1700002B0BDE8F081054600230DF107008DF81F
:10A1800007300E46FDF7FCFD2A68136850688342CD
:10A190000BD8C31A9C420ED905249DF80700FDF781
:10A1A00015FE204602B0BDE8F081A96801310144E6
:10A1B000CB1A9C42F0D817681368526869689342BA
:10A1C00084BFAA680132D31AEA689C4202FB0711D5
:10A1D0000DD804FB02F2304608F0DEFCAA682B68BA
:10A1E0003C44944288BF00241C600024D5E703FB54
:10A1F00002F842463046E71A08F0CEFCEA68696881
:10A2000006EB080007FB02F208F0C6FC2B680024EE
:10A210001F60C2E730B5044683B000250DF107008A
:10A220008DF80750FDF7ACFD0C222946206808F098
:10A23000C1FC9DF80700FDF7C9FD03B030BD00BFAC
:10A2400001600B6843604A68934204BF0023436087
:10A25000704700BF436843B1026891680B44436094
:10A260005268934204BF0023436070471049A1F530
:10A27000947205E052F83330984238BF61460CD2F0
:10A28000A1EB020C4FEADC7303EBEC035B10914291
:10A2900002EBC30CEED80748704702D90CF1080254
:10A2A000EEE7DCF80400034B002808BF18467047AF
:10A2B000C436030088350300F0B595B00846002485
:10A2C0000E4617461D46FFF71DFE1A9A0D922346AD
:10A2D000082205A93046CDE9095408978DF82C408D
:10A2E0000C94FFF773FEDDE906219DF814308DF81C
:10A2F0001140CDE9021203F00302012A28D0022AFC
:10A3000004D03046FFF702FE15B0F0BDBDF8165080
:10A31000C3F3C203C5F389158DF810300827082D43
:10A320002C4628BF08243B4622460EA93046FFF79C
:10A330004DFE2D1B08AB02AA21460EA8274400F0B3
:10A340003BFE002DEBD13046FFF7E0FD15B0F0BD30
:10A35000BDF814100598C1F38312C3F3C203C0F310
:10A360009525C1F383148DF810300EA93046920064
:10A370000823FFF72BFE08AB0093224602AB0EA981
:10A38000284600F0A3FD3046FFF7C0FD15B0F0BD34
:10A39000704700BF00B583B0044B0093044A4023CC
:10A3A000FFF78AFF03B05DF804FB00BFB5A302000E
:10A3B000E82E002038B50F480F4D03780F4CEB5CAA
:10A3C0004FF0000C84F800C0D2B253B10430FDF756
:10A3D000FBF958B90A4B1B7813B12378002BFCD03A
:10A3E00038BD0C30FCF740FF0028F3D0FDF710FC1F
:10A3F000F0E700BFDC2B00200C2D0020282F0020D0
:10A40000E42E002010B51548154A0378D35C88B0B7
:10A41000C3B10430FDF738F9124C0FCCEC46ACE870
:10A420000F0094E80F008CE80F0006230B48009300
:10A4300000226946FCF77EF940B90B4B00221A70E6
:10A4400008B010BD0C30FCF7A1FEE5E7FDF7E0FB1E
:10A45000054B00221A7008B010BD00BFDC2B002095
:10A460000C2D0020C4360300E42E002030B499B136
:10A470000D490E4D491BC90813D00D4C002302E0B5
:10A48000013399420AD034F823208242F8D1184689
:10A4900055F8300030BC7047044DF9E7002030BC5F
:10A4A00070470846F6E700BFEC6F0300FC6E030040
:10A4B000802C0020094B013903EBC00003290BD885
:10A4C000DFE801F00402080604207047022070470C
:10A4D000407970470079704700207047FC6E030098
:10A4E0002DE9F043904CD4E901239A4285B060D025
:10A4F0000023C4F81834BFF34F8FA568EAB2D31C09
:10A5000004EB830114F82330580718D566680B78DC
:10A5100003F00303012B42D0022B03D14B880235F9
:10A5200005EB9315EAB2D4F81804D31C04EB8301AD
:10A5300028B9AE4239D914F823305B07E7D404EBCD
:10A5400082026B1CDBB2D26804EB830302F00301CE
:10A55000DB680229CDE9012305F102062DD001298E
:10A5600000F09280D4F810543DB12B6828469B68C7
:10A570009847EB681D68002DF7D16C486C4B6D490E
:10A58000C01AC008000440F0020000F0D9F8D4E975
:10A590000130C01A18BF012005B0BDE8F0830B8858
:10A5A0000235C3F383131D44BCE7A66005B0BDE8C4
:10A5B000F083002005B0BDE8F083BDF806305E48AA
:10A5C000C3F389184546502D28BF502505F10801D1
:10A5D00065F38F13C1F30901ADF80630FFF748FCAE
:10A5E00007460028BED0FFF78DFC0023082201A9F2
:10A5F0003846FFF7B7FCF343DBB20133B5EB830F0B
:10A600004FEA83027ED9F1B25FFA82F9033104EB9B
:10A61000810138460823A5EB0905FFF7A3FCEDB23D
:10A6200009F10803454903F0FC032A463846FFF7C1
:10A6300099FC08F1030806EB9806D4F81834002BAF
:10A640006ED1D4F8105465B1EB685A792846394672
:10A65000002A61D02B681B689847EB681D68002DA5
:10A66000F2D13846FFF752FC00230DF103008DF8BC
:10A670000330FDF785FBD4F8183403B9A6609DF8C4
:10A680000300FDF7A3FB82E7BDF804202A48C2F3CC
:10A690008313062B28BF062363F38912023303F0CA
:10A6A0000F018900ADF80420FFF7E2FB0746002800
:10A6B0003FF458AFFFF726FC0023082201A93846D3
:10A6C000FFF750FCBDF8043013F4707FB5D06FF085
:10A6D00001094FF00808A9EB0509F1B2033143461F
:10A6E000042204EB81013846FFF73CFCBDF804303E
:10A6F0000136C3F3831309EB0602934208F1040801
:10A70000EBD89AE7F1B203312A4604EB8101082322
:10A710003846FFF727FC8CE71D68002D94D1A0E791
:10A720003846FFF7F3FB32E7FC2F00202C6F0300C5
:10A73000FC6E030004370300E06E030008300020C5
:10A740002DE9F04FDFF89CA187B0002306460DF1FC
:10A750000B008DF80B300191FDF712FBDAE9018354
:10A7600003F58073A3EB0803012B00F281800AF24A
:10A770001C450AF583670AF214441AE0BDF80E304E
:10A78000C3F3891303334FEA11490BEB930B2046B4
:10A79000FEF70AFD494600283AD02846CAF808B014
:10A7A000FEF7DEFCDAE9012303F580739B1A012B27
:10A7B0005FD801212846FEF7D3FC3846FEF7E8FCB7
:10A7C0002046FEF7E5FCDAF80830DAB2D11C0AEBD5
:10A7D000810C1AF8211001F00400490728D40AEB73
:10A7E00082015A1CC9680391D2B201F003000AEB3E
:10A7F00082020128D16803F1020B31D00228BDD0BA
:10A800002046FEF7D1FC4FF0000949460028C4D18C
:10A810002846C5E7BCF802300EEB9313DAB2D11C20
:10A820000AEB810C1AF8211001F004000028D6D0A0
:10A830009CF8001001F0030101290AD0022903F15C
:10A84000020E02F10301E5D00AEB810C0028EFD1E2
:10A85000C5E7BCF800200233C2F383121344DDE7DE
:10A86000BDF80C30C3F383134FEA11499B448EE7C4
:10A870004246D3B20333023205219DF80B004AF859
:10A880002310CAF80420FDF7A1FA00211448FEF7AE
:10A890002DFC80F31001F300019A03F0380343F01C
:10A8A000010308F1010043EA8223C0B25FFA88F293
:10A8B00009040AEB8000033241EA1641C1604AF8FC
:10A8C00022309AF8003013B907B0BDE8F08FFFF7D7
:10A8D00007FE0028F8D0FFF703FE0028F7D1F3E7C2
:10A8E00018340020FC2F00202DE9F04FDFF8ACB128
:10A8F00087B0002306460DF10B008DF80B30CDE933
:10A900000012FDF73DFADBE9018303F58073A3EB49
:10A910000803022B00F281800BF21C450BF58367C4
:10A920000BF214441AE0BDF80E20C2F38912033270
:10A930004FEA114A09EB92092046FEF735FC5146D1
:10A9400000283AD02846CBF80890FEF709FCDBE94E
:10A95000012303F580739B1A022B5FD8012128463F
:10A96000FEF7FEFB3846FEF713FC2046FEF710FC10
:10A97000DBF80830DAB2D11C0BEB810C1BF821108C
:10A9800001F00400490728D40BEB82015A1CC96866
:10A990000391D2B201F003000BEB82020128D168CF
:10A9A00003F1020931D00228BDD02046FEF7FCFB9E
:10A9B0004FF0000A51460028C4D12846C5E7BCF82C
:10A9C00002300EEB9313DAB2D11C0BEB810C1BF8A7
:10A9D000211001F004000028D6D09CF8001001F0EE
:10A9E000030101290AD0022903F1020E02F1030139
:10A9F000E5D00BEB810C0028EFD1C5E7BCF80020B7
:10AA00000233C2F383121344DDE7BDF80C20C2F316
:10AA100083124FEA114A91448EE74246D3B2033380
:10AA2000033245219DF80B004BF82310CBF804208E
:10AA3000FDF7CCF908F10203DBB20BEB8303019ABB
:10AA4000DA6000211448FEF751FB80F31001F30097
:10AA5000009A03F0380343F0410308F1010043EA90
:10AA60008223C0B25FFA88F209040BEB8000033244
:10AA700041EA1641C1604BF822309BF8003013B90F
:10AA800007B0BDE8F08FFFF72BFD0028F8D0FFF7E7
:10AA900027FD0028F7D1F3E718340020FC2F002011
:10AAA0002DE9F04FDFF8B8B189B0002406460DF16A
:10AAB00013000393CDE901128DF81340FDF760F9FF
:10AAC000DBF80830DBF8047003F58073DB1B032B25
:10AAD00000F281800BF21C450BF583680BF21444E5
:10AAE0001AE0BDF81630C3F3891303334FEA114956
:10AAF0000AEB930A2046FEF757FB494600283AD056
:10AB00002846CBF808A0FEF72BFBDBE9012303F571
:10AB100080739B1A032B5FD801212846FEF720FB88
:10AB20004046FEF735FB2046FEF732FBDBF80830E7
:10AB3000DAB2D11C0BEB810C1BF8211001F00400E0
:10AB4000490728D40BEB82015A1CC9680591D2B27F
:10AB500001F003000BEB82020128D16803F1020A25
:10AB600031D00228BDD02046FEF71EFB4FF0000971
:10AB700049460028C4D12846C5E7BCF802300EEB90
:10AB80009313DAB2D11C0BEB810C1BF8210000F0FF
:10AB900004000028D6D09CF8001001F00301012920
:10ABA0000AD0022903F1020E02F10301E5D00BEBFA
:10ABB000810C0028EFD1C5E7BCF800200233C2F3B6
:10ABC00083121344DDE7BDF81430C3F383134FEA57
:10ABD00011499A448EE73A46D3B2033304328521B1
:10ABE0009DF813004BF82310CBF80420FDF7EEF886
:10ABF000BB1CDBB20BEB8303029ADA60FB1CDBB2FB
:10AC00000BEB8303039ADA6000211448FEF76EFA17
:10AC100080F31001F300019A03F0380343F081033D
:10AC2000781C43EA8223C0B2FAB209040BEB80001D
:10AC3000033241EA1641C1604BF822309BF80030E4
:10AC400013B909B0BDE8F08FFFF74AFC0028F8D02F
:10AC5000FFF746FC0028F7D1F3E700BF18340020C7
:10AC6000FC2F00202DE9F04F89B0DFF8B0B103933D
:10AC7000064600230DF113008DF81330CDE90112C3
:10AC8000FDF77EF8DBF80830DBF8047003F580731D
:10AC9000DB1B042B78D80BF21C450BF583680BF2F9
:10ACA000144419E0BDF81630C3F3891303334FEA97
:10ACB000114A09EB93092046FEF776FA514608B18E
:10ACC000CBF808902846FEF74BFADBE9012303F5A1
:10ACD00080739B1A042B58D801212846FEF740FAAE
:10ACE0004046FEF755FA2046FEF752FADBF80830E8
:10ACF000DAB2D11C0BEB810C1BF8211001F004001F
:10AD0000490721D40BEB820203F10209D2680592B4
:10AD10000133DBB20BEB830302F00302012AD96893
:10AD20002AD0022ABED04FF0000AC4E7BCF8023095
:10AD30000EEB9313DAB2D11C0BEB810C1BF8210044
:10AD400000F004000028DDD09CF8001001F00301A1
:10AD500001290AD0022903F1020E02F10301E5D014
:10AD60000BEB810C0028EFD1CCE7BCF800200233BC
:10AD7000C2F383121344DDE7BDF81430C3F3831329
:10AD80004FEA114A994496E73A46D3B20333053263
:10AD9000C5219DF813004BF82310CBF80420FDF7D4
:10ADA00015F8BB1CDBB20BEB8303029ADA60FB1CC9
:10ADB000DBB20BEB8303039ADA603B1DDBB20BEBD8
:10ADC0008303129ADA6000211348FEF78FF980F3AB
:10ADD0001001F200019B02F0380242F0C102781C1F
:10ADE00042EA8322C0B2FBB2033309040BEB8000BA
:10ADF00041EA1641C1604BF823209BF8003013B99B
:10AE000009B0BDE8F08FFFF76BFB0028F8D0FFF723
:10AE100067FB0028F7D1F3E718340020FC2F00204F
:10AE200038B5084BD3F8104401251D704CB1E368C8
:10AE30005D71236820465B689847E3681C68002CB6
:10AE4000F5D138BDFC2F002030B5C38885B004464D
:10AE50000D4623BB237A052B1FD0627A82B9144A90
:10AE6000A08852F8232003920021FFF7FFFA039AEB
:10AE700010490346284605B0BDE83040FEF7F0B95A
:10AE80001946A088FFF716FB0B4B0C4953F82020FE
:10AE90002846FEF7E5F9237AE1E705B030BD084919
:10AEA0000091084A08492846FEF7DAF9D2E700BFC0
:10AEB000E837030048370300C43703004437030072
:10AEC0003C3703001C370300243703002DE9F0430F
:10AED00085B01D460C9C002394F80C90237380468B
:10AEE0000E46174621462846FFF7AEFF062F09D823
:10AEF000DFE807F0042E343B444F1F004146204654
:10AF0000FEF7AEF92B7A052B05D06B7A5BB9274992
:10AF10002046FEF7A5F92046FEF796F984F80C9036
:10AF200005B0BDE8F083224A22492046FEF798F991
:10AF3000EDE77369039333690293F3680193B36890
:10AF40000093D6E9002341462046FEF789F9D9E768
:10AF5000326841462046FEF783F9D3E7D6E900235D
:10AF600041462046FEF77CF9CCE7B3680093D6E96A
:10AF7000002341462046FEF773F9C3E7F3680193C7
:10AF8000B3680093D6E9002341462046FEF768F9EE
:10AF9000B8E733690293F3680193B3680093D6E985
:10AFA000002341462046FEF75BF9ABE75437030028
:10AFB0003C37030044370300082900D970472DE9C6
:10AFC000F04F1D4683B000241B7B2C730E460746B2
:10AFD0002946104690460193DFF8D0B0DFF8D0A0A4
:10AFE000FFF732FF05E03A5D0134FEF739F9082C2E
:10AFF00009D0A64251462846F5D859460134FEF7F5
:10B000002FF9082CF5D12449DFF8A8B0234CDFF83C
:10B01000A8A02846FEF724F94FF0000917E017F81A
:10B020000910481C7E294FF02E02C0B206D810F835
:10B030000A2012F0970F14BF0A462E2221462846F6
:10B0400009F10109FEF70CF9B9F1080F0AD04E45D4
:10B05000E5D85946284609F10109FEF701F9B9F189
:10B06000080FF4D198F80830052B02D098F8093071
:10B070005BB90B492846FEF7F3F82846FEF7E4F8DB
:10B08000019B2B7303B0BDE8F08F064A06492846A2
:10B09000FEF7E6F8EDE700BF64370300683703000A
:10B0A000543703003C370300443703006037030084
:10B0B0005837030050370300686D030030B1036850
:10B0C00048F240508B4208BF0020704748F21050B1
:10B0D000704700BF48B119B10B68934202D30A60B0
:10B0E0000020704748F21450704748F213507047E0
:10B0F00008B310B50C46C1B10021C4E90010817934
:10B1000082B199420BD10D4B017953F821307BB1BB
:10B1100011462046984708B9094B236010BD48F2F4
:10B12000115010BD48F2105010BD48F2135010BD20
:10B1300048F2035010BD48F210507047FC3703002E
:10B140007052464D2DE9F04370B3467943B369B36D
:10B150007AB39E4224D802EB060818464546771873
:10B1600001F1FF3C3C4602F1FF3E29461CF8019FDD
:10B1700014F8013D0EF8013F0B4601F8019D023B1A
:10B18000A5EB01099B1A9945F0D9801B86423946E7
:10B190004246354401D8B044E1E708B9BDE8F08340
:10B1A00048F21150BDE8F0831E46CFE748F2105038
:10B1B000F4E748F21350F1E72DE9F8430C4600AFED
:10B1C00080462149204615461E46FFF777FF10B1FD
:10B1D000BD46BDE8F8831D492846FFF76FFF0028EC
:10B1E000F6D1D4F804906B68994504D048F24150E8
:10B1F000BD46BDE8F88399F80520396A3046FFF767
:10B2000069FF0028E4D199F80430114A52F82390DC
:10B21000B9F1000F15D0B8F1000F05D033462A461A
:10B2200021464046C847D3E70A4A32F81330002B7C
:10B23000F4D007336A46DB08A2EBC3039D46E84619
:10B24000ECE748F20350C3E77652464D7052464D44
:10B250000838030010380300064B1A78022A06D07B
:10B260001878A0F10100B0FA80F040097047012081
:10B27000704700BF1C34002070B56A461A4B9A42D2
:10B2800011D304460D46FFF7E7FF48B3174E336866
:10B2900023B1174A174B12689A421FD004B97DB1E7
:10B2A00048F2175070BD144B14481549C01AC00815
:10B2B000000440F00100FFF743FA48F2195070BD56
:10B2C000104811493060FBF707F80028EAD1084917
:10B2D0003368084C0D4A0C601A6070BD002070BDC8
:10B2E0004FF4054070BD00BF00F000206C35002019
:10B2F000643500206572E54BFC6E03002C6F030083
:10B300001438030020340020683500206169614D45
:10B31000094B0A4A1968914205D10949094A086846
:10B320000168914202D048F2025070470022026048
:10B330001A60FAF7FFBF00BF643500206572E54B65
:10B340006C3500206169614D10B50C466946154B9E
:10B3500099420DD302B10CB31349144B09689942B9
:10B3600003D190B148F2175010BD48F2025010BD01
:10B370000F4B10481049C01AC008000440F00100EB
:10B38000FFF7DEF948F2195010BD0C4B0C49186854
:10B3900013462246BDE81040FAF7EEBF48F21050BF
:10B3A00010BD00BF00F00020643500206572E54B41
:10B3B000FC6E03002C6F0300143803006C35002072
:10B3C0006835002040B370B50D4611B3144A154BD3
:10B3D00012689A4202D048F2025070BD124E0446E2
:10B3E00001230A4630682146FAF7ACFF48F2715350
:10B3F0009842F2D1002211461046FFF7A5FF00281F
:10B40000EBD130682A4621460123BDE87040FAF7A7
:10B4100099BF48F2145070BD48F21350704700BFF6
:10B42000643500206572E54B6C35002000B583B0B3
:10B43000FEF700FEA0B900F021F8B8B9002301A979
:10B440000120019300F086F968B901A800F062FAC2
:10B4500018B903F049FE0028FBD0FCF7D9FBF8E748
:10B46000FCF7D6FBE7E7FCF7D3FBEEE7FCF7D0FBF6
:10B47000E4E700BF10DF704711DF704770B53D4D46
:10B480002B7884B0002B67D13B4E3C49012302A8A6
:10B490003370FEF7D5FE039B23B90FE0FEF7DAFE0B
:10B4A000039B5BB1D3E9003100209847034602A813
:10B4B000002BF3D11C46204604B070BD304902A8D1
:10B4C000FEF7BEFE039B4BB1D3E900310020984745
:10B4D00002A8FEF7BFFE039B002BF5D1294B0022EB
:10B4E0001B68019302A88DF80820FCF749FC264947
:10B4F00001A8FFF7BFFFB0FA80F304465B099DF88F
:10B5000008002B70FCF762FC002CD4D11F4B2049A3
:10B510001C70347091F81623EC2352091341DB0799
:10B520001ED51C4B9A6802B31A6842F480021A6056
:10B53000134902A8FEF784FE039B002BBBD0D3E97E
:10B5400000310120984702A8FEF784FE039B002BE0
:10B55000F5D1204604B070BD0824204604B070BD6B
:10B5600042F20200FCF754FBE2E74FF480030B6069
:10B57000DEE700BF71350020703500203C38030045
:10B580005438030038380300317C02007235002043
:10B5900000E100E0002E0020F0B5344D2B7883B0A0
:10B5A000002B5AD0324E3349012368463370FEF7E0
:10B5B00047FE019B23B90FE0FEF74CFE019B5BB1F8
:10B5C000D3E900310120984703466846002BF3D1A8
:10B5D0001C46204603B0F0BD27496846FEF730FE02
:10B5E000019B4BB1D3E90031022098476846FEF732
:10B5F00031FE019B002BF5D1002768468DF80070C5
:10B60000FCF7BEFBFFF738FF04469DF800002F70E3
:10B61000FCF7DCFB002CDCD1184B34709A6802BBC1
:10B62000174B4FF48002C3F88020BFF34F8FBFF356
:10B630006F8F11496846FEF703FE019B002BC8D0AF
:10B64000D3E90031032098476846FEF703FE019BCB
:10B65000002BF5D1204603B0F0BD0824204603B0EE
:10B66000F0BD1A6822F480021A60E2E7713500200A
:10B67000703500203C38030054380300002E0020B1
:10B6800000E100E0054B1B7833B1054B1B780BB193
:10B69000FFF782BFFFF7F2BE082070477035002029
:10B6A00071350020014B1878704700BF71350020BC
:10B6B00000B583B008496846FEF7C2FD019B43B15F
:10B6C000D3E9002090476846FEF7C4FD019B002B9C
:10B6D000F6D103B05DF804FB4838030060DF704723
:10B6E00069DF704761DF704730B5154DADF5017DFD
:10B6F0004FF4FA740DF1020103A8ADF80240FFF710
:10B70000F1FF88B9294601A8FEF79AFD029B002B9C
:10B71000F0D0D3E9003103A8984701A8FEF79AFDBD
:10B72000029B002BF5D1E5E7052802D10DF5017D3F
:10B7300030BD0DF5017DBDE83040FCF769BA00BFB2
:10B74000EC3A0300024B1B780BB1FFF7CDBF7047FB
:10B7500073350020002900F0C88030B5644B0B60C1
:10B7600085B005460C460C22002101A807F022FAFC
:10B7700001238DF8063022688DF804504FF4A07331
:10B7800001A92020ADF80830FFF7AAFF002855D105
:10B790000C22002101A807F00DFA0123ADF80530B5
:10B7A0002268002301A940208DF80730FFF798FF99
:10B7B000002840F08C800C22002101A807F0FAF943
:10B7C000F72322688DF8045001A92320ADF8063034
:10B7D000FFF786FF00286CD10C22002101A807F09A
:10B7E000E9F9002322688DF8043001A90120FFF750
:10B7F00077FF00284FD10C22002101A807F0DAF9C9
:10B800004FF4B0632268019301A9A120FFF768FFFC
:10B8100098BB0C22002101A807F0CCF99DF8043058
:10B8200022686FF3000301A9A0208DF80430FFF710
:10B8300057FF034680B9184605B030BDFEF716FD28
:10B840002C4B2D4902462D48181AC008000440F020
:10B850000100FFF749F89BE7FEF708FD254B284953
:10B86000024626481B1ADB081B0443F00100FFF7C1
:10B870003BF80023184605B030BDFEF7F7FC1D4B22
:10B88000204902461D48181AC008000440F0010073
:10B89000FFF72AF8BDE7FEF7E9FC164B1A49024606
:10B8A0001648181AC008000440F00100FFF71CF801
:10B8B000A1E7FEF7DBFC0F4B144902460F48181AAC
:10B8C000C008000440F00100FFF70EF884E7FEF71F
:10B8D000CDFC084B0E4902460848181AC00800045F
:10B8E00040F00100FFF700F865E70E2318467047A7
:10B8F000D02B0020746F030060380300FC6E03003F
:10B90000DC390300883903003C390300F4380300B4
:10B91000A838030070B5044682B00668FFF7DEFE63
:10B920002368B342054606D82DBB1B4B012228468F
:10B930001A7002B070BD194B19481A49C01AC008D4
:10B94000000440F002000190FEF7FAFE2368164959
:10B9500001983246FFF7A4F84FF080532268D3F8DD
:10B960000C31124901989B0203F100539A1AFEF719
:10B97000BBFF002DD9D02846FEF778FC084B0C49B8
:10B98000024606481B1ADB081B0443F00100FEF7C1
:10B99000ABFF284602B070BD73350020FC6E03007B
:10B9A000746F0300303A0300603A0300943A0300D6
:10B9B000C03A03004BDF704710B5124C84B001A8A9
:10B9C000FFF7F8FFA8B9214602A8FEF739FC039B50
:10B9D000002BF4D0D3E900310198984702A8FEF774
:10B9E00039FC039B002BF5D101A8FFF7E3FF0028EA
:10B9F000E9D0052801D104B010BD04B0BDE8104065
:10BA0000FCF706B9043B03004FF48C72002107F0E9
:10BA1000D1B800BF18B14FF48C7101F0C5BA7047AE
:10BA2000C02A07D0B2F5807F30D0802A2BD06FF0AB
:10BA30001F0070470C23036084462DE9F04F00F18E
:10BA400008044CF8044F4FEA521E00228B784F78BE
:10BA50000E78CD781B0443EA07233343013243EACF
:10BA6000056372454CF8043F01F10401EED303680D
:10BA70000C2B0ED00E2B00F04D810A2B00F0A28172
:10BA80000020BDE8F08F0A230360D5E70E23036092
:10BA9000D2E7C269C94B8768C168D0F810E0446931
:10BAA0008669C2F3072587F001075D5D7D40170EAB
:10BAB000DF5D85EA0745D7B2DF5D85EA0765C2F33A
:10BAC0000747DF5D85EA072779408EEA010584EAAA
:10BAD000050CC0E90A5C86EA0C056A40C0E90C5214
