:020000022000DC
:1060000000000120BD620200E5620200E7620200BA
:10601000E9620200EB620200ED6202000000000093
:10602000000000000000000000000000EF6202001D
:10603000F162020000000000F3620200F56202005B
:1060400055700200F762020085780200F7620200D4
:10605000F7620200F762020041740200F762020078
:10606000F7620200F7620200F7620200F7620200C4
:10607000F7620200B9790200F7620200F7620200DB
:10608000F762020009940200F7620200F762020060
:10609000F7620200F7620200B1E50200F762020057
:1060A000F7620200F7620200F7620200F762020084
:1060B000F7620200F762020000000000000000002A
:1060C000F7620200F7620200F7620200F762020064
:1060D000F7620200F7620200F762020000000000AF
:1060E00000000000000000000000000000000000B0
:1060F00000000000000000000000000000000000A0
:10610000000000000000000000000000000000008F
:10611000000000000000000000000000000000007F
:10612000000000000000000000000000000000006F
:10613000000000000000000000000000000000005F
:10614000000000000000000000000000000000004F
:10615000000000000000000000000000000000003F
:10616000000000000000000000000000000000002F
:10617000000000000000000000000000000000001F
:10618000000000000000000000000000000000000F
:1061900000000000000000000000000000000000FF
:1061A00000000000000000000000000000000000EF
:1061B00000000000000000000000000000000000DF
:1061C00000000000000000000000000000000000CF
:1061D00000000000000000000000000000000000BF
:1061E00000000000000000000000000000000000AF
:1061F000000000000000000000000000000000009F
:1062000010B5054C237833B9044B13B10448AFF3F0
:1062100000800123237010BDA82C00200000000086
:10622000F0F6030008B5034B1BB103490348AFF375
:10623000008008BD00000000AC2C0020F0F6030038
:10624000A3F5803A704700BF174B002B08BF134BD4
:106250009D46FFF7F5FF00218B460F461348144A71
:10626000121A13F039FE0E4B002B00D098470D4B3D
:10627000002B00D098470020002104000D000D489D
:10628000002802D00C48AFF3008013F0C9FD2000B5
:10629000290007F00DFE13F0AFFD00BF000008005D
:1062A000000000000000000000000120A82C0020D9
:1062B000A444002000000000000000000649074A36
:1062C000074B9B1A03DD043BC858D050FBDC02F09F
:1062D000B3F8FFF7B9FF0000C4F80300D02B00208B
:1062E000A82C0020FEE7FEE7FEE7FEE7FEE7FEE75C
:1062F000FEE7FEE7FEE7FEE7022000F015BC00BF68
:106300002DE9F04706460D4600F02EFC032805D87F
:10631000012D04461AD0022D27D00DB1BDE8F0871B
:106320001B4802F0A9FE1B4B1B4A04EB44010B4423
:10633000125D9D78AA42F1D1002DEFD0174B1B685A
:10634000002BEBD02846BDE8F0471847114F00EB73
:106350004003FA18FD5C53784FEA40085BB9A0444B
:1063600047440D4BBA781A55E6E70A4B00EB400458
:106370001C446578E0E7DFF8289005484A464FF46A
:10638000804102F033FE0028E9D189F80060E6E799
:10639000E82C0020282D0020442D00203C2D00203A
:1063A000C42C002010B5007800F0DEFB03280BD8C9
:1063B000064B00EB40001844407828B1044B1B68A2
:1063C00013B1BDE81040184710BD00BF282D0020B4
:1063D0003C2D002038B5BA4D2B7804466BB1B94B33
:1063E0001B7800202870002B4DD000F065FB0120A9
:1063F00000F062FB032000F05FFB172C00F25E81CF
:10640000DFE814F0EB00630063009F00AC00B9000C
:10641000CB00970050004400500044007A00180060
:106420001800180018001800D90018018100000198
:106430005C005C00A44802F01FFED4F11104054684
:1064400000F02681002840F02381012C14D0C823BD
:1064500003FB04F429464FF400434FF47A70C4FB65
:1064600003014FF4FA62002313F048FD2A46014667
:10647000954802F0BBFD0546022000F011FB914B50
:1064800001221A701FE000F023FBB6E701202870FC
:1064900000F04AFBBDE838408C4800224FF4005120
:1064A00002F0A4BD0120287000F03EFBBDE838409A
:1064B0008648002240F2666102F098BD00F01EFBA3
:1064C000834B00251C70284638BD002000F0DAFA06
:1064D000002840F0C38000F0E3FA40F6CD4141F6D9
:1064E0009A13022C18BF1946794B1C70BDE838402E
:1064F0007648002202F07ABD00F000FB744B0C22BB
:106500001A700025DFE76F4B1B78002B00F0D3805B
:10651000002000F0D1FA012000F0CEFA032000F0B4
:10652000CBFA012000F0BCFA694B14221A70002546
:10653000C9E7002000F0B4FA654B07221A70002565
:10654000C1E7002000F09EFA002840F09B8000F098
:10655000A7FA40F6CD415E4B0324C6E7002000F0C9
:1065600091FA002840F0888000F09AFA41F69A11DA
:10657000574B0424B9E7002000F084FA002877D1B3
:1065800000F08EFA524B514805241C70BDE838408B
:10659000002240F6CD4102F029BD002000F0C4FAEF
:1065A0004B4B4A4806241C70BDE83840002240F29C
:1065B000666102F01BBD434B1B78002B78D0002096
:1065C00000F07AFA012000F077FA032000F074FA64
:1065D0003F4B12221A70002575E73A4B1B78002BAF
:1065E00060D0002000F068FA012000F065FA032076
:1065F00000F062FA354802F03FFD354B00220546B7
:106600001A7060E72F4B1B78002B48D0002000F059
:1066100053FA012000F050FA032000F04DFA002058
:1066200000F03EFA012000F03BFA294B15221A70C7
:10663000002548E7234B1B78BBB3002000F03CFA51
:10664000012000F039FA032000F036FA002000F0B3
:1066500027FA1F4B13221A70002534E7002000F0A0
:106660002BFA022C47F2333118BF4FF480313BE74D
:10667000002000F021FA85E7002000F01DFA4FF419
:10668000803175E7002000F017FA43F2333162E7FA
:10669000022000F011FA0B4B00221A7013E700F0F1
:1066A00017FABCE700F014FAA4E700F011FACDE7FE
:1066B00000F00EFA8CE700F00BFA32E7002502E753
:1066C000382D0020C52C0020C82C0020082D0020CB
:1066D000402D0020044B1B68DB0700D47047034BA0
:1066E0001878FFF777BE00BF342D0020402D002022
:1066F000032801D90020704700F028BA044B1B681A
:1067000013F0010301D118467047FFF763BE00BFC5
:10671000342D002038B5244B244A196081070446E3
:10672000106004D410F001052CD1284638BD204B50
:1067300020480E210F221970DA7010211122997150
:106740005A72042140F2333202F0C0F9054630B1EA
:10675000E207EAD5012000F01FFA284638BD02F012
:1067600011FA05460028F3D10146134A134802F0F6
:106770002FFCE3070546D8D5012000F00DFA002DC7
:10678000D3D102E0012000F007FA0D4A0D480021A4
:1067900002F01EFC05460028C7D1BDE838400A4A71
:1067A0000A48012102F014BC3C2D0020342D0020A9
:1067B000282D002018A20300A56302003CA20300BC
:1067C000D566020040A20300F962020038A203006D
:1067D000032806D8012A06D001291BD0022908D097
:1067E00071B107207047012911D002294FF0000232
:1067F000F6D10B4B00EB4000034400205A70704769
:10680000074B00EB4000034408469A70704700F1C4
:106810000E02D2B200EB400301490020CA54704777
:10682000282D0020032801D90620704708B500F064
:10683000ADF9800000F1A0430020D3F8002722F436
:106840004032C3F80027D3F8002742F44032C3F89F
:10685000002708BD10B50388102B07D0112B04D1D9
:10686000254B18680138186030B110BD224C2168E2
:1068700011B30131216010BD01220221FFF7A8FFF1
:1068800040B1072806D01D4B1B68002BEDD0BDE89A
:1068900010401847072202210120FFF799FF08B195
:1068A0000728F0D100210A220846FFF791FF0028AF
:1068B000DBD00728E7D1D8E701220846FFF788FF99
:1068C00038B1072805D00D4B1B6803B198472168E4
:1068D000CFE7072202210120FFF77AFF08B107283E
:1068E000F1D1042202210020FFF772FF0028EED030
:1068F0000728E8D1EBE700BF4C2D0020482D0020F1
:1069000008B50020FFF78EFF10B1062800D008BDA3
:106910000120FFF787FF0028F9D0062808BF0020D4
:1069200008BD00BF184B10B5186031B101200C46EE
:10693000FFF7DEFEF8B102232370144B186808B18C
:10694000002010BD01220221FFF742FF08B10728F5
:10695000F7D1072202210120FFF73AFF08B10728EB
:10696000EFD100210A220846FFF732FF0028E7D0C6
:106970000728E5D010BDFFF7BBFE10B10B23237035
:10698000DBE72070D9E700BF482D00204C2D002008
:1069900006F0F0BF0021084606F0A0BF08B5084683
:1069A000114600F071FA002008BD00BF30B5054661
:1069B00085B0002000F014FA044610B1204605B05E
:1069C00030BD281D039009F011F90E490398009479
:1069D0002346224609F06CF910F1360F0CD000283E
:1069E000ECD048F2115348F2165410F1380F08BF9A
:1069F0001C46204605B030BD48F21454204605B070
:106A000030BD00BF9D69020008B5043009F0F4F8FC
:106A100000F018FA002008BD08B5043009F03AFA71
:106A200010F1360F0DD048B148F2115248F216530A
:106A300010F1380F08BF1346184608BD0346184624
:106A400008BD48F21453184608BD00BF114608B5EA
:106A50001A46043009F0DEF810F1360F0DD048B1B7
:106A600048F2115248F2165310F1380F08BF13467E
:106A7000184608BD0346184608BD48F21453184688
:106A800008BD00BF4FF0A042044B1B5CD2F80405C8
:106A9000D840C04300F00100704700BF48A2030087
:106AA000044A115C01234FF0A0428B40C2F80C3520
:106AB000704700BF48A20300044A115C01234FF055
:106AC000A0428B40C2F80835704700BF48A20300BF
:106AD0004FF0A04310B44FF480204FF400344FF433
:106AE00000214FF48012C3F80845C3F80805C3F825
:106AF0000815C3F808255DF8044B70474FF0A04314
:106B000010B44FF480204FF400344FF400214FF4C0
:106B10008012C3F80C45C3F80C05C3F80C15C3F874
:106B20000C255DF8044B7047074B4FF0A041185CF3
:106B3000D1F804350122824022EA03001340C1F853
:106B40000805C1F80C35704748A203004FF0A04279
:106B5000044B1B5CD2F81005D840C04300F0010084
:106B6000704700BF44A203000D2809D00E2809D0A9
:106B70000F2809D010280CBF03204FF0FF307047BA
:106B8000002070470120704702207047014B185CBD
:106B9000704700BF44A20300C20710B41AD54FF0DB
:106BA000A04303224FF40031C3F844274FF480245C
:106BB000C3F84827C3F84C27C3F85027C3F8081573
:106BC0004FF480124FF40021C3F80845C3F80815AC
:106BD000C3F8082583070AD54FF0A0430C22C3F859
:106BE0003427C3F83827C3F83C27C3F840275DF89B
:106BF000044B704710B568B90E4CA368012262704F
:106C00003BB1D3E900230020A2609847A368002B82
:106C1000F7D110BD0128FCD1064C2369A070002BD0
:106C2000F7D0D3E900230120226198472369002B84
:106C3000F7D110BD502D002070B910B5074CA368D6
:106C4000012262703BB1D3E900230020A260984783
:106C5000A368002BF7D110BD704700BF502D002056
:106C600030B5012883B004D0032821D0B0B103B0DF
:106C700030BD294C00230DF107008DF8073002F0DC
:106C800027FA23786BB3E3689DF8070001221344C9
:106C9000E360A27002F042FA03B030BD1F4B012244
:106CA000C3F88020BFF34F8FBFF36F8F03B030BDA9
:106CB000194C00F0A7F900230DF107008DF80730FB
:106CC00002F006FAE368013BE360E3681BB9144B8A
:106CD000D3F80054C5B19DF8070002F01FFA03B0C5
:106CE00030BD10486360A3602361E36000F07EF96B
:106CF00007F058FC60B10A4A01232370D2F800243F
:106D0000002AC0D0A370BEE700F08EF9A570E2E7BC
:106D100000F078F9EFE700BF502D002000E100E01F
:106D200000000140F56B020031DF704700B585B00F
:106D3000024600230DF10F008DF807208DF80F306B
:106D400002F0C6F907F02EFC30B19DF80F0002F0FA
:106D5000E5F905B05DF804FB09480DF1070105F000
:106D6000ADF8074805F09CF80028EED000F004FECE
:106D70009DF80F0002F0D2F905B05DF804FB00BFEA
:106D800054F7030000B583B098B103280ED1002357
:106D90000DF107008DF8073002F09AF90E480378DC
:106DA000012B11D09DF8070002F0B8F903B05DF88F
:106DB00004FB094B1B78012BF8D100F0DDFD03B07B
:106DC0005DF804EB00F0E0BD0449013000F092FDF5
:106DD00000F0C0FDE6E700BFB42D00202D6D0200DD
:106DE00010B5154C227882B012BB14498DF80720DB
:106DF0000346002B08BF0B460DF107001B88A4F8C3
:106E0000013002F065F907F0CDFB40B19DF80700B5
:106E10000123237002F082F9002002B010BD08495E
:106E2000601C00F067FD0028F7D100F093FDEDE74E
:106E3000852002B010BD00BFB42D002058A2030071
:106E40002D6D020000B583B000230DF107008DF811
:106E5000073002F03DF907F0A5FB60B19DF807008F
:106E600002F05CF9064805F0F5F8064B00221A70AE
:106E700003B05DF804FB00F07FFD00F085FDEDE759
:106E800054F70300B42D002000293ED02DE9F04F27
:106E9000DFF878A083B006468B4642F207095F46CA
:106EA000402F28BF40275FFA87F800250CE09DF8A7
:106EB000070002F033F941463046FFF735FF4845F9
:106EC0000446F2D0022C17D10DF107008DF80750BF
:106ED00002F0FEF807F066FB0028E8D13A4631469A
:106EE000504605F05FF8044600F034FD9DF80700B9
:106EF00002F014F9022CE7D0002CD6D1BBEB070B23
:106F00003E44CCD103B0BDE8F08F704754F7030086
:106F100030B50A4B0A4C53F8213054F8211002784E
:106F200085B0D0E901548DF80020C26801958DF834
:106F3000084003926846984705B030BDBC2D00203C
:106F4000B82D002030B50A4B0A4C53F8213054F8C4
:106F50002110027885B0D0E901548DF80020C26874
:106F600001958DF8084003926846984705B030BDFA
:106F7000BC2D0020B82D0020F0B5174B06784F7FB0
:106F800043F826201446154B154A9F5505460869B7
:106F900042F826008C46BCE80F0089B0EE46AEE809
:106FA0000F009CE80F008EE80F0004964FB1002CF4
:106FB0000C4A694608BF2246281D01F05DF809B059
:106FC000F0BD002C084A694608BF224605F10C00B6
:106FD00000F0EEFD09B0F0BDBC2D0020C02D00205A
:106FE000B82D0020116F0200456F0200044A13798A
:106FF00023B90121106091801846704785207047A1
:10700000C42D0020074B1A68D20704D4C02283F88D
:10701000002301221A604FF080430122C3F8182593
:10702000704700BF00E100E04FF0804202210023E2
:10703000C2F8081382B0C2F80431D2F804310193C7
:1070400001230199D360D2F81834DB03FBD402B0DA
:10705000704700BF10B54FF0804382B0D3F80021D5
:1070600062B10021164AC3F80011D3F8001150791B
:1070700000910121009CC3F80813A8B14FF0804390
:10708000D3F80421CAB10022C3F80421D3F80421A3
:10709000019202210A4A0198C3F8081313680120DB
:1070A00002B0BDE8104018471368517198474FF07F
:1070B0008043D3F80421002AE5D102B010BD00BFFF
:1070C000C42D002030B5254C94F8583083B0002BE7
:1070D00040D16FF02F0004F1300304F1500C001B7D
:1070E0004FF0FF31C21821FA02F2D20748BF1970DF
:1070F00001336345F6D14FF0FF304FF0FF314FF0D1
:10710000FF33C4E900010422002115482365C4E9C6
:107110000233C4E90433C4E90633C4E90833C4E9DB
:107120000A3312F0D9FE0F4BC02283F80623402207
:107130001A600D4B0020C3F87C01D3F87C2101922A
:10714000019D4FF00042012184F85810C3F8042338
:1071500003B030BD082003B030BD00BFD02D0020EB
:10716000242E002000E100E000600040034B93F873
:107170005800003818BF0120704700BFD02D0020F4
:1071800070B5774B03EB000E9EF930C0BCF1000FD9
:1071900001DB082070BD91F802C01CF0020FCCF397
:1071A00040055DD11C6A013400F0D2805C6A013474
:1071B00000F0C4804FF00C0E4FF00A0C53F82C4036
:1071C000013459D00CF10104744547D253F82460BE
:1071D000013600F0AB800CF1020474453ED253F846
:1071E0002460013600F0A2800CF10306764535D20A
:1071F00053F8264001343ED00CF1040676452DD2DA
:1072000053F82640013436D00CF10506764525D2D8
:1072100053F8264001342ED00CF1060676451DD2D7
:1072200053F82640013426D00CF10706764515D2D6
:1072300053F8264001341ED00CF1080676450DD2D5
:1072400053F82640013416D00CF1090CF44505D250
:10725000DC6A013408BF4FF00B0C0DD0042070BD68
:107260001C68013464D05C6801346ED04FF0080EA5
:107270004FF0020CA2E7B44643F82C201A184FFA3C
:107280008CFE82F830E015B99C448CF848008A786E
:10729000540715D4D50740D5820002F1A042D2F898
:1072A000004724F00204C2F800472E4DC40800F045
:1072B000070C2E5D012202FA0CF232432A558A781D
:1072C00012F002021CD04FEA8E0303F1804303F553
:1072D000C0430978D3F8104524F4473424F44074AB
:1072E000C3F8104502020904D3F8100501F4403137
:1072F00002F4F8520A430243C3F81025002070BD7F
:10730000AEF1080E43FA8EF30C7893F85010104645
:1073100041EA841283F8502070BD4A784FF0A044AF
:1073200000F5E075920044F82520BEE7A446A3E7E7
:107330001A6000228EF830209646A8E74FF0090C1C
:107340008EF830C05A62E6469EE74FF0010C93E794
:107350004FF0080C8EF830C01A62E64694E700BF82
:10736000D02D0020242E002030B42E4C04EB000C35
:1073700082B09CF93030072B1EDD083B44FA83F3C2
:1073800093F850309B09032B41D0012B0CBF4FF4D5
:1073900000334FF44033800000F1A040D0F80027C4
:1073A00022F44032C0F80027D0F800271343C0F879
:1073B000003702B030BC7047DAB2072AF9D898001B
:1073C00000F1804003F1400200F5C04052B292004B
:1073D000D0F8105592B202F1804202F5C04245F059
:1073E0000105C0F810550020106012680192019A42
:1073F0000029DED09CF9302054F82220002AD8D071
:107400000949012202FA03F3C1F80433D1E74FF02E
:10741000A043D3F81035C34003F0010302331B042B
:10742000B9E700BFD02D0020006000404FF0A0431E
:10743000D3F8103523FA00F000F00100704700BFC8
:10744000F0B585B01D4A00230193D2F8001101293F
:1074500000F0E5811E46194BD3F80421012A00F003
:10746000CF81164BD3F80821012A00F0B881134BC5
:10747000D3F80C21012A00F0A381104BD3F810217E
:10748000012A00F08E810D4BD3F81421012A00F05F
:1074900079810A4BD3F81821012A00F06481074B47
:1074A000D3F81C21012A0BD0044BD3F87C21012AEC
:1074B00000F0C28126BB05B0F0BD00BF00600040F7
:1074C000D3F804231206EFD50022C3F81C21D3F809
:1074D0001C110291D3F87C110298012946F0800614
:1074E0000ED1C3F87C21D3F87C2103924FF0A04346
:1074F000039AD3F820250192C3F8202546F00046D0
:10750000BE4F00240125A30003F180432E4203F562
:10751000C0434FEA45050BD0D3F8100557F8242097
:10752000D3F81015C0F30420C1F3014102B1904714
:107530000134082CE7D1002EBDDAB04C01254FF004
:10754000A04694F95000471C3DD0C0F3C20304AAE2
:107550001344C1B213F80C2C00F0070305FA03F32F
:107560001A4200F03F002ED0830003F1A04305FA39
:1075700000F7D3F80027D3F800C72CF4403CC3F839
:1075800000C7C2F30142D3F800C7022A0CBF4FF470
:10759000403E4FF4003E4CEA0E0CC3F800C72318DF
:1075A000C6F8207593F9303054F823305BB189095F
:1075B000032900F06581022A00F05F81032A02D1CD
:1075C000022900F05D8194F95100411C3DD0C0F3C7
:1075D000C20304AA1344C1B213F80C2C00F0070331
:1075E00005FA03F31A4200F03F002ED0830003F1A6
:1075F000A04305FA00F7D3F80027D3F800C72CF40E
:10760000403CC3F800C7C2F30142D3F800E7022AA6
:107610000CBF4FF4403C4FF4003C4CEA0E0CC3F856
:1076200000C72318C6F8207593F9303054F823307A
:107630005BB18909032900F01981022A00F0138146
:10764000032A02D1022900F0118194F95200421C50
:107650003DD0C0F3C20304AA1344C1B213F80C2CEA
:1076600000F0070305FA03F31A4200F03F002ED0A2
:10767000830003F1A04305FA00F7D3F80027D3F8FD
:1076800000C72CF4403CC3F800C7C2F30142D3F852
:1076900000E7022A0CBF4FF4403C4FF4003C4CEA98
:1076A0000E0CC3F800C72318C6F8207593F93030C4
:1076B00054F823305BB18909032900F0D280022AF3
:1076C00000F0CC80032A02D1022900F0CA8094F98C
:1076D0005300431C3DD0C0F3C20304AA1344C1B2FB
:1076E00013F80C2C00F0070305FA03F31A4200F01C
:1076F0003F002ED0830003F1A04305FA00F7D3F832
:107700000027D3F800C72CF4403CC3F800C7C2F3ED
:107710000142D3F800E7022A0CBF4FF4403C4FF47B
:10772000003C4CEA0E0CC3F800C72318C6F82075BD
:1077300093F9303054F823305BB18909032900F004
:107740009A80022A00F09480032A02D1022900F0D4
:107750009280D6F820350193C6F82035002B7FF4AF
:10776000F0AE05B0F0BDD3F8042351067FF597AE17
:107770000022C3F81821D3F818310293029B46F077
:1077800040068CE6D3F8042390067FF582AE0022F3
:10779000C3F81421D3F814310293029B46F020065B
:1077A00077E6D3F80423D4067FF56DAE0022C3F844
:1077B0001021D3F810310293029B46F0100662E6C6
:1077C000D3F8042315077FF558AE0022C3F80C2127
:1077D000D3F80C310293029B46F008064DE6D3F82D
:1077E000042357077FF543AE0022C3F80821D3F8DE
:1077F00008310293029B46F0040638E6D02D0020A3
:10780000D3F8042392077FF52CAE0022C3F804219D
:10781000D3F804310293029B46F0020621E6D2F827
:10782000046316F001063FF416AEC2F80031D2F838
:1078300000310293029B0EE60022C3F87C21D3F8AC
:107840007C2103924FF0A043039AD3F820250192A4
:10785000C3F82025002E3FF470AE4FE601297FF4D7
:1078600036AF984733E701297FF4EFAE9847ECE64F
:1078700001297FF46EAF98476BE701297FF4A3AE2F
:107880009847A0E6014B1B68184700BF2C2E00202C
:10789000104B98421BD130B583B000230DF1070087
:1078A0008DF807300D4601F013FC0B4B9DF80700D7
:1078B0001C793CB901221D601A7101F02FFC204691
:1078C00003B030BD01F02AFC112003B030BD002010
:1078D000704700BF002000402C2E0020034B984230
:1078E00003D1034B00221A601A7170470020004038
:1078F0002C2E0020134A137813BB10B40378124CBB
:10790000DB07216006D51149D1F8043543F00103A6
:10791000C1F804350D4C0E49D4F8003223F00103B0
:10792000C4F8003243785B01DBB281F80D334FF4C9
:1079300000530B600123137000205DF8044B704767
:1079400085207047382E0020342E002000D00040C3
:1079500000E100E0074B0022C3F8002182B0D3F819
:107960000021019201990122C3F804231A6002B098
:10797000704700BF00D00040024B0122C3F808232B
:107980005A60704700D00040084B094901224FF46B
:107990000050C3F808235A60C1F88000BFF34F8F2E
:1079A000BFF36F8F034B00221A70704700D0004066
:1079B00000E100E0382E0020074B0022C3F8002130
:1079C00082B0D3F800210192019A044AD3F8080545
:1079D0001368C0B202B0184700D00040342E002017
:1079E00010B5714AD2F8043399058AB068D5D2F837
:1079F0002431002B64D00023C2F82431D2F8243182
:107A000001934FF40171694B0198C2F8081393F880
:107A1000291009B901215160634902228DF818200B
:107A2000D1F88024C1F880249FED5D7B9969D868E6
:107A3000CDE9081283ED067BD3E90012079006A872
:107A40009047594AD2F81C31C3B1584B5869196A4A
:107A500088426AD993F8281001F0FF00002964D108
:107A6000C2F81C01D2F81C11039103999C68186A92
:107A7000196A205C01311962C2F81C054A4AD2F821
:107A80004431DBB10021494BC2F84411D2F8440122
:107A900093F829100090009809B1012111609A69AA
:107AA00062B1D8685C6A00210122CDE907049961BE
:107AB0008DF8182006A8D3E9001290470AB010BD2F
:107AC000394AD2F804335B07BBD5D2F80831002B12
:107AD000B7D0364B996900293ED00021C2F8081171
:107AE000D2F8081104910499D868596AD2F8182577
:107AF00042545A6A996901325A625A6A8A42A0D13A
:107B0000DA69002A31D09A611A69D8685C6ADA6049
:107B1000002101220894D961596207905C681968B4
:107B20008DF8182006A8A0478BE71F4A0020C2F84E
:107B30001C01D2F81C210292029A5A69002A9DD097
:107B4000D3E901215C698DF81800CDE9071458616B
:107B5000196806A8904791E7C2F80811D2F8080101
:107B600005900598D2F81825C7E793F8292012B98F
:107B70000D4A012151600C4A4FF40171C2F80813FB
:107B8000D8685C6A0021012299618DF81820D3E938
:107B90000012CDE9070406A8904752E7AFF3008032
:107BA000000000000000000000200040402E0020E7
:107BB0002DE9F041604E90F804802C2303FB08630C
:107BC00082B093F82A30002B40F0898005460C469D
:107BD00000685A491746FFF75BFE00287BD12368EF
:107BE000591C0CD04FF0A041012202FA03F3C1F856
:107BF0000835236803F5E073032241F82320636806
:107C00005A1C06D003F5E0734FF0A042002142F861
:107C100023102B68A269C3F82425227D637D1343BA
:107C20002A68C2F86C35D4E900122B68C3F8142511
:107C3000C3F80C15237D012B5CD02C2303FB08F328
:107C4000F21857602269F25097B32A68237F002107
:107C5000C2F81C11D2F81C210092009A2A68C2F8BE
:107C60004411D2F844210192019A2A683449C2F899
:107C700004132A6842F3073100294FEA123232DB3B
:107C800001F160415B0101F56141DBB281F8003334
:107C90002B6843F30732002A4FEA133109DB294CE2
:107CA0005209012301F01F0103FA01F144F82210E7
:107CB0002B680422C3F800252C2303FB086601224D
:107CC0000023C6E9063386F82930736186F82A2036
:107CD00002B0BDE8F081112002B0BDE8F0810820BB
:107CE00002B0BDE8F081184902F00F025B01DBB27F
:107CF0008B54CDE7A368591C06D003F5E0734FF011
:107D0000A042002142F82310E3685A1C0DD04FF026
:107D1000A041012202FA03F3C1F80835E36803F534
:107D2000E073032241F82320E3682A68A168C2F8BF
:107D30000835C2F8101580E7402E0020E1790200D6
:107D40008000020000E100E014ED00E0F8B50368F7
:107D50000679324C0022C3F800252C2303FB06438E
:107D60005B68C3B103682E4AC3F80823036843F372
:107D70000732002A4FEA13310EDB5209294D203217
:107D8000012301F01F0103FA01F145F82210BFF3AE
:107D90004F8FBFF36F8F0368D3F80CC5D3F81475FA
:107DA000D3F80815D3F810554FF0FF32C3F8142557
:107DB000C3F80C2503689445C3F80825C3F81025BB
:107DC00006D00CF5E07C4FF0A043022243F82C20B3
:107DD0007B1C06D007F5E0774FF0A043022243F862
:107DE00027206A1C06D005F5E0754FF0A04302225B
:107DF00043F825204B1C06D04FF0A04301F5E0715D
:107E0000022243F821200068FFF768FD2C2303FBC2
:107E10000644002384F82A306360F8BD402E002019
:107E20008402020000E100E02DE9F041334C90F8BB
:107E300004E02C2303FB0E438446586984B00028D9
:107E40004ED15A619960186283F82800DCF800204E
:107E5000C2F81C01D2F81C210292029ADCF8002020
:107E600001219160DCF800209D68C2F81C01D2F865
:107E70001C1101910199196A6E5C196A013119622C
:107E8000C2F81C655A6812B104B0BDE8F0815E69A1
:107E90001A6ADCF8001096421BD9074602E093F8F4
:107EA00028200ABBD1F81C21002AF8D0C1F81C7187
:107EB000D1F81C210392039A1A6A15F802801A6AF3
:107EC00001321A62C1F81C851A6A9642EAD8DCF8B7
:107ED0000010D1F81C31002BFBD00123CB6004E053
:107EE000112004B0BDE8F0810F202C2303FB0E44C9
:107EF0000023636104B0BDE8F08100BF402E002084
:107F000010B55B4BD3F824218AB0002A58D0002248
:107F1000C3F82421D3F82411049102228DF81820EB
:107F20000499544AD3F88014C3F880149FED4E7B13
:107F30000991D3F83C45D06882ED067BCDE9070472
:107F4000D2E9001306A89847494BD3F8442152B10F
:107F50000021484AC3F84411D3F8440191690390C1
:107F60000398002961D1424BD3F8202162B100204F
:107F7000C3F82001D3F82021029201213D4A029C3E
:107F8000D9605169002943D1394BD3F85821AAB19E
:107F90000020C3F85801D3F85811364A01910199CD
:107FA000516959B1D3F84C458DF81800D2E9013127
:107FB0005061CDE9071406A8116898470AB010BDB2
:107FC000D3F810110029BFD0C3F81021D3F8101135
:107FD000284C05910599A169D3F83C058842B3D195
:107FE000E169002933D0C4E90612D3F8002222F057
:107FF0002002C3F80022E2680792012122698DF86D
:108000001810089063682168E26006A898479BE70B
:10801000D3F84C458DF81800D2E901315061CDE913
:10802000071406A811689847AEE79FED0F7BD3F8B9
:108030003C45D0684FF0010CCDE9070482ED067B8A
:10804000D2E900138DF818C006A898478BE7E268BC
:10805000A1610123CDE907208DF8183006A8D4E9E5
:108060000013984770E700BF000000000000000008
:1080700000200040702E00202DE9F04307796D4E5E
:1080800007EBC70306EB830387B093F82030002B80
:1080900040F0A38004460D46006867499046FFF70C
:1080A000F7FB002840F095802B68591C4FEAC70960
:1080B0000CD04FF0A041012202FA03F3C1F80835B9
:1080C0002B6803F5E073032241F823206B685A1CE8
:1080D00006D003F5E0734FF0A042002142F82310D0
:1080E0002368AA69C3F824252B7D6A7D1A43236877
:1080F000C3F86C25D5E900312268C2F80C35C2F806
:1081000014152B7D012B73D009EB070206EB8203BC
:10811000C3F804802B6946F82230B8F1000F47D02D
:1081200021682B7F0022C1F81021D1F81011019194
:1081300001992168C1F82021D1F8201102910299FA
:108140002168C1F82421D1F82411039103992168F1
:10815000C1F84421D1F84411049104992168C1F86F
:108160005821D1F858210592059A22683349C2F85E
:108170000413226842F3073100294FEA123230DB40
:1081800001F160415B0101F56141DBB281F800332F
:10819000226842F30733002B4FEA123109DB284DE6
:1081A0005B09012201F01F0102FA01F145F82310D9
:1081B00022684F4406EB87060121002386F8201031
:1081C0000821C2F80015C6E90633736107B0BDE89F
:1081D000F083112007B0BDE8F083082007B0BDE8A8
:1081E000F083184902F00F025B01DBB28B54CFE73A
:1081F000AB68591C06D003F5E0734FF0A042002194
:1082000042F82310EB685A1C0DD04FF0A041012218
:1082100002FA03F3C1F80835EB6803F5E0730322B3
:1082200041F82320EB682268A968C2F80835C2F833
:10823000101569E7702E0020017F02001003420034
:1082400000E100E014ED00E02DE9F04105794B4C30
:1082500005EBC50304EB830301465B68006882B04D
:10826000EE00C3B1464BC0F808330B6843F3073246
:10827000002A4FEA13330EDB5209DFF808C120321F
:10828000012703F01F0307FA03F34CF82230BFF372
:108290004F8FBFF36F8F731904EB83039A69D0F884
:1082A000003223F02003C0F8003242B10023C0F8AE
:1082B0004431D0F844310093009B012343600023F4
:1082C000C0F85831D0F858310193019B731901223D
:1082D00004EB8303C2609A69D0F85831002BFBD0BD
:1082E0001AB1D0F84431002BF6D00023C0F8003585
:1082F0000B684FF0FF32D3F80C85D3F814E5D3F8B0
:108300000875D3F810C5C3F80C25C3F814250B68FD
:108310009045C3F80825C3F8102506D008F5E07885
:108320004FF0A043022243F82820BEF1FF3F06D0C1
:108330000EF5E07E4FF0A043022243F82E20BCF160
:10834000FF3F06D00CF5E07C4FF0A043022243F83B
:108350002C207B1C06D007F5E0774FF0A0430222CB
:1083600043F82720FFF7BAFA354404EB85040023CD
:1083700084F82030636002B0BDE8F081702E0020E8
:108380001003420000E100E001F0604CBCF1005F2E
:1083900030D170B590F804E0264C0EEBCE0C04EB17
:1083A0008C0C0346DCF8140082B04FEACE0500289E
:1083B0003BD1CCF81420CCF808101A68C2F8200180
:1083C000D2F820210192019A1A68C2F85801D2F815
:1083D00058210092009A1A68DCF81460C2F844151B
:1083E000C2F848651A6801219160DCF804201AB1CE
:1083F00002B070BD102070471A6800E0C0B9D2F812
:108400002011D2F858010029F8D088B90121D16093
:108410001B68D3F85821002AFBD005EB0E0304EBB0
:10842000830300225A6102B070BD112002B070BDFA
:108430000F20F2E7702E002010B44FF08053D3F8D5
:1084400030315A1C04BF4FF0704393F8E03F062BC5
:1084500008D14FF08053B34AD3F82433C3F3042335
:10846000C2F840354FF0704393F8E02F062A00F031
:108470001B814FF08053D3F830315C1C04BF4FF0A8
:10848000704393F8E03F062B09D14FF080534FF033
:108490008042D3F84432C3F34233C2F83C354FF044
:1084A000704393F8E02F062A00F0E9804FF08053E4
:1084B000D3F83031581C04BF4FF0704393F8E03FBD
:1084C000062B08D14FF080430022C3F80C21C3F8DB
:1084D0001021C3F838254FF0704393F8E02F062A97
:1084E00000F0AA804FF08052D2F83031591C20D0D1
:1084F000062BD2F8342126D08B4AD2F8883043F4A8
:108500007003C2F88830BFF34F8FBFF36F8F4FF007
:108510001023D3F80022002AC0F22281D3F80432BB
:10852000002BC0F21D81814B814A1A605DF8044B1B
:1085300070474FF0704292F8E01FD2F8E82F0629FA
:10854000DAD1C2F30312033A032A40F2C4804FF097
:108550008053784AD3F80414C2F82015D3F80814CD
:10856000C2F82415D3F80C14C2F82815D3F8101447
:10857000C2F82C15D3F81414C2F83015D3F8181417
:10858000C2F83415D3F81C14C2F84015D3F82014DF
:10859000C2F84415D3F82414C2F84815D3F82814A7
:1085A000C2F84C15D3F82C14C2F85015D3F8301477
:1085B000C2F85415D3F83414C2F86015D3F838143F
:1085C000C2F86415D3F83C14C2F86815D3F8401407
:1085D000C2F86C15D3F84414D3F83031C2F87015D2
:1085E0005C1C04BF4FF0704393F8E03F062B83D12F
:1085F0004FF080524FF08041D2F85832D2F83021FB
:1086000003F04F03501CC1F8E43E69D0062A7FF402
:1086100073AFD1F80034DA076ED44FF08053D3F83B
:108620003431033B032B50D9434AD2F83C3743F44F
:108630008063C2F83C375FE7D3F8E83FC3F3031326
:10864000033B032B3FF64EAF3C4AD25C22B14FF0C6
:1086500080420321C2F8A015394AD35C002B3FF4B5
:1086600041AF384B0524012000213F22C3F81046BA
:10867000C3F88806C3F81816C3F8142632E7D3F8EF
:10868000E83FC3F30313033B032B3FF60FAF2E4A20
:10869000D35C002B3FF40AAF234AD2F8FC3023F01E
:1086A0008073C2F8FC3001E7D3F8E83FC3F303134B
:1086B000033B032B3FF6DDAE244AD35C002B3FF493
:1086C000D8AE234B234A5A67D3E6234AD35C002B08
:1086D0003FF412AFA8E721498A5C002A80D036E730
:1086E0004FF0704393F8E03F062B7FF405AFD1F8CD
:1086F0000034DB077FF500AF4FF080534FF080422E
:10870000D3F830316FF00101062BC2F800147FF46A
:10871000F3AE4FF08053D3F83431033B032B83D8AF
:10872000D3E700BF0030014000ED00E0D02B002077
:108730000090D00300C00040001000408CA2030055
:108740008CA20300005000408CA203008CA2030006
:1087500000C007400DF0ADBA88A2030084A2030058
:10876000184A0123C2F80435D2F80034002BFBD09C
:108770004FF010231521134AC3F80012D2F8003429
:10878000002BFBD04FF0102315210E4AC3F8041222
:10879000D2F80034002BFBD000230A49C2F804357C
:1087A000D1F80034002BFBD0BFF34F8F0649074BA5
:1087B000CA6802F4E0621343CB60BFF34F8F00BF7F
:1087C000FDE700BF00E0014000ED00E00400FA0515
:1087D00038B5174B1D783DB3164A1168C0B2002357
:1087E0000C4604E00133AB4204F108041CD011F83C
:1087F00033209042F6D1FEF719FE6378A3F101030E
:10880000B3FA83F35B09834200D038BD0A4BD3E946
:1088100000231343F9D1094B094819680022BDE828
:108820003840490800F0E2BB00231B78FFDE00BFA0
:10883000942E0020D82E0020C02E0020982E00203C
:10884000A02E00202DE9F04FDFF8788298F8003054
:1088500083B0002B00F02B81DFF86C92954F964E81
:1088600000254FF0010AD7F800B01BF83500FEF7DD
:10887000DDFD1BF835400BEBC50361085B7816F88E
:1088800001C014F0010EA3F10103B3FA83F314BF86
:108890004FEA1C120CF00F025B09042A00F2EA8076
:1088A000DFE802F0725F33200300834240F09F80D4
:1088B000BEF1000F0CBFF0230F230CEA030C0CBF1A
:1088C0000323302343EA0C03735498F80020013546
:1088D0009542C8DBD9E90023134340F0DE8003B0A2
:1088E000BDE8F08F834200F0C580BEF1000F0CBFE1
:1088F000F0230F230CEA030C0CBF0423402343EAAC
:108900000C03735498F80020E1E7834240F0B580EF
:10891000BEF1000F0CBFF0230F230CEA030C98F8F4
:1089200000200CBF0323302343EA0C037354002AB6
:10893000D0D0D7F800C00023614603E0934201F194
:108940000801C4D01CF83300A04203F10103F5D1A3
:108950004B68002BBBD020460121984798F8002097
:10896000B5E7834219BF00231A4620230222BEF135
:10897000000F16BF1A46F0230F230CEA03031A4315
:10898000725498F80020A2E7834273D14FF000039D
:10899000BEF1000F8DF8073014BF0F23F0230CEA4F
:1089A000030C14BF1023012343EA0C030DF107004D
:1089B000735400F08DFBA4F12003C4F120022AFAC5
:1089C00002F20AFA03F31343D9F800209DF80700D6
:1089D0000AFA04F42243C9F80020D9F8042013430A
:1089E000C9F8043000F09AFB98F800206FE7BEF158
:1089F000000F14BF0F23F0230CEA030398F800C004
:108A00007354BCF1000F12D038680023024603E013
:108A1000634502F108020AD010F83310A14203F1B5
:108A20000103F5D1536813B10021204698474FF058
:108A300000030DF107008DF8073000F049FBA4F1A9
:108A40002003C4F120022AFA02F20AFA03F31343C4
:108A5000D9F800209DF807000AFA04F422EA04027B
:108A6000C9F80020D9F8042022EA0303C9F8043029
:108A700000F054FB98F8002029E7BEF1000F0CBF6E
:108A8000F0230F230CEA030C0CBF0123102343EA4D
:108A90000C03735498F8002019E7084B084819682C
:108AA0000022490803B0BDE8F04F00F09FBADFF89C
:108AB00018900FE7D82E0020C82E0020982E0020F6
:108AC000A02E0020942E0020C02E0020092A3FD97D
:108AD000F0B583B0144605460E46FEF747FB88B353
:108AE000204B214A1E70214B1560002120481C603C
:108AF000102211F0F1F91F4B00200021741EC3E970
:108B00000001E4B236B31C4F05EBC404032602E0B7
:108B1000A5421FD01C469DF8063094F802C020786C
:108B20008DF8046023F007033A4601A98DF806305A
:108B30008DF805C0FEF724FBA4F108030028E7D058
:108B400003B0F0BDFEF7BEFA0028C9D003B0F0BDF7
:108B500007207047094A0A48002103B0BDE8F040E9
:108B600000F036BA942E0020D82E0020982E002037
:108B7000C82E0020C02E0020D187020045880200A8
:108B80009CA2030070B5084D2B785BB1074E002402
:108B90003368012113F83400FEF7E6FB2B7801342B
:108BA000A342F5D8002070BD942E0020D82E0020BE
:108BB00000B585B00346002101AA44F20100CDE9C9
:108BC0000111039300F004F805B05DF804FB00BF49
:108BD00010B572B604F00EFB03F066FC0028FBD162
:108BE000104B114C1149E41AE408240444F001002C
:108BF00003F08AFD0E4BD3F8F030DB0700D500BE42
:108C00000C4944F0020003F07FFDBFF34F8F084989
:108C1000094BCA6802F4E0621343CB60BFF34F8F85
:108C200000BFFDE7B4F70300E4F70300A0A20300D0
:108C300000ED00E0ACA203000400FA0530B48D683A
:108C40008468C368CA68A54272EB03032CBF012085
:108C5000002030BC704700BF2DE9F04F2DED028B96
:108C600083B008EE100A00F08DFB40B1954AD2E9BE
:108C7000003113F1807341F10001C2E9003118EEB7
:108C8000100A002100F09AFB8F4D60B12B6853B1A0
:108C90008E4B2C681B7823B11CB1237F002B40F036
:108CA000218100232B6018EE100A012100F086FBC1
:108CB000002840F0EB80864801A901F03FFF002822
:108CC00036D0844C814F824E09E033B301A930463F
:108CD00001F066FF01A9304601F030FF40B3037890
:108CE000012B11D0022BF0D120464FF0000803F0E9
:108CF000FFF930B180F81C80204603F0F9F9002814
:108D0000F8D101233B70E1E72B684168994200F0FC
:108D1000AF80204603F0F6F9D8E743681A7F002AAF
:108D2000D4D101221A774168204603F0CDF9CDE76E
:108D3000684FDFF8AC81DFF88C912FE0384603F004
:108D4000D7F904464046644ED4E902BA00F046FB27
:108D5000D9E900133268401843F100039042726869
:108D600073EB020203D210F1807043F10003BBEBFE
:108D700000006AEB0303012873F1000331DBB0F557
:108D8000350F6AD2A2684FF496030021404600F0E6
:108D900073FAE8B10D2828D000232B60384603F081
:108DA000ADF92B68002866D0002BC7D02B688468EB
:108DB0009968C268DB688C4272EB03030CD22B68A3
:108DC0001B7F002BBAD02968384603F07DF9B5E740
:108DD0002B68002B47D02C6003B0BDEC028BBDE8A4
:108DE000F08F0021404600F0DDFA384B1B78002B55
:108DF000D2D0237F002BCFD0404600F0EFFAD9F835
:108E00000030D6E90012C018D9F8043043F100034D
:108E1000884273EB020203D210F1807043F1000329
:108E2000D4E902128842934147D3236903B92377D7
:108E3000D4E9053098472369002BADD0227F002A62
:108E4000AAD0A268D318A360E36843F10003E360EB
:108E50002146384603F038F99EE7404600F0BEFA56
:108E60001E4A02448FE718EE100A00F0D3F9B2E769
:108E700000232B602AE7002BAED118EE100A03B0B6
:108E8000BDEC028BBDE8F04F00F0C8B91448124E9B
:108E900000F0A4FA0B4B1A685B688018D6E9001240
:108EA00043F10003884273EB020203D210F1807099
:108EB00043F10003C6E90003FDE62146384603F00E
:108EC00003F969E7E02E0020602F0020E82E002043
:108ED000442F0020CCA20300582F0020FFFFB40035
:108EE000D42B00201B4800F079FA1B4B1B4A196851
:108EF0005B684018D2E9001243F10003884273EB2B
:108F0000020203D210F1807043F10003D4E902128F
:108F10008842934119D3236903B92377D4E90530F3
:108F200098472269002A3FF4BCAE237F002B3FF410
:108F3000B8AEA3680A489B18A360E36843F1000336
:108F40002146E36003F0C0F8ABE60548214603F094
:108F5000BBF8A6E6D42B0020E02E0020582F0020DE
:108F6000CCA2030010B5134B13491C68134882B000
:108F700008235822019401F065FD044610B12046F3
:108F800002B010BD0E4A0F4801A900F0DFF80446F8
:108F90000028F4D10B48012100F0EAF90123194619
:108FA000094A084800F03EF9084B012220461A7091
:108FB00002B010BDC8A20300EC2E0020442F0020F8
:108FC000598C0200D42B0020FFFF7F00E82E0020E8
:108FD0004AB1A1F101010368B1FA81F14909C3E97C
:108FE0000412002070470720704700BF037F0BB1B9
:108FF0000020704730B5044683B0A2611A480D4680
:1090000000F0ECF9194B1A685B688018184AD2E92D
:10901000001243F10003884273EB020203D210F105
:10902000807043F100032818226943F10003C4E96A
:10903000020302B125610F4801A901F03DFD03467D
:1090400048B100250B481D705C6001A901F066FD68
:1090500020B903B030BD042003B030BD024800F099
:10906000C1F9284603B030BDD42B0020E02E0020EB
:10907000582F0020442F002030B5044683B000252F
:109080000C48257701A901F017FD80B103460122A4
:10909000027001A907485C6001F040FD08B903B007
:1090A00030BD054800F09EF9284603B030BD0420CD
:1090B00003B030BD442F0020D42B0020401A20F0F4
:1090C0007F407047014800F089B900BFD42B0020D1
:1090D00070B4EFF3108472B60D4B9A68AAB90121EF
:1090E00099600C490C4ED1F8805035401D60C1F894
:1090F0008060D1F884505D604FF0FF33C1F8843058
:10910000027004B962B670BC704701230370F8E7BF
:10911000642F002000E100E0FC06FFBD094B9A68C7
:109120007AB170B910B4EFF3108172B6064A1C68B8
:1091300014605C685460986001B962B65DF8044BD5
:1091400070477047642F002000E100E010B5294C03
:10915000437944F82320284C04EBC3031B79002BEC
:109160003BD103680A88C3F8082590F904308A784F
:10917000002B2ADB03F16043520103F56143D2B2B5
:1091800083F8002390F90430002B09DB1B494FEAD8
:10919000531C012203F01F0302FA03F341F82C30A1
:1091A0004279174B44F832001648181A04EBC201F2
:1091B000C0084FF0010C000481F804C040F0030027
:1091C000114903F0A1FA002010BD104903F00F036C
:1091D00052011944D2B20A76D4E70A4B08480C4926
:1091E000C01AC008000440F0020003F08DFA082005
:1091F00010BD00BF782F0020702F002000E100E09C
:10920000F4F70300B4F70300FCA20300FCEC00E059
:10921000D8A20300036801221A6070470368012284
:109220005A60704770B405684FF480348C40C5F8BC
:109230000843056801F1500CC5F848434FEA8C0C0F
:1092400005681FFA8CFC002645F80C6083B055F8C1
:109250000C500195019D056801F5A87122F07F422F
:1092600045F821200268C2F8444313B10368C3F8EB
:10927000044303B070BC70472DE9F0474FF48036CB
:1092800022F07F4702688E40C2F848630268C2F845
:109290000863026802EB810C044601F15005D2F824
:1092A0000405DCF84025CCF84005AD00ADB2121A3B
:1092B00020684FF0000840F8058082B040590090C7
:1092C00022F07F42012A00988A46994641D02268BE
:1092D000D2F80455C2F844637A1B22F07F42012A77
:1092E0000AF5A87125D0236843F821702068D0F8CA
:1092F00004557B1BC9F1FF12013B02F57F4223F0AD
:109300007F439A4211D343B1C0F8446323680020DD
:10931000C3F8046302B0BDE8F087013740F821705C
:109320002068D0F804359D42EED00D2002B0BDE893
:10933000F0872368013743F821700C4B4FF48060AD
:1093400043F0010398472068D0F804359D42DBD0F4
:10935000EBE7064A4FF4806042F001029047226832
:1093600042F8058052590192019AB0E710A3030018
:1093700002680223C2F8443311B10268C2F8043310
:10938000704700BF0368D3F8040100B9704700229A
:1093900082B0C3F80421D3F804310193019B01206A
:1093A00002B0704702684FF4803303FA01F1C2F84B
:1093B00048130368C3F80813704700BF5031890091
:1093C000036889B2585800B9704700225A5082B0D9
:1093D0005B580193019B012002B070470368D3F8EA
:1093E0000405704790F90430002B09DB5A09054841
:1093F00003F01F030121403201FA03F340F8223049
:10940000704700BF00E100E0024A034B10681B6890
:10941000184700BF702F0020782F00200223F0B5DE
:109420000B8000F5805E083082B32A4D4FF6FF7442
:109430000126036801331FD0478807F1030C00EBB6
:109440008C0CE6451CD38388A34216D00388A3B1B5
:109450008368B3F1FF3F10D0D5F800C09C4501D21E
:109460002B6047880B8803333B440B8043880333CE
:1094700000EB83008645DCD8F0BD16704788F1E725
:10948000012313704FF480630B80F0BD114D4FF634
:10949000FF7403680133EFD04388DA1C00EB8202CB
:1094A0009645EFD38288A24209D002883AB18268F9
:1094B000561C04D02E68B24284BF2A6043880A88B2
:1094C000033213440B804388033300EB830086454B
:1094D000DFD8F0BDB42F00202DE9F0414368884665
:1094E0001BB1334AD468A3423CD2324E0023A8F8C1
:1094F00000307268012702F5805C4FF6FF75083274
:1095000094450DD8022FA8F8007006F114064CD02F
:10951000726802F5805C083294454FF00207F1D979
:1095200013680133EED05388033302EB83039C4569
:10953000E8D3B2F804E0AE4509D014883CB1946891
:10954000611C04D00168A14205D01A46D8E79C45A9
:10955000D8D91A46E4E7184B42601B8903810120E1
:10956000BDE8F08112699342BFD813F00305BCD166
:10957000114A048912899442B7D104689A689442C6
:10958000B3D10C484268934203D902F5805293420A
:1095900007D38269934208D902F58052934204D2DC
:1095A0000125A8F800500120DAE70020D8E700BF25
:1095B000902C0020BC2F0020A02F00202DE9F04F80
:1095C0009D4F8BB004464FF6FF783E68002E00F0AA
:1095D000BA803278531E052B00F27282DFE803F066
:1095E00058212103033E002C40F0B4803379012B35
:1095F00000F0BA82022B00F0C580002B00F09282AE
:1096000005AD0594C5E902442C6148F20E64069448
:109610003378023B042B49D8DFE803F0897569628F
:109620004500B6F814A0002C40F05A82834D0AEB96
:109630008A0305EB83034FEA8A091C895B6803EB05
:109640008404B37D062B00F23084DFE813F07D0143
:109650006A019D018C01490132010D01002C79D173
:10966000DFF8FCC19CF80C30002B00F0AA809CF8BD
:1096700000308CF80C40013B062B00F22182DFE821
:1096800013F01D03D902C601B2011F0209039E0196
:10969000002C40F01E823379032B00F28780DFE834
:1096A00003F0BE63789F05238DF81430644C04F1F9
:1096B000100654F8043B284603B19847A642F8D157
:1096C0006049614800243C6001F06AFA5F4801216A
:1096D00001F02EFB00287FF478AF0BB0BDE8F08FCF
:1096E00004238DF81430F388ADF82030DEE703232F
:1096F0008DF81430F388ADF820303389ADF822307E
:10970000F3680793D2E702238DF814303389ADF85C
:109710002030B388ADF82230F3680793B37DA3F10E
:109720000603B3FA83F35B098DF82430BEE7012307
:109730008DF814303389ADF82030B388ADF822307D
:10974000F3680793B2E73F493F4801F0F7F906464F
:1097500038603EE74FF4064405AD0023C5E9003309
:10976000C5E902332B6152E7344D2B78022B00F010
:1097700080832B7D022B00F08C83354B01221A70E5
:1097800000225A6005AD00240594C5E902442C610D
:109790003DE7304A3048022100233371918011683F
:1097A000012201F0AFFF002897D03E68284A05AD9E
:1097B000002305935360C5E902332B6148F20D6421
:1097C00025E79CF80030072B00F2A682DFE813F0B3
:1097D000BA02A402A402D502F102F700F7009E0229
:1097E0001C4C1E4A1C484FF0000986F80490CDF826
:1097F00000900823216801F0F3FE194B5D8805EB0A
:1098000085030E4D05F8239005EB830523686A68F0
:109810006B60A3882B8102232260A380C3E701230E
:109820000C493371002309680E4A00930A48082343
:1098300001F0D6FEB7E700BFB82F0020BC2F0020F4
:10984000882F0020B02F00207030002080300020B2
:10985000982F002084300020902C00201CA30300AF
:10986000A02F002024A30300324641F61D5409EB2B
:109870000A0105EB8101F3880889033303440B8156
:10988000D144F38805EB89051646C3F57F436A8901
:10989000FD3313446B8105AD41F61D520023944204
:1098A000059308BF1C46C5E902332B613FF4AFAEF8
:1098B000C0E2A54BA54A5968A54BA6481C880623BB
:1098C000B37500230093042301F08AFE10BB04EB60
:1098D000840305EB830501232B740BB0BDE8F08FE7
:1098E0009948B3699A4903604FF0000BC0F804B07F
:1098F000FFF7F2FD002800F0AF820223B3750423C6
:109900009448CDF800B02146F21801F069FE002815
:109910003FF4E3AEB37D3A68022B48F20D64AFD951
:10992000A5E7032A0CBF05230623B3750023009384
:109930008848211D042306F1080201F051FE002889
:10994000E8D10BB0BDE8F08F0223B375002300937C
:10995000042380482146F21801F042FE0028D9D1A4
:109960000BB0BDE8F08FF38832690120B07500209C
:10997000009004F10C0177489B0001F031FE0028B3
:10998000C8D10BB0BDE8F08F33697248002B14BF0B
:1099900003230123B3750023009304F1080104237A
:1099A00006F10C0201F01CFE00283FF496AEB37DD8
:1099B0003A68022B48F20D647FF662AF57E7664AB9
:1099C00064481168002307228CF800200093634A42
:1099D000CCF80430082301F003FE0446002C3FF4C9
:1099E0007CAE3E6857E7BCF802305D4D03EB830365
:1099F00005EB8305EB68002B54D1696855480422B8
:109A00008CF80020012201F07DFE0446E6E7DCF838
:109A100004205148538884880168033301EB840192
:109A2000002003249BB200909B008CF80040494822
:109A300001F0D6FD0446D1E701200346ACF8023020
:109A400000EB800305EB8303DCF8042059684FEA40
:109A5000800E01F58056002A00F01D8253880333E2
:109A600002EB8302964217D91368013314D053884E
:109A7000033302EB83039E420ED39488444505D002
:109A800014881CB19468013440F001819E4203D9CE
:109A90001A4613680133EAD1704405EB8005EB6880
:109AA000002BABD02C4A2B480523022191808CF847
:109AB000003011680023012201F024FE04468DE7E6
:109AC00005AD0023059348F20E64C5E902332B610E
:109AD0009DE5244B00225A604FF4064405AD3CE658
:109AE000B37D1F4D022B08D90AEB8A0205EB8202D7
:109AF000F388118903330B4413814FEA8A09D14457
:109B0000F38805EB8905C3F57F436A89FD33134468
:109B10006B8105AD002305934FF40644C5E902337C
:109B20002B6174E502233371CDE9064405ADF3687A
:109B300005930DF112012846FFF7CEFC002840F0F6
:109B40004D8148F2096408E67C2F002018A3030029
:109B500090300020902C00208430002024A30300AB
:109B6000BC2F0020982F0020B44B1B78002B00F056
:109B70005581DFF8D0E2BEF80490B9F1010F11D899
:109B8000AF4D039409EB890205EB8202137883B190
:109B900009F101091FFA89F3012BAEF8049002F1D3
:109BA0001402F3D9A7480822002110F095F93E6865
:109BB000E8E55368DEF8001003F5805C03F1080A5D
:109BC000002900F029814B88033301EB83018C4588
:109BD00006D8039BCEF80030DAE79C45F9D9194640
:109BE0000B680133F5D04B88033301EB83039C45AD
:109BF000EFD38C884445F0D0B1F800B0BBF1000F32
:109C0000EBD088680130E8D0F388CEF80010A3428A
:109C1000D6D1002300938C4A8C48042301F0E0FC49
:109C2000002840F03B8109EB890905EB89050123F8
:109C30002B7452E5BCF80200814DDCF8042000EBE7
:109C4000800305EB83034FEA800E596801F58056C7
:109C5000002A40F0A98001F10802B242BFF41CAF13
:109C6000136801333FF418AF5388033302EB8303C7
:109C7000B3423FF611AF9488444500F0C880148881
:109C8000002C00F0C4809468013400F0C080CCF84F
:109C90000420BEE6BCF80220694D9300134405EB96
:109CA0008305062400236968694A009367488CF895
:109CB0000040082301F094FC04468FE69CF80A302B
:109CC0004BB15F4DE86800238CF80A3018B92B7C43
:109CD000002B40F0E8809CF80B3053B1584D002326
:109CE0008CF80B302B6A23B995F82430002B7FF4C5
:109CF000A3AE05AD002305938CF80030C5E902330F
:109D0000ACF80230CCF804302B6180E401238CF8ED
:109D100000309CF80A30D3E7013B062B3FF6D0AE6B
:109D200001A252F823F000BFBD9C0200359C020046
:109D30000F9A0200E7990200C19A0200959C020066
:109D4000BF9902003E4DBCF808302A7D0133ACF8C3
:109D50000830B2FA82F22B785209B3FA83F38CF806
:109D60000B2000225B09ACF802208CF80C200122A9
:109D70008CF80A308CF80020A2E7BCF80200304DC5
:109D8000344CDCF8042000EB800305EB8303568899
:109D90005968A38803333344A38002238CF800302E
:109DA00000FA03FE01F580565388033302EB830269
:109DB00053E7BCF80220224D264902EB820305EB53
:109DC00083038888188158680C680860022088809E
:109DD00000215C60197402FA00F35FE706991A4AE1
:109DE0008B88F3800B883381184800940423BDF8D6
:109DF000124001F0F5FB002837D1114B04EB84042D
:109E000003EB8404012323740BB0BDE8F08FB3424D
:109E1000BFF442AE1A4623E75146D8E605AD2146C7
:109E20000848082210F058F80594C5E902442C614E
:109E300048F201643E68FFF7EABB00BF982F00209C
:109E4000BC2F00209430002018A30300902C002089
:109E50001CA303008430002005AD059048F209647E
:109E6000C5E902002861FFF7D2BB3E6848F20D64E5
:109E700073E4002303EB830305EB83020D48516871
:109E8000002205F82320009208230B4A01F0A8FBCA
:109E900089E40123EEE701F10802E3E53E6848F2B8
:109EA0000D6405AD59E40346C8E5324648F20E6438
:109EB000DDE400BF902C00201CA303004068FFF7E6
:109EC0007DBB00BF094A116804290BD038B5084C86
:109ED000156803460121104644F8253000F01CFFA8
:109EE000002038BD48F20B60704700BF8C30002066
:109EF000882F00202DE9F04F954D89B02A78002356
:109F0000CDE90333CDE90533079372B1914C04F1E8
:109F1000100554F8043B03A803B19847A542F8D1B3
:109F20000024204609B0BDE8F08F281D02F0FF088C
:109F300000F00AFF0028F3D1D8F8F83F5C1C42D0AB
:109F40004FF0805211695269DFF830928249C9F8A6
:109F500010300022A3F540534846C9F80C3001F0F8
:109F600007FB04460028DCD17C497D48DFF810A2BD
:109F70001C238C2200F066FD26464FF0030B27467B
:109F8000D9F80C30F018F35800F0DA80754A934293
:109F900025D14368744A934273D00132934220D151
:109FA000B8F1000F40F09680704B714918600022A4
:109FB0000193FFF733FA019B9B88022B0CBF04230C
:109FC00008231C4326E04FF010234FF080525B69BA
:109FD00011695269581C08BF02FB01F3B4E7013351
:109FE0000AD1031D00F5805101E099425FD01A6843
:109FF000013203F10403F8D007EB87030AEB830275
:10A000000BF1FF3B5060032201370AF823201FFAAF
:10A010008BFBBFB206F58056B6F5405FB0D1BBF101
:10A02000010F40F28A80E4B2062C0ED1494C012285
:10A0300000232A706B6004F1100554F8043B03A858
:10A0400003B19847A542F8D16AE702D814F0FD0F92
:10A0500073D002A9424800F02FFD1C2205460021C2
:10A060000FF03AFF002D62D00123013C2B700A2C27
:10A0700048D8DFE804F04547454759475947565FF8
:10A08000560007EB87030AEB83029900506001F149
:10A09000100208314FF0000C5244514401370AF8C5
:10A0A00023C044F00204FFF7B9F9BFB2B2E72F4B67
:10A0B0001A68FAB12F4A07EB87010AEB8103578030
:10A0C000022201370AF821205860BFB21A8144F0F9
:10A0D00001049FE707EB870C0AEB8C020221234B5C
:10A0E0000AF82C10118123494F80196851600137FB
:10A0F000BFB25AE7022218609A804FF00108E6E7E3
:10A1000000232B7102A9164800F008FD1A4801210E
:10A1100000F0F6FD044600287FF402AFFFF74EFA88
:10A12000FFE603232B71EDE701232B71EAE748F2E9
:10A130000764F6E602232B71E4E748F20A64F0E6CE
:10A140005A1C3FF44EAF074A93423FF44AAF53E7DD
:10A15000982F0020882F002044A50300E42F002022
:10A1600070300020DEC0ADDEFE011EF18430002024
:10A1700088300020A02F002080300020902C00206C
:10A18000BC2F002030B370B50D4682B0F1B10DF197
:10A1900006010446FFF7A0F918B948F2096002B0B9
:10A1A00070BDBDF806000D4B666800EB800003EB48
:10A1B000800001210C3000F0AFFD2E6063680122A9
:10A1C0000C3300206B60A27202B070BD48F20460D4
:10A1D00002B070BD48F20460704700BFBC2F002081
:10A1E00010B310B582B00DF106010446FFF774F903
:10A1F000B0B1BDF806300E4A03EB830302EB8303D4
:10A20000DA684AB1A27A3AB1DA680021013A08461E
:10A21000DA60A17202B010BD48F2056002B010BD54
:10A2200048F2096002B010BD48F20460704700BFF8
:10A23000BC2F00202DE9F047514B1B7882B083B32F
:10A240000C46002945D00A884FF6FF739A4222D067
:10A250004B8803B34D6815F0030534D1B1F808906D
:10A2600009F103039BB240F2FE32934234D8454ACF
:10A270001178074639B9508911890144194489B2C6
:10A28000B1F5806F2BD9117D89B148F2066528465A
:10A2900002B0BDE8F08748F20365284602B0BDE889
:10A2A000F08748F20165284602B0BDE8F087D08B00
:10A2B000918B0144194489B2B1F5806FE5D84FF014
:10A2C0000108C2460DE048F20265284602B0BDE82A
:10A2D000F08748F20465DAE748F20865D7E7A84650
:10A2E000AA460AEB8A0A02EB8A0A034401A9264815
:10A2F000AAF80A3000F0E0FB1C22064600210FF00D
:10A30000EBFD002E2FD0A6F8148002234FF000089A
:10A3100086F8168033706368336101211B4800F0B2
:10A32000FBFCF0602388338163881748B38001A960
:10A33000A6F80690A6F80A8000F0F0FB47B1C7F82F
:10A340000480F268124B3A601B8987F80A803B81CF
:10A350001048012100F0D4FC0446002897D1FFF7F3
:10A360002DF9254693E7BAF80A30C9F57F4909F176
:10A37000FD099944AAF80A9048F2076587E700BFEB
:10A38000982F0020BC2F002070300020B42F002018
:10A39000A02F0020803000202DE9F04782B068B364
:10A3A000524B1B78002B41D00C4639B30A884FF62C
:10A3B000FF739A4234D04B8893B34E6816F003066D
:10A3C0003AD1B1F808A00AF103039BB240F2FE3281
:10A3D000934234D8464A1178054639B951891089D3
:10A3E0000844184480B2B0F5806F2BD9117D59B163
:10A3F00048F20666304602B0BDE8F08748F20466CF
:10A40000304602B0BDE8F087D18B908B08441844E9
:10A4100080B2B0F5806FEBD84FF00109C84613E069
:10A4200048F20366304602B0BDE8F08748F20166A4
:10A43000304602B0BDE8F08748F20266DAE748F23B
:10A440000866D7E7B146B04608EB880802EB8808F3
:10A450000B442848A8F80A3001A900F02DFB1C2263
:10A46000074600210FF038FD002F32D04FF00008D2
:10A470000323A7F8149087F816803B7063683B614C
:10A4800001211D4800F048FCF86023883B81638867
:10A49000BB800423A7F806A0BB752B68BB6101A98C
:10A4A0001448A7F80A8000F039FBC5F80480FA6860
:10A4B000124B2A601B89124885F80A802B810121E2
:10A4C00000F01EFC0446002894D1FFF777F82646DA
:10A4D00090E7B8F80A30CAF57F4A0AF1FD0A9A44B3
:10A4E000A8F80AA048F2076684E700BF982F00206A
:10A4F000BC2F002070300020B42F0020A02F00209F
:10A500008030002070B51D4B1B7882B00BB34FF626
:10A51000FF739842044626D001A9194800F0CCFAEE
:10A520001C22054600210FF0D7FCBDB105230126F2
:10A530002B70EC8001A912482E7100F0EFFA11483F
:10A54000314600F0DDFB044690B10024204602B005
:10A5500070BD48F20164204602B070BD48F2076445
:10A56000204602B070BD48F20364204602B070BDC0
:10A57000FFF724F8204602B070BD00BF982F0020DE
:10A58000703000208030002010B5194B1B7882B04D
:10A59000F3B101A9174800F08FFA1C2204460021EC
:10A5A0000FF09AFCF4B106232370124801A900F0C1
:10A5B000B5FA114B1A780AB101221A730F4801211A
:10A5C00000F09EFB044640B10024204602B010BDBE
:10A5D00048F20164204602B010BDFEF7EFFF2046AE
:10A5E00002B010BD48F20764204602B010BD00BFA3
:10A5F000982F002070300020A02F002080300020F5
:10A600002DE9F047374C2478002C5FD0002A61D028
:10A61000002B5FD09C88012C60D8334D661C04EB66
:10A62000840405EB84058A462C78B6B24FF6FF7792
:10A630004FF0000844B1022E9E8005F114054DD064
:10A640002C780226002CF6D11C68D5F804C00CF535
:10A65000805E002C37D0B4F802C00CF1030C04EB80
:10A660008C04744505D3C3F80080E4E7E645FAD9C5
:10A67000644621680131F6D0B4F802C00CF1030C35
:10A6800004EB8C0CE645EED3B4F80490B945EDD05C
:10A69000B4F80090B9F1000FE8D0A1680131E5D01D
:10A6A0001C60B4F804C08445CFD1B4F800C0D445D0
:10A6B000CBD1A168116019680C4B51601B891381C3
:10A6C0000020BDE8F0870CF10804CAE748F20160F9
:10A6D000BDE8F08748F20460BDE8F08748F2096001
:10A6E000EFE700BF982F0020BC2F0020A02F0020F4
:10A6F000364B1B78002B60D0002961D0002A5FD038
:10A700002DE9F043B2F804E0BEF1010F5BD8304B05
:10A710000EF101050EEB8E0E03EB8E0EADB29EF820
:10A7200000304FF6FF764FF000094BB1022D9580B7
:10A730000EF1140E47D09EF800300225002BF5D103
:10A740001368DEF804C00CF58054002B32D0B3F847
:10A7500002C00CF1030C03EB8C03A34205D3C2F837
:10A760000090E3E76445FAD963461F680137F6D0E5
:10A77000B3F802C00CF1030C03EB8C0C6445EED370
:10A78000B3F80480B045EDD0B3F80080B8F1000F05
:10A79000E8D09F680137E5D013601C888442D0D18F
:10A7A0009B680B6012680B4B4A601B890B81002071
:10A7B000BDE8F0830CF10803CFE748F20160704771
:10A7C00048F20460704748F20960F1E7982F0020D2
:10A7D000BC2F0020A02F0020364B1B78002B60D010
:10A7E000002961D0002A5FD02DE9F043B2F804E0DF
:10A7F000BEF1010F5BD8304B0EF101050EEB8E0E52
:10A8000003EB8E0EADB29EF800304FF6FF764FF0A0
:10A8100000094BB1022D95800EF1140E47D09EF821
:10A8200000300225002BF5D11368DEF804C00CF5CA
:10A830008054002B32D0B3F802C00CF1030C03EBB0
:10A840008C03A34205D3C2F80090E3E76445FAD92C
:10A8500063461F680137F6D0B3F802C00CF1030C51
:10A8600003EB8C0C6445EED3B3F80480B045EDD017
:10A87000B3F80080B8F1000FE8D09F680137E5D049
:10A8800013609C888442D0D19B680B6012680B4B8C
:10A890004A601B890B810020BDE8F0830CF108039E
:10A8A000CFE748F20160704748F20460704748F211
:10A8B0000960F1E7982F0020BC2F0020A02F002076
:10A8C00020B119B103680B600020704748F20460A2
:10A8D000704700BF2DE9F84F574B1B78002B00F055
:10A8E000A3800446002800F0A380122200210FF06C
:10A8F000F3FADFF84C8160882189B4F80AC0A7898F
:10A900004E4A0323238000254FF6FF7E5389B2F879
:10A910000890994453681FFA89F9002B56D01E6895
:10A92000464553D15B6803F16E6303F5FF33023391
:10A93000012B4BD8414ECC44C9F5806305EB85090A
:10A9400006EB89099BB2D9F80C90484480B260802C
:10A95000B2F80A904944BB421FFA8CFC89B288BF06
:10A96000A3812181A4F80AC0D2F8049088BF1F46B1
:10A9700009F1080309F580591E68013621D0B3F8A2
:10A9800002A00AF1030A03EB8A0AD14538D3B3F8CF
:10A9900004A0F2451ED0B3F800A0BAF1000F19D000
:10A9A0009E68013616D0B4F804A00AF1010AA4F892
:10A9B00004A0B3F802A00AF1030A03EB8A03994545
:10A9C000DAD8143275B30020BDE8F88F2388013B34
:10A9D0002380AFE7B4F806B0B4F80EA00BF1010B7A
:10A9E000A4F806B0B3F802B00AF1030ADA44A4F8F6
:10A9F0000EA0B3F802A00AF1030A03EB8A03DEE714
:10AA0000A9EB03094FF00103B4F806A02374E3890E
:10AA10000AF1010A03EBA903A4F806A0E3811432AA
:10AA2000002DD0D1012571E748F20160BDE8F88F13
:10AA300048F20460BDE8F88F982F0020BC2F00205A
:10AA4000DEC0ADDE99B110B4B2FBF3F403FB142405
:10AA5000A4B244B9C0E9001484608281C381204655
:10AA60005DF8044B704709205DF8044B70470E20D9
:10AA7000704700BF82B050E8022FC188B2EB324F5E
:10AA80004FF0000317BF92B241EA014142EA01418F
:10AA900004E04268B2EB324F08BF012340E80212E3
:10AAA000002AE8D18DF807309DF80730002B0CBF45
:10AAB0001120002002B0704710B483B050E8013F6D
:10AAC0001FFA83FCC489A4448489A44528BFACEB45
:10AAD000040C0489A44502BFBFF32F8F002207E0B6
:10AAE000CCEA030C40E801C4002CE7D14FF001028E
:10AAF0008DF803200193019C9DF803200C6032B176
:10AB0000006810FA84F003B05DF8044B704702F05F
:10AB1000FF03184603B05DF8044B70470A884B8862
:10AB20009A4201D00020704750E8012FC2EA024249
:10AB300040E80123002BF7D10120704710B483B007
:10AB400050E8023F1FFAA3FCC488A44502BFBFF32C
:10AB50002F8F00220EE0C489A4448489A44528BF15
:10AB6000ACEB040CC3EA0C4C40E802C4002CE7D167
:10AB70004FF001028DF803200193019C9DF8032002
:10AB80000C6032B1006800EB144003B05DF8044B78
:10AB9000704702F0FF03184603B05DF8044B70479E
:10ABA0000A884B889A4201D00020704750E8022F53
:10ABB000C2EA224240E80223002BF7D1012070476D
:10ABC0004B0901F01F024FF0010C0CFA02F100EBEF
:10ABD000830000F07DB800BF4B0910B501F01F04E1
:10ABE0000121A14000EB830000F066F8E04000F096
:10ABF000010010BD01F01F02012303FA02F24B090C
:10AC000000EB8300D14300F06FB800BF4B0901F0A7
:10AC10001F0150F82300C84000F00100704700BF3A
:10AC20002DE9F04F01F1FF3B83B04FEA5B130F4674
:10AC30000546019300264FF0010A55F8264005EB22
:10AC40008608E44394FAA4F4FCB1B4FA84F404EB67
:10AC500046144FEA4619A74217D904F01F036009AA
:10AC60000AFA03F105EB80009B4600F025F820FA74
:10AC70000BF0C30711D5D8F80030DB4393FAA3F3E8
:10AC8000B3FA83F44C44002BE5D1019AB24206F1A9
:10AC9000010301D01E46D0E73C46204603B0BDE884
:10ACA000F08F00BF034653E8000F0A4643E8002C2C
:10ACB0009CF0000FF7D17047034653E8000F40EABD
:10ACC000010243E8002C9CF0000FF6D1704700BF52
:10ACD000034653E8002F42EA010043E8000C9CF0D1
:10ACE000000FF6D1704700BF034653E8002F02EA79
:10ACF000010043E8000C9CF0000FF6D1704700BF44
:10AD0000034653E8000F00EB010243E8002C9CF0DF
:10AD1000000FF6D1704700BF034653E8002F02EB47
:10AD2000010043E8000C9CF0000FF6D1704700BF13
:10AD3000034653E8002FA2EB010043E8000C9CF00F
:10AD4000000FF6D1704700BF0346012253E8000F01
:10AD500040EA020143E8001C9CF0000FF6D1704766
:10AD60000346012253E8001F41EA020043E8000CB9
:10AD70009CF0000FF6D170470346002253E8000F05
:10AD800000EA020143E8001C9CF0000FF6D1704776
:10AD9000D0B110B4D0E90112521A0468D2B2531ED5
:10ADA0002160DBB252B101680A6803F1FF3C541C18
:10ADB0000C6013705FFA8CF3FF2BF4D10368002052
:10ADC00018715DF8044B70470E20704730B583B0A2
:10ADD000044600250DF107008DF80750FEF778F9BD
:10ADE000D4E900311A688A4210D9511E19602168CD
:10ADF000A3680D6812F8012C208A5B1BE56800FB34
:10AE000002550A79DBB29A4238BF0B719DF80700F0
:10AE1000FEF784F9284603B030BD00BF30B50546C3
:10AE200083B00DF1070000230C468DF80730FEF7C4
:10AE30004FF92A681368591C1160E9682A8A641A54
:10AE4000B4FBF2F41C709DF80700FEF767F903B03D
:10AE500030BD00BF826842B110B504464369016845
:10AE6000006998470023A36010BD70470EB400B579
:10AE700082B0039921B104AB01AA019300F0B6F8A6
:10AE800002B05DF804EB03B0704700BF2DE9F04F4E
:10AE9000154683B0A942DDF830900D9A0F4606465C
:10AEA0009A46C0F09E800B464FF00108B3FBF5F3C5
:10AEB0009D4208F10108F9D9D04538BFD04612F0BB
:10AEC0000103019302D1B9F1000F67D1B268BAF161
:10AED000010F4FF0010406D90AF1FF3ABAF1010F50
:10AEE00005FB04F4F8D8B7FBF4F39D4205D805FB45
:10AEF00004F4B7FBF4F39D42F9D9DFF8ECA007E0C6
:10AF0000AC42B4FBF5F31AD3B2681C46B7FBF3F3BB
:10AF10001AF803B0BBF10A0F04FB137728D033688B
:10AF2000511CB16003F802B0D6E901329A42E7D36E
:10AF30003046FFF78FFFB4FBF5F3AC42E4D2019B40
:10AF40009BB1B9F1000F10D02024C84509F1FF3999
:10AF50000BD2B3683268591CB160D454D6E90132BF
:10AF60009A4214D2B9F1000FEFD103B0BDE8F08FCF
:10AF7000511C3368B1604FF00D019954D6E901328C
:10AF80009A42CCD33046FFF765FFB268C7E7304638
:10AF9000FFF760FFB9F1000FD7D1E6E793071AD4A6
:10AFA0002024B268C84502F1010190D23368B16033
:10AFB0009C54D6E901329A4209F1FF3903D2B9F122
:10AFC000000FEFD183E73046FFF744FFB268B9F1D5
:10AFD000000FE7D17BE7BAF1000F0CBF302420242B
:10AFE000DFE74FF0010867E738A30300002900F00E
:10AFF0005C822DE9F04FDFF870950D7885B006463C
:10B0000090460C464FF00D0A0FE00A2DB36800F091
:10B010008E803268591CB160D554D6E901329A420B
:10B0200080F081802578002D69D00134002D66D014
:10B03000252DEAD10027234614F8012B2D2A6CD0A8
:10B04000302A6DD02B2A61D02A2A7FD0A2F130017C
:10B0500009294FF000050BD805EB850502EB4505E6
:10B0600013F8012FA2F130010929A5F13005F3D918
:10B070002E2A1C4675D0002301E014F8012F02F09F
:10B08000FB016829F9D0252A00F08681583AD1B20F
:10B09000202930D8202A2ED8DFE812F021002D00F8
:10B0A0002D002D002D002D002D002D002D002D0038
:10B0B0002D00FE0079002D002D002D002D007900BF
:10B0C0002D002D002D002D002D002D00BD002D0088
:10B0D0002D001A012D0016012D002D002100D8F899
:10B0E00000101022081DC8F8000009683046CDE99C
:10B0F0000057FFF7CBFE01342578002D95D1337B27
:10B10000002B40F0438105B0BDE8F08F234614F8D2
:10B11000012B2D2A47F0040792D147F001078AE757
:10B1200047F0020787E73046FFF794FE7AE7326878
:10B13000591CB16002F803A0D6E901239342FFF441
:10B1400068AF3046FFF786FEB36862E7D8F80020A4
:10B15000111DC8F8001015685A782E2A03F1010451
:10B1600089D16278A2F13003092B04F101044FF078
:10B17000000384D803EB830302EB430314F8012F8D
:10B18000A2F130010929A3F13003F3D977E7D8F808
:10B190000020111DC8F80010D2F800B08BEAEB7245
:10B1A000A2EBEB72092A40F3DB81DFF8C0C3012078
:10B1B00011466329ACFB02E200F101004FEAD20222
:10B1C000F6DC9842024638BF1A460292002D00F083
:10B1D0001E81BBF1000FC0F22E817A0700F12B8196
:10B1E000B80740F12A81002B40F02781BBF1000F06
:10B1F000C0F27D817A0700F18D8107F00302022AF7
:10B2000000F05D81CDE9005759460A223046FFF72C
:10B210003DFE013470E7D8F800301A1DC8F8002050
:10B220001F68B3683268581C3021B060D154D6E929
:10B230000123934280F0FA80591C3268B160782172
:10B24000D154D6E901329A4280F0EB800F2F03D916
:10B250003B461B090F2BFCD84FF0805506E00F2D05
:10B260004FEA15137FF647AFB2681D46B7FBF5F3FB
:10B2700019F803B0BBF10A0F05FB137777D03368D9
:10B28000511CB16003F802B0D6E901329A42E6D30C
:10B290003046FFF7DFFDE2E7D8F800301A1DC8F8A6
:10B2A00000201D78B3680A2D00F03A813268591CDD
:10B2B000B160D554D6E901329A42FFF41CAF304652
:10B2C000FFF7C8FD013417E7D8F800100A2209E794
:10B2D000D8F800301A1DC8F8002017F00107D3F87D
:10B2E00000B064D1BBF1000F03D058460EF0FCFD56
:10B2F0000746BD4215D9202201E0BD4211D0B168F8
:10B300003368481CB0605A54D6E90130984205F1C0
:10B31000FF35F2D33046FFF79DFDBD424FF02002CE
:10B32000EDD19BF80050002D3FF4E5AE0A2DB0683A
:10B330000FD03368421CB2601D54D6E901309842E8
:10B3400080F0B4801BF8015F002D3FF4D4AE0A2DCD
:10B35000EFD13368421CB26003F800A0D6E9013097
:10B360009842E6D33046FFF775FDB068E1E73368F1
:10B37000511CB16003F802A0D6E901329A42FFF4F1
:10B380007EAF3046FFF766FDB26878E7304605B01D
:10B39000BDE8F04FFFF75EBDB3683168581CB06080
:10B3A000CA54D6E901329A4289D20134A4E69BF804
:10B3B0000030002B00F0D680B0685F46CBF1010270
:10B3C0000A2B02EB070B5ED0411CB16031680B54B5
:10B3D000D6E90130984248D217F8013F002BEFD14F
:10B3E0005D457FF688AE202702E05D453FF483AEE1
:10B3F000B2683368511CB1609F54D6E901329A4259
:10B4000005F1FF35F1D33046FFF724FDEDE7B8072E
:10B4100005D5002B3FF4EAAEF9073FF5E7AE00256E
:10B42000E4E63046FFF716FDB2680FE73046FFF757
:10B4300011FDB36800E7013DD2E6F9073FF5D6AE4E
:10B44000002DECD020220299A942BFF4CFAEB16802
:10B45000481CB06030684254D6E90101814205F1D0
:10B46000FF356CD2002DEED1D9E730460292FFF7BE
:10B47000F1FC17F8013F002BB2D0029AB0680A2BFA
:10B4800002EB070BA0D1411CB160316801F800A0AC
:10B49000D6E90110884297D33046CDE90232FFF752
:10B4A000D9FCDDE90232B0688EE770473046FFF71D
:10B4B000D1FC1BF8015F002D7FF438AF1BE6002B99
:10B4C0007FF4A0AE8DB1302202998D427FF69AAE04
:10B4D000B168481CB06030684254D6E9010181422D
:10B4E00005F1FF3535D2002DEED100258AE6B16891
:10B4F0003268481CB060CBF1000B2D205054D6E9C7
:10B5000001219142FFF479AE30460393FFF7A2FC8C
:10B51000039B72E6B1683268481CB0602B20EDE7EF
:10B520003268591CB16002F803A0D6E901239342A6
:10B53000FFF4BCAE3046FFF78DFCB368B6E630468C
:10B540000393FFF787FC039B2022002D7FF47BAF42
:10B5500065E730460393FFF77DFC039B3022C2E78B
:10B5600001202EE69B463BE738A30300CDCCCCCC94
:10B5700010B582B038B1B9B101600B68114602B0A4
:10B58000BDE810401847104B1048114A1149C01A25
:10B59000C0080E240004104B009440F0010001F09C
:10B5A00045FB0E2002B010BD074B08480B4A094965
:10B5B000C01AC0080E240004074B009440F001009C
:10B5C00001F034FBEDE700BFB4F7030024F80300FB
:10B5D00048A3030050A3030024A503007CA3030099
:10B5E0002DE9F04182B0002859D01546002A5FD0DD
:10B5F0000768002F65D01C466BB34668D6F80480F8
:10B60000B3FBF8F608FB163676BB11F0030F34D106
:10B61000AD073BD1C568A94211D22E4B2E482F4A07
:10B62000C01A1024C0082E4BA0402E49009440F0B0
:10B63000010001F0FBFA204602B0BDE8F081056987
:10B6400001F1FF3E7444AC42E7D8FC68A44602B066
:10B65000BDE8F04160471F4B1F48234AC01AC0088D
:10B660001F4B09240004E0E71A4B1B481F4AC01A6D
:10B67000C0081B4B09240004D7E7164B16481C4A88
:10B68000C01A1024C008164BA040CEE7114B124838
:10B69000184AC01A1024C008114BA040C5E70D4B32
:10B6A0000D48154AC01AC0080D4B0E240004BCE713
:10B6B000084B0948114AC01AC008094B0E2400045F
:10B6C000B3E7044B04480E4AC01AC008044B0824D0
:10B6D0000004AAE7B4F7030024F803004CA4030015
:10B6E00010A5030050A3030098A30300E4A30300E4
:10B6F00010A4030028A4030048A30300DCA3030054
:10B7000084A30300F0B583B000283AD00668002E69
:10B7100040D022B3446827687C1E0C4228D1C468FC
:10B72000A14210D2204B2148214AC01A1024C0083F
:10B73000204BA0402049009440F0010001F076FA2F
:10B74000204603B0F0BD4C1E07FB024E0469A6451F
:10B75000E8D83469A44603B0BDE8F0406047124B16
:10B760001248164AC01AC008124B09240004E1E727
:10B770000D4B0E48124AC01A1024C0080D4BA040B1
:10B78000D8E7094B09480F4AC01AC008094B0E24D4
:10B790000004CFE7044B05480B4AC01AC008054B0C
:10B7A00008240004C6E700BFB4F7030024F8030030
:10B7B0009CA40300FCA4030050A3030098A303006F
:10B7C00074A4030048A3030084A3030029DF704787
:10B7D00028DF70470846704700207047024B187AF0
:10B7E000003818BF0120704738310020034B187A09
:10B7F0000122B0FA80F05A744009704738310020B5
:10B8000008B510461A460EF03FFB002008BD00BFE9
:10B8100008B51422002104480EF05EFB0348FFF730
:10B8200029F9002008BD00BF383100202831002050
:10B8300010B50A4C0A4B43602046FFF785FA08B161
:10B84000002010BD02F0AEFE0246227405490648F3
:10B850001C238C22FFF7F6F8002010BD38310020A1
:10B8600038A503009C3000202831002030B53B4D26
:10B870002B7A87B0002B3AD0394B1C6802232B72ED
:10B880002379002B3ED0012B25D022689368C3B1C9
:10B890000023CDE902330093049303230193A368AB
:10B8A00005932379002B4BD0012B07D102238DF870
:10B8B0000030E368616904911B0302939368684652
:10B8C00098472849284800232B726B6007B0BDE8D1
:10B8D0003040FFF765B9D4E903031844FFF778FF58
:10B8E00020B31128D1D101232B7207B030BD1D49DF
:10B8F0001D48FFF723F91A4B044618600028BDD1F4
:10B900006860F2E7D4E90523D21AB2F5805F28BF58
:10B910004FF480529208E1682069012A38BF012261
:10B9200019441844FFF752FF0028DAD12B7C002B72
:10B93000DBD10146022007B0BDE8304000F016B868
:10B9400001238DF8003023690293E1686369CDE932
:10B950000313684693689847B3E700BF3831002067
:10B96000503100204C31002028310020831E012B53
:10B9700042D810B5354C237A86B0002B3AD0022B32
:10B9800031D103283ED0324B00221B68E2601A7985
:10B99000002A44D0012A26D1D3E9042101328A4267
:10B9A0001A6120D10020207219688A68BAB1002279
:10B9B000CDE90222009204929A68019005921A79C8
:10B9C000002A39D0012A07D102228DF80020DA6836
:10B9D00058690490120302928B68684698471D4983
:10B9E0001D48FFF7DDF8637C3BB906B0BDE81040A9
:10B9F000FFF73CBF06B010BD704706B0BDE8104071
:10BA000002F0C0BDE3680133082B01D8E360EAE728
:10BA10000F4B00221B68E26022720D20C4E7D3E9BD
:10BA20000512881AB0F5805F94BF121802F5805293
:10BA300091429A61D7D1B5E701228DF800201A69A9
:10BA40000292DA685B69CDE90323C5E7383100204B
:10BA5000503100204C310020283100202DE9F041E8
:10BA600084B007468846184803A916461D46FFF7C6
:10BA700023F820B304461C2200210EF02DFA0A9B65
:10BA800027606561114F1048A360002503A9C4F821
:10BA90001080E6602571FFF741F8381DFFF754F973
:10BAA00018B1284604B0BDE8F0817B7C002BF9D1A9
:10BAB0000190FFF7DBFE019804B0BDE8F08104209F
:10BAC00004B0BDE8F08100BF2831002038310020EB
:10BAD0002DE9F04184B080460D46174803A916466B
