:020000022000DC
:1060000000000120E59602000D9702000F970200A4
:10601000119702001397020015970200000000007C
:1060200000000000000000000000000017970200C0
:1060300019970200000000001B9702001D97020044
:106040009D6902001F970200516E02001F97020017
:106050001F9702001F9702000D6A02001F9702009F
:106060001F9702001F9702001F9702001F97020050
:106070001F9702001F9702001F9702001F97020040
:106080001F9702009D7C02001F9702001F970200CD
:106090001F9702001F970200958602001F970200BB
:1060A0001F9702001F9702001F9702001F97020010
:1060B0001F9702001F970200000000000000000070
:1060C0001F9702001F9702001F9702001F970200F0
:1060D0001F9702001F9702001F9702000000000098
:1060E00000000000000000000000000000000000B0
:1060F00000000000000000000000000000000000A0
:10610000000000000000000000000000000000008F
:10611000000000000000000000000000000000007F
:10612000000000000000000000000000000000006F
:10613000000000000000000000000000000000005F
:10614000000000000000000000000000000000004F
:10615000000000000000000000000000000000003F
:10616000000000000000000000000000000000002F
:10617000000000000000000000000000000000001F
:10618000000000000000000000000000000000000F
:1061900000000000000000000000000000000000FF
:1061A00000000000000000000000000000000000EF
:1061B00000000000000000000000000000000000DF
:1061C00000000000000000000000000000000000CF
:1061D00000000000000000000000000000000000BF
:1061E00000000000000000000000000000000000AF
:1061F000000000000000000000000000000000009F
:1062000010B5054C237833B9044B13B10448AFF3F0
:1062100000800123237010BD582C002000000000D6
:10622000F8A2020008B5034B1BB103490348AFF3C2
:10623000008008BD000000005C2C0020F8A20200D5
:10624000A3F5803A704700BF174B002B08BF134BD4
:106250009D46FFF7F5FF00218B460F461348144A71
:10626000121A03F0A3FA0E4B002B00D098470D4BE7
:10627000002B00D098470020002104000D000D489D
:10628000002802D00C48AFF3008003F05DFA200034
:10629000290000F039F803F043FA00BF00000800BD
:1062A000000000000000000000000120582C002029
:1062B0005833002000000000000000000388102B6D
:1062C0000ED0112B0BD10C4A0C49037A891AC9083C
:1062D0000904828841F00300094902F0A5BF704714
:1062E0000549064B8288581AC0080004054940F049
:1062F000030002F0BDBE00BF38A3020060A302008D
:1063000008980200E897020000B54FF4804183B07E
:10631000002002F05BFC18BB02F048FC01F07EFCA0
:1063200050BB02F023F920BB002301A901200193F7
:1063300002F0FCF9D0B901A802F0B6FA98B91048F9
:10634000104B1149C01AC008000440F0030002F0CD
:10635000BBFD02F089FC0028FBD101F075FCF8E7D9
:1063600002F058F8D8E702F055F8E8E702F052F8E2
:10637000E1E702F04FF8D7E702F04CF8D1E700BFB1
:1063800060A3020038A302003898020010B44FF056
:106390008053D3F830315A1C04BF4FF0704393F848
:1063A000E03F062B08D14FF08053B34AD3F8243393
:1063B000C3F30423C2F840354FF0704393F8E02F45
:1063C000062A00F01B814FF08053D3F830315C1C5B
:1063D00004BF4FF0704393F8E03F062B09D14FF014
:1063E00080534FF08042D3F84432C3F34233C2F8B3
:1063F0003C354FF0704393F8E02F062A00F0E98017
:106400004FF08053D3F83031581C04BF4FF0704325
:1064100093F8E03F062B08D14FF080430022C3F8E9
:106420000C21C3F81021C3F838254FF0704393F8BE
:10643000E02F062A00F0AA804FF08052D2F83031C7
:10644000591C20D0062BD2F8342126D08B4AD2F802
:10645000883043F47003C2F88830BFF34F8FBFF326
:106460006F8F4FF01023D3F80022002AC0F2228150
:10647000D3F80432002BC0F21D81814B814A1A608F
:106480005DF8044B70474FF0704292F8E01FD2F86D
:10649000E82F0629DAD1C2F30312033A032A40F2A5
:1064A000C4804FF08053784AD3F80414C2F8201502
:1064B000D3F80814C2F82415D3F80C14C2F8281520
:1064C000D3F81014C2F82C15D3F81414C2F83015F0
:1064D000D3F81814C2F83415D3F81C14C2F84015B8
:1064E000D3F82014C2F84415D3F82414C2F8481580
:1064F000D3F82814C2F84C15D3F82C14C2F8501550
:10650000D3F83014C2F85415D3F83414C2F8601517
:10651000D3F83814C2F86415D3F83C14C2F86815DF
:10652000D3F84014C2F86C15D3F84414D3F83031C2
:10653000C2F870155C1C04BF4FF0704393F8E03F45
:10654000062B83D14FF080524FF08041D2F8583261
:10655000D2F8302103F04F03501CC1F8E43E69D05B
:10656000062A7FF473AFD1F80034DA076ED44FF007
:106570008053D3F83431033B032B50D9434AD2F82C
:106580003C3743F48063C2F83C375FE7D3F8E83F19
:10659000C3F30313033B032B3FF64EAF3C4AD25CDD
:1065A00022B14FF080420321C2F8A015394AD35CD2
:1065B000002B3FF441AF384B0524012000213F223E
:1065C000C3F81046C3F88806C3F81816C3F8142693
:1065D00032E7D3F8E83FC3F30313033B032B3FF643
:1065E0000FAF2E4AD35C002B3FF40AAF234AD2F8F8
:1065F000FC3023F08073C2F8FC3001E7D3F8E83FA9
:10660000C3F30313033B032B3FF6DDAE244AD35CF5
:10661000002B3FF4D8AE234B234A5A67D3E6234AD4
:10662000D35C002B3FF412AFA8E721498A5C002A13
:1066300080D036E74FF0704393F8E03F062B7FF4AD
:1066400005AFD1F80034DB077FF500AF4FF0805382
:106650004FF08042D3F830316FF00101062BC2F8C1
:1066600000147FF4F3AE4FF08053D3F83431033B82
:10667000032B83D8D3E700BF0030014000ED00E0DA
:10668000D02B00200090D00300C00040001000403C
:1066900054980200549802000050004054980200A0
:1066A0005498020000C007400DF0ADBA50980200A7
:1066B0004C980200184A0123C2F80435D2F800347D
:1066C000002BFBD04FF010231521134AC3F8001202
:1066D000D2F80034002BFBD04FF0102315210E4AC6
:1066E000C3F80412D2F80034002BFBD000230A496F
:1066F000C2F80435D1F80034002BFBD0BFF34F8F24
:106700000649074BCA6802F4E0621343CB60BFF34B
:106710004F8F00BFFDE700BF00E0014000ED00E04B
:106720000400FA0510B568B90E4CA3680122627026
:106730003BB1D3E900230020A2609847A368002B57
:10674000F7D110BD0128FCD1064C2369A070002BA5
:10675000F7D0D3E900230120226198472369002B59
:10676000F7D110BD742C002070B910B5074CA36888
:10677000012262703BB1D3E900230020A260984758
:10678000A368002BF7D110BD704700BF742C002008
:1067900030B5012883B004D0032821D0B0B103B0B4
:1067A00030BD294C00230DF107008DF8073001F0B2
:1067B00077FE23786BB3E3689DF80700012213444A
:1067C000E360A27001F092FE03B030BD1F4B0122C6
:1067D000C3F88020BFF34F8FBFF36F8F03B030BD7E
:1067E000194C00F0B3F800230DF107008DF80730C5
:1067F00001F056FEE368013BE360E3681BB9144B0C
:10680000D3F80054C5B19DF8070001F06FFE03B046
:1068100030BD10486360A3602361E36000F08AF834
:1068200001F032FF60B10A4A01232370D2F800243C
:10683000002AC0D0A370BEE700F09AF8A570E2E786
:1068400000F084F8EFE700BF742C002000E100E0C6
:10685000000001402567020030B50A4B0A4C53F88E
:10686000213054F82110027885B0D0E901548DF818
:106870000020C26801958DF8084003926846984749
:1068800005B030BD8C2C0020882C002030B50A4B80
:106890000A4C53F8213054F82110027885B0D0E921
:1068A00001548DF80020C26801958DF808400392CC
:1068B0006846984705B030BD8C2C0020882C0020FD
:1068C000F0B5174B06784F7F43F826201446154B3A
:1068D000154A9F550546086942F826008C46BCE8D3
:1068E0000F0089B0EE46AEE80F009CE80F008EE87E
:1068F0000F0004964FB1002C0C4A694608BF22468F
:10690000281D00F029FE09B0F0BD002C084A694698
:1069100008BF224605F10C0000F0BAFB09B0F0BD3B
:106920008C2C0020902C0020882C0020596802001C
:106930008D680200044A137923B901211060918007
:106940001846704785207047942C0020074B1A6822
:10695000D20704D4C02283F8002301221A604FF02A
:1069600080430122C3F81825704700BF00E100E012
:106970004FF0804202210023C2F8081382B0C2F80F
:106980000431D2F80431019301230199D360D2F884
:106990001834DB03FBD402B0704700BF10B54FF0D2
:1069A000804382B0D3F8002162B10021164AC3F8B7
:1069B0000011D3F80011507900910121009CC3F817
:1069C0000813A8B14FF08043D3F80421CAB10022C4
:1069D000C3F80421D3F80421019202210A4A019844
:1069E000C3F808131368012002B0BDE8104018472F
:1069F0001368517198474FF08043D3F80421002A5F
:106A0000E5D102B010BD00BF942C0020F0B585B0D8
:106A10001D4A00230193D2F80011012900F0E581FD
:106A20001E46194BD3F80421012A00F0CF81164BE2
:106A3000D3F80821012A00F0B881134BD3F80C21B8
:106A4000012A00F0A381104BD3F81021012A00F095
:106A50008E810D4BD3F81421012A00F079810A4B65
:106A6000D3F81821012A00F06481074BD3F81C21C8
:106A7000012A0BD0044BD3F87C21012A00F0C281FB
:106A800026BB05B0F0BD00BF00600040D3F8042372
:106A90001206EFD50022C3F81C21D3F81C11029175
:106AA000D3F87C110298012946F080060ED1C3F874
:106AB0007C21D3F87C2103924FF0A043039AD3F8B2
:106AC00020250192C3F8202546F00046BE4F002441
:106AD0000125A30003F180432E4203F5C0434FEA92
:106AE00045050BD0D3F8100557F82420D3F810151E
:106AF000C0F30420C1F3014102B190470134082CD6
:106B0000E7D1002EBDDAB04C01254FF0A04694F934
:106B10005000471C3DD0C0F3C20304AA1344C1B2C5
:106B200013F80C2C00F0070305FA03F31A4200F0E7
:106B30003F002ED0830003F1A04305FA00F7D3F8FD
:106B40000027D3F800C72CF4403CC3F800C7C2F3B9
:106B50000142D3F800C7022A0CBF4FF4403E4FF465
:106B6000003E4CEA0E0CC3F800C72318C6F8207587
:106B700093F9303054F823305BB18909032900F0D0
:106B80006581022A00F05F81032A02D1022900F008
:106B90005D8194F95100411C3DD0C0F3C20304AAA9
:106BA0001344C1B213F80C2C00F0070305FA03F3E9
:106BB0001A4200F03F002ED0830003F1A04305FAF3
:106BC00000F7D3F80027D3F800C72CF4403CC3F8F3
:106BD00000C7C2F30142D3F800E7022A0CBF4FF40A
:106BE000403C4FF4003C4CEA0E0CC3F800C723189D
:106BF000C6F8207593F9303054F823305BB1890919
:106C0000032900F01981022A00F01381032A02D11E
:106C1000022900F0118194F95200421C3DD0C0F3CA
:106C2000C20304AA1344C1B213F80C2C00F00703EA
:106C300005FA03F31A4200F03F002ED0830003F15F
:106C4000A04305FA00F7D3F80027D3F800C72CF4C7
:106C5000403CC3F800C7C2F30142D3F800E7022A60
:106C60000CBF4FF4403C4FF4003C4CEA0E0CC3F810
:106C700000C72318C6F8207593F9303054F8233034
:106C80005BB18909032900F0D280022A00F0CC8090
:106C9000032A02D1022900F0CA8094F95300431C50
:106CA0003DD0C0F3C20304AA1344C1B213F80C2CA4
:106CB00000F0070305FA03F31A4200F03F002ED05C
:106CC000830003F1A04305FA00F7D3F80027D3F8B7
:106CD00000C72CF4403CC3F800C7C2F30142D3F80C
:106CE00000E7022A0CBF4FF4403C4FF4003C4CEA52
:106CF0000E0CC3F800C72318C6F8207593F930307E
:106D000054F823305BB18909032900F09A80022AE4
:106D100000F09480032A02D1022900F09280D6F874
:106D200020350193C6F82035002B7FF4F0AE05B076
:106D3000F0BDD3F8042351067FF597AE0022C3F8C7
:106D40001821D3F818310293029B46F040068CE6D6
:106D5000D3F8042390067FF582AE0022C3F81421F5
:106D6000D3F814310293029B46F0200677E6D3F85D
:106D70000423D4067FF56DAE0022C3F81021D3F8AA
:106D800010310293029B46F0100662E6D3F804230A
:106D900015077FF558AE0022C3F80C21D3F80C314B
:106DA0000293029B46F008064DE6D3F804235707EA
:106DB0007FF543AE0022C3F80821D3F808310293CF
:106DC000029B46F0040638E6A02C0020D3F80423EA
:106DD00092077FF52CAE0022C3F80421D3F80431CA
:106DE0000293029B46F0020621E6D2F8046316F0F5
:106DF00001063FF416AEC2F80031D2F8003102931A
:106E0000029B0EE60022C3F87C21D3F87C2103927A
:106E10004FF0A043039AD3F820250192C3F8202510
:106E2000002E3FF470AE4FE601297FF436AF98474D
:106E300033E701297FF4EFAE9847ECE601297FF4B0
:106E40006EAF98476BE701297FF4A3AE9847A0E6A1
:106E5000014B1B68184700BFFC2C0020104B9842C8
:106E60001BD130B583B000230DF107008DF807303A
:106E70000D4601F015FB0B4B9DF807001C793CB942
:106E800001221D601A7101F031FB204603B030BDB4
:106E900001F02CFB112003B030BD0020704700BF73
:106EA00000200040FC2C0020034B984203D1034BF0
:106EB00000221A601A71704700200040FC2C00204C
:106EC00010B5714AD2F8043399058AB068D5D2F862
:106ED0002431002B64D00023C2F82431D2F82431AD
:106EE00001934FF40171694B0198C2F8081393F8AC
:106EF000291009B901215160634902228DF8182037
:106F0000D1F88024C1F880249FED5D7B9969D86811
:106F1000CDE9081283ED067BD3E90012079006A89D
:106F20009047594AD2F81C31C3B1584B5869196A75
:106F300088426AD993F8281001F0FF00002964D133
:106F4000C2F81C01D2F81C11039103999C68186ABD
:106F5000196A205C01311962C2F81C054A4AD2F84C
:106F60004431DBB10021494BC2F84411D2F844014D
:106F700093F829100090009809B1012111609A69D5
:106F800062B1D8685C6A00210122CDE907049961E9
:106F90008DF8182006A8D3E9001290470AB010BD5A
:106FA000394AD2F804335B07BBD5D2F80831002B3D
:106FB000B7D0364B996900293ED00021C2F808119C
:106FC000D2F8081104910499D868596AD2F81825A2
:106FD00042545A6A996901325A625A6A8A42A0D165
:106FE000DA69002A31D09A611A69D8685C6ADA6075
:106FF000002101220894D961596207905C681968E0
:107000008DF8182006A8A0478BE71F4A0020C2F879
:107010001C01D2F81C210292029A5A69002A9DD0C2
:10702000D3E901215C698DF81800CDE90714586196
:10703000196806A8904791E7C2F80811D2F808012C
:1070400005900598D2F81825C7E793F8292012B9BA
:107050000D4A012151600C4A4FF40171C2F8081326
:10706000D8685C6A0021012299618DF81820D3E963
:107070000012CDE9070406A8904752E7AFF300805D
:10708000000000000000000000200040082D00204B
:107090002DE9F041604E90F804802C2303FB086337
:1070A00082B093F82A30002B40F0898005460C46C8
:1070B00000685A491746FFF7D1FE00287BD12368A4
:1070C000591C0CD04FF0A041012202FA03F3C1F881
:1070D0000835236803F5E073032241F82320636831
:1070E0005A1C06D003F5E0734FF0A042002142F88D
:1070F00023102B68A269C3F82425227D637D1343E6
:107100002A68C2F86C35D4E900122B68C3F814253C
:10711000C3F80C15237D012B5CD02C2303FB08F353
:10712000F21857602269F25097B32A68237F002132
:10713000C2F81C11D2F81C210092009A2A68C2F8E9
:107140004411D2F844210192019A2A683449C2F8C4
:1071500004132A6842F3073100294FEA123232DB66
:1071600001F160415B0101F56141DBB281F800335F
:107170002B6843F30732002A4FEA133109DB294C0D
:107180005209012301F01F0103FA01F144F8221012
:107190002B680422C3F800252C2303FB0866012278
:1071A0000023C6E9063386F82930736186F82A2061
:1071B00002B0BDE8F081112002B0BDE8F0810820E6
:1071C00002B0BDE8F081184902F00F025B01DBB2AA
:1071D0008B54CDE7A368591C06D003F5E0734FF03C
:1071E000A042002142F82310E3685A1C0DD04FF052
:1071F000A041012202FA03F3C1F80835E36803F560
:10720000E073032241F82320E3682A68A168C2F8EA
:107210000835C2F8101580E7082D0020C16E020065
:107220008000020000E100E014ED00E0F8B5036822
:107230000679324C0022C3F800252C2303FB0643B9
:107240005B68C3B103682E4AC3F80823036843F39D
:107250000732002A4FEA13310EDB5209294D203242
:10726000012301F01F0103FA01F145F82210BFF3D9
:107270004F8FBFF36F8F0368D3F80CC5D3F8147525
:10728000D3F80815D3F810554FF0FF32C3F8142582
:10729000C3F80C2503689445C3F80825C3F81025E6
:1072A00006D00CF5E07C4FF0A043022243F82C20DE
:1072B0007B1C06D007F5E0774FF0A043022243F88D
:1072C00027206A1C06D005F5E0754FF0A043022286
:1072D00043F825204B1C06D04FF0A04301F5E07188
:1072E000022243F821200068FFF7DEFD2C2303FB78
:1072F0000644002384F82A306360F8BD082D00207E
:107300008402020000E100E02DE9F041334C90F8E6
:1073100004E02C2303FB0E438446586984B0002804
:107320004ED15A619960186283F82800DCF8002079
:10733000C2F81C01D2F81C210292029ADCF800204B
:1073400001219160DCF800209D68C2F81C01D2F890
:107350001C1101910199196A6E5C196A0131196257
:10736000C2F81C655A6812B104B0BDE8F0815E69CC
:107370001A6ADCF8001096421BD9074602E093F81F
:1073800028200ABBD1F81C21002AF8D0C1F81C71B2
:10739000D1F81C210392039A1A6A15F802801A6A1E
:1073A00001321A62C1F81C851A6A9642EAD8DCF8E2
:1073B0000010D1F81C31002BFBD00123CB6004E07E
:1073C000112004B0BDE8F0810F202C2303FB0E44F4
:1073D0000023636104B0BDE8F08100BF082D0020E8
:1073E00010B55B4BD3F824218AB0002A58D0002274
:1073F000C3F82421D3F82411049102228DF8182017
:107400000499544AD3F88014C3F880149FED4E7B3E
:107410000991D3F83C45D06882ED067BCDE907049D
:10742000D2E9001306A89847494BD3F8442152B13A
:107430000021484AC3F84411D3F8440191690390EC
:107440000398002961D1424BD3F8202162B100207A
:10745000C3F82001D3F82021029201213D4A029C69
:10746000D9605169002943D1394BD3F85821AAB1C9
:107470000020C3F85801D3F85811364A01910199F8
:10748000516959B1D3F84C458DF81800D2E9013152
:107490005061CDE9071406A8116898470AB010BDDD
:1074A000D3F810110029BFD0C3F81021D3F8101160
:1074B000284C05910599A169D3F83C058842B3D1C0
:1074C000E169002933D0C4E90612D3F8002222F082
:1074D0002002C3F80022E2680792012122698DF898
:1074E0001810089063682168E26006A898479BE737
:1074F000D3F84C458DF81800D2E901315061CDE93F
:10750000071406A811689847AEE79FED0F7BD3F8E4
:107510003C45D0684FF0010CCDE9070482ED067BB5
:10752000D2E900138DF818C006A898478BE7E268E7
:10753000A1610123CDE907208DF8183006A8D4E910
:107540000013984770E700BF000000000000000033
:1075500000200040382D00202DE9F04307796D4EC2
:1075600007EBC70306EB830387B093F82030002BAB
:1075700040F0A38004460D46006867499046FFF737
:107580006DFC002840F095802B68591C4FEAC70914
:107590000CD04FF0A041012202FA03F3C1F80835E4
:1075A0002B6803F5E073032241F823206B685A1C13
:1075B00006D003F5E0734FF0A042002142F82310FB
:1075C0002368AA69C3F824252B7D6A7D1A432368A2
:1075D000C3F86C25D5E900312268C2F80C35C2F831
:1075E00014152B7D012B73D009EB070206EB8203E8
:1075F000C3F804802B6946F82230B8F1000F47D059
:1076000021682B7F0022C1F81021D1F810110191BF
:1076100001992168C1F82021D1F820110291029925
:107620002168C1F82421D1F824110391039921681C
:10763000C1F84421D1F84411049104992168C1F89A
:107640005821D1F858210592059A22683349C2F889
:107650000413226842F3073100294FEA123230DB6B
:1076600001F160415B0101F56141DBB281F800335A
:10767000226842F30733002B4FEA123109DB284D11
:107680005B09012201F01F0102FA01F145F8231004
:1076900022684F4406EB87060121002386F820105C
:1076A0000821C2F80015C6E90633736107B0BDE8CA
:1076B000F083112007B0BDE8F083082007B0BDE8D3
:1076C000F083184902F00F025B01DBB28B54CFE765
:1076D000AB68591C06D003F5E0734FF0A0420021BF
:1076E00042F82310EB685A1C0DD04FF0A041012244
:1076F00002FA03F3C1F80835EB6803F5E0730322DF
:1077000041F82320EB682268A968C2F80835C2F85E
:10771000101569E7382D0020E173020010034200C4
:1077200000E100E014ED00E02DE9F04105794B4C5B
:1077300005EBC50304EB830301465B68006882B078
:10774000EE00C3B1464BC0F808330B6843F3073271
:10775000002A4FEA13330EDB5209DFF808C120324A
:10776000012703F01F0307FA03F34CF82230BFF39D
:107770004F8FBFF36F8F731904EB83039A69D0F8AF
:10778000003223F02003C0F8003242B10023C0F8D9
:107790004431D0F844310093009B0123436000231F
:1077A000C0F85831D0F858310193019B7319012268
:1077B00004EB8303C2609A69D0F85831002BFBD0E8
:1077C0001AB1D0F84431002BF6D00023C0F80035B0
:1077D0000B684FF0FF32D3F80C85D3F814E5D3F8DB
:1077E0000875D3F810C5C3F80C25C3F814250B6829
:1077F0009045C3F80825C3F8102506D008F5E078B1
:107800004FF0A043022243F82820BEF1FF3F06D0EC
:107810000EF5E07E4FF0A043022243F82E20BCF18B
:10782000FF3F06D00CF5E07C4FF0A043022243F866
:107830002C207B1C06D007F5E0774FF0A0430222F6
:1078400043F82720FFF730FB354404EB8504002381
:1078500084F82030636002B0BDE8F081382D00204C
:107860001003420000E100E001F0604CBCF1005F59
:1078700030D170B590F804E0264C0EEBCE0C04EB42
:107880008C0C0346DCF8140082B04FEACE050028C9
:107890003BD1CCF81420CCF808101A68C2F82001AB
:1078A000D2F820210192019A1A68C2F85801D2F840
:1078B00058210092009A1A68DCF81460C2F8441546
:1078C000C2F848651A6801219160DCF804201AB1F9
:1078D00002B070BD102070471A6800E0C0B9D2F83D
:1078E0002011D2F858010029F8D088B90121D160BF
:1078F0001B68D3F85821002AFBD005EB0E0304EBDC
:10790000830300225A6102B070BD112002B070BD25
:107910000F20F2E7382D0020034653E8000F0A46F7
:1079200043E8002C9CF0000FF7D17047034653E862
:10793000002F02EB010043E8000C9CF0000FF6D191
:10794000704700BF034653E8002FA2EB010043E855
:10795000000C9CF0000FF6D1704700BF03460122D7
:1079600053E8001F41EA020043E8000C9CF0000FBE
:10797000F6D170470346002253E8000F00EA0201E7
:1079800043E8001C9CF0000FF6D17047D0B110B452
:10799000D0E90112521A0468D2B2531E2160DBB240
:1079A00052B101680A6803F1FF3C541C0C6013706B
:1079B0005FFA8CF3FF2BF4D10368002018715DF897
:1079C000044B70470E20704730B583B00446002545
:1079D0000DF107008DF8075000F062FDD4E9003189
:1079E0001A688A4210D9511E19602168A3680D686F
:1079F00012F8012C208A5B1BE56800FB02550A790E
:107A0000DBB29A4238BF0B719DF8070000F06EFDA3
:107A1000284603B030BD00BF30B5054683B00DF138
:107A2000070000230C468DF8073000F039FD2A6866
:107A30001368591C1160E9682A8A641AB4FBF2F4CD
:107A40001C709DF8070000F051FD03B030BD00BF71
:107A5000FFF79CBF2DE9F041058A0331043D4E1923
:107A60008046B6FBF5F6FFF7AFFFA0B3F6B24FF4D2
:107A70008073013E04468380C580C0F800802BD00F
:107A80000346002508E06279AE4202F1010262710C
:107A90003860C0F800801FD040461F46FFF794FFB3
:107AA000013503460028EED16779791E17D02246AA
:107AB000013399421268FBD1D2F800805FB1266889
:107AC000002501E034463668214640460135FFF77F
:107AD000A3FFAF42F6D800242046BDE8F08120681D
:107AE0002146FFF799FFF6E701210430FFF71EBF9B
:107AF0002DE9F041012104460430FFF723FF10F087
:107B0000FF0301D0BDE8F0816779791E16D02246C7
:107B1000013399421268FBD1D2F80080002FF1D0D6
:107B20002668002501E03446366821464046013586
:107B3000FFF772FFAF42F6D8BDE8F081206821461A
:107B4000BDE8F041FFF768BF2DE9F8438846C788D4
:107B5000417907FB01F1043902EB030C1E1D61455D
:107B6000154638BFCD1AB7420446B6FBF7F207FBFD
:107B7000126002D8013A2468FCD13E1AAE4228BFF6
:107B80002E469DB14FF000090430AD1B324608EB84
:107B90000901204401F0FCFDAF42B14424683E4697
:107BA0004FF0000028BF2E46002DEDD1BDE8F88330
:107BB0002DE9F8430446C788407907FB00F00438F4
:107BC00002EB030C1E1D6045154638BFC51AB742AF
:107BD0008846B6FBF7F107FB116202D80139246829
:107BE000FCD1BE1AAE4228BF2E469DB14FF000090F
:107BF000111DAD1B3246214408EB090001F0C8FD00
:107C0000AF42B14424683E464FF0000228BF2E46E2
:107C1000002DEDD1BDE8F88341DF7047064A074BE0
:107C200010B5002414701C60BFF35F8F0449054831
:107C300000F0DAFB204610BD642D0020682D0020E6
:107C4000A89802005C2D002000B583B000230DF140
:107C500007008DF8073000F023FCF1EE103A23F016
:107C60009F03E1EE103ABFF35F8F0B4B4022C3F846
:107C700084219DF8070000F039FC00F005FD28B9CB
:107C800020BF40BF20BF03B05DF804FB03B05DF828
:107C900004EBFFF7C1BF00BF00E100E0024A034B65
:107CA00010681B68184700BF6C2D0020742D002041
:107CB000826842B110B5044643690168006998477B
:107CC0000023A36010BD70470EB400B582B00399C5
:107CD00021B104AB01AA019300F0B6F802B05DF83F
:107CE00004EB03B0704700BF2DE9F04F154683B099
:107CF000A942DDF830900D9A0F4606469A46C0F02C
:107D00009E800B464FF00108B3FBF5F39D4208F14E
:107D10000108F9D9D04538BFD04612F001030193CC
:107D200002D1B9F1000F67D1B268BAF1010F4FF07B
:107D3000010406D90AF1FF3ABAF1010F05FB04F478
:107D4000F8D8B7FBF4F39D4205D805FB04F4B7FB64
:107D5000F4F39D42F9D9DFF8ECA007E0AC42B4FBA4
:107D6000F5F31AD3B2681C46B7FBF3F31AF803B065
:107D7000BBF10A0F04FB137728D03368511CB160A4
:107D800003F802B0D6E901329A42E7D33046FFF752
:107D90008FFFB4FBF5F3AC42E4D2019B9BB1B9F188
:107DA000000F10D02024C84509F1FF390BD2B36869
:107DB0003268591CB160D454D6E901329A4214D2C7
:107DC000B9F1000FEFD103B0BDE8F08F511C33685B
:107DD000B1604FF00D019954D6E901329A42CCD3EB
:107DE0003046FFF765FFB268C7E73046FFF760FF30
:107DF000B9F1000FD7D1E6E793071AD42024B2686F
:107E0000C84502F1010190D23368B1609C54D6E9B3
:107E100001329A4209F1FF3903D2B9F1000FEFD1D3
:107E200083E73046FFF744FFB268B9F1000FE7D1AE
:107E30007BE7BAF1000F0CBF30242024DFE74FF0BE
:107E4000010867E7B4980200002900F05C822DE980
:107E5000F04FDFF870950D7885B0064690460C46D9
:107E60004FF00D0A0FE00A2DB36800F08E803268E3
:107E7000591CB160D554D6E901329A4280F0818014
:107E80002578002D69D00134002D66D0252DEAD14A
:107E90000027234614F8012B2D2A6CD0302A6DD0F0
:107EA0002B2A61D02A2A7FD0A2F1300109294FF074
:107EB00000050BD805EB850502EB450513F8012FEE
:107EC000A2F130010929A5F13005F3D92E2A1C466B
:107ED00075D0002301E014F8012F02F0FB0168299E
:107EE000F9D0252A00F08681583AD1B2202930D81D
:107EF000202A2ED8DFE812F021002D002D002D00C1
:107F00002D002D002D002D002D002D002D00FE0038
:107F100079002D002D002D002D0079002D002D0061
:107F20002D002D002D002D00BD002D002D001A016B
:107F30002D0016012D002D002100D8F80010102270
:107F4000081DC8F8000009683046CDE90057FFF762
:107F5000CBFE01342578002D95D1337B002B40F0EA
:107F6000438105B0BDE8F08F234614F8012B2D2A7C
:107F700047F0040792D147F001078AE747F002076C
:107F800087E73046FFF794FE7AE73268591CB16004
:107F900002F803A0D6E901239342FFF468AF30460C
:107FA000FFF786FEB36862E7D8F80020111DC8F815
:107FB000001015685A782E2A03F1010489D16278DD
:107FC000A2F13003092B04F101044FF0000384D81F
:107FD00003EB830302EB430314F8012FA2F13001FA
:107FE0000929A3F13003F3D977E7D8F80020111D50
:107FF000C8F80010D2F800B08BEAEB72A2EBEB727B
:10800000092A40F3DB81DFF8C0C301201146632950
:10801000ACFB02E200F101004FEAD202F6DC98422A
:10802000024638BF1A460292002D00F01E81BBF1B5
:10803000000FC0F22E817A0700F12B81B80740F1C2
:108040002A81002B40F02781BBF1000FC0F27D8117
:108050007A0700F18D8107F00302022A00F05D81AA
:10806000CDE9005759460A223046FFF73DFE01345C
:1080700070E7D8F800301A1DC8F800201F68B368F0
:108080003268581C3021B060D154D6E901239342A4
:1080900080F0FA80591C3268B1607821D154D6E959
:1080A00001329A4280F0EB800F2F03D93B461B0927
:1080B0000F2BFCD84FF0805506E00F2D4FEA15131B
:1080C0007FF647AFB2681D46B7FBF5F319F803B06A
:1080D000BBF10A0F05FB137777D03368511CB160F1
:1080E00003F802B0D6E901329A42E6D33046FFF7F0
:1080F000DFFDE2E7D8F800301A1DC8F800201D782F
:10810000B3680A2D00F03A813268591CB160D55429
:10811000D6E901329A42FFF41CAF3046FFF7C8FDA2
:10812000013417E7D8F800100A2209E7D8F8003020
:108130001A1DC8F8002017F00107D3F800B064D169
:10814000BBF1000F03D0584601F038FB0746BD4293
:1081500015D9202201E0BD4211D0B1683368481C16
:10816000B0605A54D6E90130984205F1FF35F2D398
:108170003046FFF79DFDBD424FF02002EDD19BF848
:108180000050002D3FF4E5AE0A2DB0680FD03368E3
:10819000421CB2601D54D6E90130984280F0B48090
:1081A0001BF8015F002D3FF4D4AE0A2DEFD13368E8
:1081B000421CB26003F800A0D6E901309842E6D331
:1081C0003046FFF775FDB068E1E73368511CB160D8
:1081D00003F802A0D6E901329A42FFF47EAF30469E
:1081E000FFF766FDB26878E7304605B0BDE8F04FAE
:1081F000FFF75EBDB3683168581CB060CA54D6E959
:1082000001329A4289D20134A4E69BF80030002B57
:1082100000F0D680B0685F46CBF101020A2B02EB7A
:10822000070B5ED0411CB16031680B54D6E90130B8
:10823000984248D217F8013F002BEFD15D457FF6F9
:1082400088AE202702E05D453FF483AEB268336814
:10825000511CB1609F54D6E901329A4205F1FF35B5
:10826000F1D33046FFF724FDEDE7B80705D5002B25
:108270003FF4EAAEF9073FF5E7AE0025E4E6304605
:10828000FFF716FDB2680FE73046FFF711FDB36840
:1082900000E7013DD2E6F9073FF5D6AE002DECD060
:1082A00020220299A942BFF4CFAEB168481CB06049
:1082B00030684254D6E90101814205F1FF356CD2A4
:1082C000002DEED1D9E730460292FFF7F1FC17F806
:1082D000013F002BB2D0029AB0680A2B02EB070BC9
:1082E000A0D1411CB160316801F800A0D6E90110AD
:1082F000884297D33046CDE90232FFF7D9FCDDE959
:108300000232B0688EE770473046FFF7D1FC1BF8A9
:10831000015F002D7FF438AF1BE6002B7FF4A0AE89
:108320008DB1302202998D427FF69AAEB168481C19
:10833000B06030684254D6E90101814205F1FF3551
:1083400035D2002DEED100258AE6B1683268481C8E
:10835000B060CBF1000B2D205054D6E901219142A1
:10836000FFF479AE30460393FFF7A2FC039B72E65D
:10837000B1683268481CB0602B20EDE73268591CA8
:10838000B16002F803A0D6E901239342FFF4BCAE2A
:108390003046FFF78DFCB368B6E630460393FFF72F
:1083A00087FC039B2022002D7FF47BAF65E73046DE
:1083B0000393FFF77DFC039B3022C2E701202EE6EA
:1083C0009B463BE7B4980200CDCCCCCC826800231E
:1083D000936082681361826853618268D3608268A7
:1083E000536082681360704701600B6843604A689D
:1083F000934204BF00234360704700BF436843B10A
:10840000026891680B4443605268934204BF0023A2
:108410004360704700B585B00346002101AA44F2CD
:108420000100CDE90111039300F004F805B05DF8F7
:1084300004FB00BF10B572B601F006F800F014FCA2
:108440000028FBD1104B114C1149E41AE408240414
:1084500044F0010000F038FD0E4BD3F8F030DB079C
:1084600000D500BE0C4944F0020000F02DFDBFF322
:108470004F8F0849094BCA6802F4E0621343CB608E
:10848000BFF34F8F00BFFDE738A3020060A30200D7
:10849000C498020000ED00E0D09802000400FA0544
:1084A00070B4EFF3108472B60D4B9A68AAB901212B
:1084B00099600C490C4ED1F8805035401D60C1F8D0
:1084C0008060D1F884505D604FF0FF33C1F8843094
:1084D000027004B962B670BC704701230370F8E7FC
:1084E000782D002000E100E0FC06FFBD094B9A68F2
:1084F0007AB170B910B4EFF3108172B6064A1C68F5
:1085000014605C685460986001B962B65DF8044B11
:1085100070477047782D002000E100E01049A1F578
:10852000947205E052F83330984238BF61460CD25D
:10853000A1EB020C4FEADC7303EBEC035B109142FE
:1085400002EBC30CEED80748704702D90CF10802C1
:10855000EEE7DCF80400034B002808BF184670471C
:10856000089E0200CC9C020010DF704770B53D4DA4
:108570002B7884B0002B67D13B4E3C49012302A8E5
:108580003370FFF731FF039B23B90FE0FFF736FF8E
:10859000039B5BB1D3E9003100209847034602A852
:1085A000002BF3D11C46204604B070BD304902A810
:1085B000FFF71AFF039B4BB1D3E900310020984726
:1085C00002A8FFF71BFF039B002BF5D1294B0022CC
:1085D0001B68019302A88DF80820FFF761FF264968
:1085E00001A8FFF7C1FFB0FA80F304465B099DF8CC
:1085F00008002B70FFF77AFF002CD4D11F4B2049C5
:108600001C70347091F81623EC2352091341DB07D8
:108610001ED51C4B9A6802B31A6842F480021A6095
:10862000134902A8FFF7E0FE039B002BBBD0D3E960
:1086300000310120984702A8FFF7E0FE039B002BC2
:10864000F5D1204604B070BD0824204604B070BDAA
:1086500042F20200FFF7DEFEE2E74FF480030B6018
:10866000DEE700BF852D0020842D0020209E020023
:10867000389E02001C9E020035840200862D0020D8
:1086800000E100E0782D0020014B1878704700BF12
:10869000852D002000B583B008496846FFF7A4FE89
:1086A000019B43B1D3E9002090476846FFF7A6FE3F
:1086B000019B002BF6D103B05DF804FB2C9E020059
:1086C00060DF704769DF704761DF7047154B1B78CB
:1086D00033B330B5144D91B034240DF1020103A829
:1086E000ADF80240FFF7F0FF88B9294601A8FFF76F
:1086F0007BFE029B002BF0D0D3E9003103A8984702
:1087000001A8FFF77BFE029B002BF5D1E5E70528CA
:1087100001D111B030BD11B0BDE83040FFF77ABED5
:10872000704700BF872D002088A00200002900F0BC
:10873000A78030B5544B0B6085B005460C460C2223
:10874000002101A801F032F8012106238DF806105E
:1087500022688DF8045001A92020ADF80830FFF7F9
:10876000B1FF002843D10C22002101A801F01EF81E
:1087700001210023ADF8051022688DF8073001A90A
:108780004020FFF79FFF00286CD10C22002101A898
:1087900001F00CF8002322688DF8043001A90120B3
:1087A000FFF790FF00284FD10C22002101A800F014
:1087B000FDFF4FF4B0632268019301A9A120FFF7E8
:1087C00081FF98BB0C22002101A800F0EFFF9DF86B
:1087D0000430226843F0010301A9A0208DF8043081
:1087E000FFF770FF034680B9184605B030BDFFF7AC
:1087F00095FE264B264902462648181AC008000452
:1088000040F0010000F034FCADE7FFF787FE1F4B9E
:10881000214902461F481B1ADB081B0443F00100D4
:1088200000F026FC0023184605B030BDFFF776FEA9
:10883000164B1A4902461748181AC008000440F09F
:10884000010000F015FCBDE7FFF768FE0F4B14496F
:1088500002461048181AC008000440F0010000F059
:1088600007FCA1E7FFF75AFE084B0E4902460948EC
:10887000181AC008000440F0010000F0F9FB84E77A
:108880000E231846704700BFD02B002088A302009B
:10889000449E020038A30200789F0200249F020039
:1088A000D89E02008C9E020070B5044682B0066815
:1088B000FFF706FF2368B342054606D82DBB1B4BC6
:1088C000012228461A7002B070BD194B19481A4986
:1088D000C01AC008000440F00200019000F0F4FA51
:1088E000236816490198324600F09EFC4FF08053F1
:1088F0002268D3F80C31124901989B0203F100530E
:108900009A1A00F0B5FB002DD9D02846FFF706FED5
:10891000084B0C49024606481B1ADB081B0443F0AF
:10892000010000F0A5FB284602B070BD872D002095
:1089300038A3020088A30200CC9F0200FC9F020023
:1089400030A002005CA002004BDF704710B5124C53
:1089500084B001A8FFF7F8FFA8B9214602A8FFF7E5
:1089600043FD039B002BF4D0D3E9003101989847D5
:1089700002A8FFF743FD039B002BF5D101A8FFF7E9
:10898000E3FF0028E9D0052801D104B010BD04B0F0
:10899000BDE81040FFF73EBDA0A00200F0B595B0C5
:1089A000084600240E4617461D46FFF79DF81A9A02
:1089B0000D922346082205A93046CDE909540897AF
:1089C0008DF82C400C94FFF7F3F8DDE906219DF8B3
:1089D00014308DF81140CDE9021203F00302012A90
:1089E00028D0022A04D03046FFF782F815B0F0BD37
:1089F000BDF81650C3F3C203C5F389158DF81030C6
:108A00000827082D2C4628BF08243B4622460EA9DD
:108A10003046FFF7CDF82D1B08AB02AA21460EA861
:108A2000274400F0DDFD002DEBD13046FFF760F864
:108A300015B0F0BDBDF814100598C1F38312C3F34F
:108A4000C203C0F39525C1F383148DF810300EA92D
:108A5000304692000823FFF7ABF808AB009322469C
:108A600002AB0EA9284600F045FD3046FFF740F85E
:108A700015B0F0BD014B01221A707047CC2D0020BB
:108A8000704700BF00B583B0044B0093044A4023F5
:108A9000FFF784FF03B05DF804FB00BFA58A020066
:108AA0008C2D002038B50F480F4D03780F4CEB5C30
:108AB0004FF0000C84F800C0D2B253B10430FEF77E
:108AC000D3FE58B90A4B1B7813B12378002BFCD086
:108AD00038BD0C30FEF718FC0028F3D0FFF79AFCE5
:108AE000F0E700BFD42B0020902C0020CC2D0020DC
:108AF000882D002010B51548154A0378D35C88B03E
:108B0000C3B10430FEF710FE124C0FCCEC46ACE8BB
:108B10000F0094E80F008CE80F0006230B48009329
:108B200000226946FDF7CCFE40B90B4B00221A70BB
:108B300008B010BD0C30FEF779FBE5E7FFF76AFCE3
:108B4000054B00221A7008B010BD00BFD42B0020C6
:108B5000902C0020ACA00200882D002010B50F4CF6
:108B60000FCC88B0EC46ACE80F0094E80F008CE81E
:108B70000F0006230A4A0B4800936946FDF7A0FE42
:108B800020B9094B01221A7008B010BDFFF742FC52
:108B9000054B01221A7008B010BD00BFACA0020046
:108BA000758A0200D42B0020882D002008B5FFF71D
:108BB000D5FF0448042100F019FC034B01225A712F
:108BC00008BD00BFA8A30200E82B0020064B074801
:108BD00010B500221A70FEF73BFF044610B9044896
:108BE000FFF7F4FB204610BDA02E002024A30200B6
:108BF00004A1020030B499B10D490E4D491BC908BA
:108C000013D00D4C002302E0013399420AD034F80E
:108C100023208242F8D1184655F8300030BC704706
:108C2000044DF9E7002030BC70470846F6E700BF66
:108C3000A8A3020038A30200582C0020094B0139D8
:108C400003EBC00003290BD8DFE801F0040208069B
:108C500004207047022070474079704700797047C0
:108C60000020704738A302002DE9F043904CD4E96E
:108C700001239A4285B060D00023C4F81834BFF3B2
:108C80004F8FA568EAB2D31C04EB830114F823309C
:108C9000580718D566680B7803F00303012B42D000
:108CA000022B03D14B88023505EB9315EAB2D4F8B9
:108CB0001804D31C04EB830128B9AE4239D914F847
:108CC00023305B07E7D404EB82026B1CDBB2D26873
:108CD00004EB830302F00301DB680229CDE90123E1
:108CE00005F102062DD0012900F09280D4F810542D
:108CF0003DB12B6828469B689847EB681D68002D9E
:108D0000F7D16C486C4B6D49C01AC008000440F0A4
:108D1000020000F0D9F8D4E90130C01A18BF0120D0
:108D200005B0BDE8F0830B880235C3F383131D44FF
:108D3000BCE7A66005B0BDE8F083002005B0BDE843
:108D4000F083BDF806305E48C3F389184546502DC0
:108D500028BF502505F1080165F38F13C1F3090100
:108D6000ADF80630FEF776FE07460028BED0FEF7C7
:108D7000BBFE0023082201A93846FEF7E5FEF343B7
:108D8000DBB20133B5EB830F4FEA83027ED9F1B238
:108D90005FFA82F9033104EB810138460823A5EB21
:108DA0000905FEF7D1FEEDB209F10803454903F0CC
:108DB000FC032A463846FEF7C7FE08F1030806EB17
:108DC0009806D4F81834002B6ED1D4F8105465B13D
:108DD000EB685A7928463946002A61D02B681B680F
:108DE0009847EB681D68002DF2D13846FEF780FEEB
:108DF00000230DF103008DF80330FFF751FBD4F889
:108E0000183403B9A6609DF80300FFF76FFB82E7F3
:108E1000BDF804202A48C2F38313062B28BF06237B
:108E200063F38912023303F00F018900ADF80420C7
:108E3000FEF710FE074600283FF458AFFEF754FE39
:108E40000023082201A93846FEF77EFEBDF8043053
:108E500013F4707FB5D06FF001094FF00808A9EB4B
:108E60000509F1B203314346042204EB810138467F
:108E7000FEF76AFEBDF804300136C3F3831309EB35
:108E80000602934208F10408EBD89AE7F1B20331E5
:108E90002A4604EB810108233846FEF755FE8CE78D
:108EA0001D68002D94D1A0E73846FEF721FE32E779
:108EB000A02E002060A3020038A30200ECA0020054
:108EC00024A30200AC2E00202DE9F04FDFF89CA176
:108ED00087B0002306460DF10B008DF80B30019191
:108EE000FFF7DEFADAE9018303F58073A3EB0803E9
:108EF000012B00F281800AF21C450AF583670AF211
:108F000014441AE0BDF80E30C3F3891303334FEA5B
:108F100011490BEB930B2046FEF72CFD4946002828
:108F20003AD02846CAF808B0FEF700FDDAE9012376
:108F300003F580739B1A012B5FD801212846FEF7A9
:108F4000F5FC3846FEF70AFD2046FEF707FDDAF885
:108F50000830DAB2D11C0AEB810C1AF8211001F0AA
:108F60000400490728D40AEB82015A1CC9680391FE
:108F7000D2B201F003000AEB82020128D16803F1AA
:108F8000020B31D00228BDD02046FEF7F3FC4FF093
:108F9000000949460028C4D12846C5E7BCF802307C
:108FA0000EEB9313DAB2D11C0AEB810C1AF82110E4
:108FB00001F004000028D6D09CF8001001F0030155
:108FC00001290AD0022903F1020E02F10301E5D0C2
:108FD0000AEB810C0028EFD1C5E7BCF80020023372
:108FE000C2F383121344DDE7BDF80C30C3F38313DF
:108FF0004FEA11499B448EE74246D3B20333023213
:1090000005219DF80B004AF82310CAF80420FFF749
:109010006DFA00211448FEF77FFC80F31001F30085
:10902000019A03F0380343F0010308F1010043EA19
:109030008223C0B25FFA88F209040AEB800003328F
:1090400041EA1641C1604AF822309AF8003013B95B
:1090500007B0BDE8F08FFFF707FE0028F8D0FFF754
:1090600003FE0028F7D1F3E7BC320020A02E002039
:109070002DE9F04FDFF8ACB187B0002306460DF1C3
:109080000B008DF80B30CDE90012FFF709FADBE990
:10909000018303F58073A3EB0803022B00F28180A8
:1090A0000BF21C450BF583670BF214441AE0BDF874
:1090B0000E20C2F3891203324FEA114A09EB9209DA
:1090C0002046FEF757FC514600283AD02846CBF8F8
:1090D0000890FEF72BFCDBE9012303F580739B1A54
:1090E000022B5FD801212846FEF720FC3846FEF708
:1090F00035FC2046FEF732FCDBF80830DAB2D11C32
:109100000BEB810C1BF8211001F00400490728D457
:109110000BEB82015A1CC9680391D2B201F0030023
:109120000BEB82020128D16803F1020931D0022839
:10913000BDD02046FEF71EFC4FF0000A5146002825
:10914000C4D12846C5E7BCF802300EEB9313DAB25F
:10915000D11C0BEB810C1BF8211001F0040000283E
:10916000D6D09CF8001001F0030101290AD0022991
:1091700003F1020E02F10301E5D00BEB810C002894
:10918000EFD1C5E7BCF800200233C2F383121344C9
:10919000DDE7BDF80C20C2F383124FEA114A914477
:1091A0008EE74246D3B20333033245219DF80B00CC
:1091B0004BF82310CBF80420FFF798F908F10203CD
:1091C000DBB20BEB8303019ADA6000211448FEF74F
:1091D000A3FB80F31001F300009A03F0380343F07F
:1091E000410308F1010043EA8223C0B25FFA88F22A
:1091F00009040BEB8000033241EA1641C1604BF8D1
:1092000022309BF8003013B907B0BDE8F08FFFF7AC
:109210002BFD0028F8D0FFF727FD0028F7D1F3E752
:10922000BC320020A02E00202DE9F04FDFF8B8B1AD
:1092300089B0002406460DF113000393CDE9011215
:109240008DF81340FFF72CF9DBF80830DBF80470D9
:1092500003F58073DB1B032B00F281800BF21C45AE
:109260000BF583680BF214441AE0BDF81630C3F313
:10927000891303334FEA11490AEB930A2046FEF79C
:1092800079FB494600283AD02846CBF808A0FEF7DB
:109290004DFBDBE9012303F580739B1A032B5FD899
:1092A00001212846FEF742FB4046FEF757FB2046C9
:1092B000FEF754FBDBF80830DAB2D11C0BEB810C63
:1092C0001BF8211001F00400490728D40BEB8201A0
:1092D0005A1CC9680591D2B201F003000BEB82025F
:1092E0000128D16803F1020A31D00228BDD02046FE
:1092F000FEF740FB4FF0000949460028C4D128463C
:10930000C5E7BCF802300EEB9313DAB2D11C0BEBBD
:10931000810C1BF8210000F004000028D6D09CF836
:10932000001001F0030101290AD0022903F1020E05
:1093300002F10301E5D00BEB810C0028EFD1C5E76A
:10934000BCF800200233C2F383121344DDE7BDF8FA
:109350001430C3F383134FEA11499A448EE73A4617
:10936000D3B20333043285219DF813004BF8231048
:10937000CBF80420FFF7BAF8BB1CDBB20BEB83037E
:10938000029ADA60FB1CDBB20BEB8303039ADA6010
:1093900000211448FEF7C0FA80F31001F300019A8F
:1093A00003F0380343F08103781C43EA8223C0B200
:1093B000FAB209040BEB8000033241EA1641C160A6
:1093C0004BF822309BF8003013B909B0BDE8F08F9C
:1093D000FFF74AFC0028F8D0FFF746FC0028F7D139
:1093E000F3E700BFBC320020A02E002030B4154DA2
:1093F000D5F810140446002071B10B4601E01B683B
:1094000053B1DB681A798242F9D101300A28F3D1CD
:109410004FF0FF3030BC7047E3681871D5F8103456
:109420004BB1DA68E36812681A60D5F81034DB686B
:109430001C6030BC7047C5F81044E268136030BC53
:10944000704700BFA02E002038B5084BD3F8104459
:1094500001251D704CB1E3685D71236820465B688F
:109460009847E3681C68002CF5D138BDA02E002079
:1094700030B5C38885B004460D4623BB237A052B3F
:109480001FD0627A82B9144AA08852F8232003922E
:109490000021FFF7AFFB039A10490346284605B0A9
:1094A000BDE83040FEF710BC1946A088FFF7C6FBA8
:1094B0000B4B0C4953F820202846FEF705FC237A75
:1094C000E1E705B030BD08490091084A084928463F
:1094D000FEF7FAFBD2E700BFDCA102003CA10200CC
:1094E000B8A1020038A1020030A1020010A10200C0
:1094F00018A102002DE9F04385B01D460C9C002305
:1095000094F80C90237380460E4617462146284651
:10951000FFF7AEFF062F09D8DFE807F0042E343B33
:10952000444F1F0041462046FEF7CEFB2B7A052B09
:1095300005D06B7A5BB927492046FEF7C5FB20466C
:10954000FEF7B6FB84F80C9005B0BDE8F083224A24
:1095500022492046FEF7B8FBEDE7736903933369B0
:109560000293F3680193B3680093D6E90023414660
:109570002046FEF7A9FBD9E7326841462046FEF7B0
:10958000A3FBD3E7D6E9002341462046FEF79CFB28
:10959000CCE7B3680093D6E9002341462046FEF7A6
:1095A00093FBC3E7F3680193B3680093D6E9002304
:1095B00041462046FEF788FBB8E733690293F3681B
:1095C0000193B3680093D6E9002341462046FEF795
:1095D0007BFBABE748A1020030A1020038A10200EA
:1095E000082900D970472DE9F04F1D4683B00024AB
:1095F0001B7B2C730E460746294610469046019366
:10960000DFF8D0B0DFF8D0A0FFF732FF05E03A5D19
:109610000134FEF759FB082C09D0A64251462846D2
:10962000F5D859460134FEF74FFB082CF5D12449F3
:10963000DFF8A8B0234CDFF8A8A02846FEF744FBCB
:109640004FF0000917E017F80910481C7E294FF069
:109650002E02C0B206D810F80A2012F0970F14BFDD
:109660000A462E222146284609F10109FEF72CFB65
:10967000B9F1080F0AD04E45E5D85946284609F1F8
:109680000109FEF721FBB9F1080FF4D198F8083071
:10969000052B02D098F809305BB90B492846FEF734
:1096A00013FB2846FEF704FB019B2B7303B0BDE8B8
:1096B000F08F064A06492846FEF706FBEDE700BF95
:1096C00058A102005CA1020048A1020030A10200E2
:1096D00038A1020054A102004CA1020044A10200E2
:1096E000F0A102000649074A074B9B1A03DD043B21
:1096F000C858D050FBDCFCF749FEFCF7A5FD000084
:10970000C0A30200D02B0020582C0020FEE7FEE76B
:10971000FEE7FEE7FEE7FEE7FEE7FEE7FEE7FEE721
:1097200008B5074B044613B10021AFF30080054B89
:109730001868836A03B19847204600F047F800BFD5
:1097400000000000F4A2020070B50D4D0D4C641B2A
:10975000A4100026A64209D10B4D0C4C00F038F89D
:10976000641BA4100026A64205D170BD55F8043B29
:1097700098470136EEE755F8043B98470136F2E783
:10978000502C0020502C0020502C0020542C002065
:109790000A44914200F1FF3300D1704710B511F82F
:1097A000014B03F8014F9142F9D110BD0244034629
:1097B000934200D1704703F8011BF9E7034613F801
:1097C000012B002AFBD1181A01387047FEE700BFB1
:1097D000F8B500BFF8BC08BC9E467047F8B500BF9E
:1097E000F8BC08BC9E467047436F6E6E6563746537
:1097F000642E20636F6E6E5F68616E646C653A20E4
:109800003078257800000000446973636F6E6E65E0
:10981000637465642E20636F6E6E5F68616E646C46
:10982000653A20307825782C20726561736F6E3A26
:10983000203078257800000068656C6C6F20424C01
:109840004520776F726C640D0A0000000000010172
:109850000000000101000000636C6F636B000000FA
:10986000434C4F434B0000004750494F54450000C4
:10987000505253005541525400000000554152547B
:10988000450000006170705F627574746F6E000057
:109890006170705F74696D65720000007077725F4F
:1098A0006D676D74000000000CA302000CA30200A1
:1098B0000400000030313233343536373839414214
:1098C00043444546466174616C206572726F720054
:1098D00053797374656D20726573657400000000C0
:1098E0004E52465F53554343455353004E52465FD5
:1098F0004552524F525F5356435F48414E444C4588
:10990000525F4D495353494E470000004E52465F47
:109910004552524F525F534F465444455649434572
:109920005F4E4F545F454E41424C4544000000009D
:109930004E52465F4552524F525F494E5445524E29
:10994000414C00004E52465F4552524F525F4E4FBF
:109950005F4D454D000000004E52465F4552524F4C
:10996000525F4E4F545F464F554E44004E52465F35
:109970004552524F525F4E4F545F535550504F52C5
:10998000544544004E52465F4552524F525F494E35
:1099900056414C49445F504152414D004E52465F42
:1099A0004552524F525F494E56414C49445F5354C1
:1099B000415445004E52465F4552524F525F494E08
:1099C00056414C49445F4C454E4754480000000006
:1099D0004E52465F4552524F525F494E56414C4996
:1099E000445F464C414753004E52465F4552524FEA
:1099F000525F494E56414C49445F44415441000036
:109A00004E52465F4552524F525F444154415F535C
:109A1000495A45004E52465F4552524F525F544993
:109A20004D454F55540000004E52465F4552524F2F
:109A3000525F4E554C4C00004E52465F4552524FBD
:109A4000525F464F5242494444454E004E52465F93
:109A50004552524F525F494E56414C49445F414432
:109A6000445200004E52465F4552524F525F42559B
:109A7000535900004E52465F4552524F525F434F7A
:109A80004E4E5F434F554E54000000004E52465F0D
:109A90004552524F525F5245534F55524345530022
:109AA0004E52465F4552524F525F4D4F44554C45C2
:109AB0005F4E4F545F494E495449414C495A4544C1
:109AC000000000004E52465F4552524F525F4D55C6
:109AD0005445585F494E49545F4641494C454400FE
:109AE0004E52465F4552524F525F4D555445585F56
:109AF0004C4F434B5F4641494C4544004E52465FF4
:109B00004552524F525F4D555445585F554E4C4F3C
:109B1000434B5F4641494C45440000004E52465F6E
:109B20004552524F525F4D555445585F434F4E4436
:109B30005F494E49545F4641494C4544000000008E
:109B40004E52465F4552524F525F4D4F44554C4521
:109B50005F414C52454144595F494E495449414C3B
:109B6000495A4544000000004E52465F4552524F4C
:109B7000525F53544F524147455F46554C4C00008D
:109B80004E52465F4552524F525F4150495F4E4FD1
:109B9000545F494D504C454D454E544544000000DE
:109BA0004E52465F4552524F525F464541545552C0
:109BB000455F4E4F545F454E41424C4544000000C6
:109BC0004E52465F4552524F525F494F5F50454E8D
:109BD00044494E47000000004E52465F4552524FE6
:109BE000525F4452565F5457495F4552525F4F5639
:109BF000455252554E0000004E52465F4552524F5C
:109C0000525F4452565F5457495F4552525F414E2E
:109C100041434B004E52465F4552524F525F4452B1
:109C2000565F5457495F4552525F444E41434B0083
:109C30004E52465F4552524F525F424C455F49502B
:109C400053505F52585F504B545F5452554E4341EE
:109C5000544544004E52465F4552524F525F424C6B
:109C6000455F495053505F4348414E4E454C5F411C
:109C70004C52454144595F455849535453000000E4
:109C80004E52465F4552524F525F424C455F4950DB
:109C900053505F4C494E4B5F444953434F4E4E45E2
:109CA00043544544000000004E52465F4552524F17
:109CB000525F424C455F495053505F504545525F9B
:109CC00052454A454354454400000000556E6B6EB2
:109CD0006F776E206572726F7220636F646500002B
:109CE00000000000E098020001000000EC98020073
:109CF000020000000C9902000300000030990200ED
:109D00000400000044990200050000005899020078
:109D1000060000006C990200070000008499020010
:109D2000080000009C99020009000000B49902009C
:109D30000A000000D09902000B000000E899020020
:109D40000C000000009A02000D000000149A0200AE
:109D50000E000000289A02000F000000389A02004E
:109D6000100000004C9A020011000000649A0200EA
:109D700012000000749A0200130000008C9A020086
:109D800080000000A09A020081000000C49A020036
:109D900082000000E09A020083000000FC9A0200AA
:109DA000840000001C9B020085000000409B020014
:109DB00086000000689B020090000000809B02006B
:109DC00091000000A09B020092000000C09B0200D6
:109DD00000820000D89B020001820000F89B020074
:109DE00002820000149C020000840000309C0200EB
:109DF00001840000549C020002840000809C020048
:109E000003840000A89C0200736F72746C69737401
:109E1000000000006E72665F736468000100000756
:109E20000CA302000CA302000800000014A302000F
:109E300024A30200080000000CA3020014A30200E7
:109E40000800000073645F626C655F6366675F7340
:109E5000657428292072657475726E656420257397
:109E6000207768656E20617474656D7074696E67C3
:109E700020746F2073657420424C455F434F4E4EF3
:109E80005F4346475F4741502E00000073645F62A6
:109E90006C655F6366675F736574282920726574FB
:109EA00075726E6564202573207768656E20617415
:109EB00074656D7074696E6720746F2073657420AB
:109EC000424C455F4741505F4346475F524F4C45C8
:109ED0005F434F554E542E0073645F626C655F6341
:109EE00066675F73657428292072657475726E6584
:109EF00064202573207768656E20617474656D70C9
:109F000074696E6720746F2073657420424C455FDE
:109F1000434F4D4D4F4E5F4346475F56535F555538
:109F200049442E0073645F626C655F6366675F73AC
:109F3000657428292072657475726E6564202573B6
:109F4000207768656E20617474656D7074696E67E2
:109F500020746F2073657420424C455F4741545410
:109F6000535F4346475F415454525F5441425F53ED
:109F7000495A452E0000000073645F626C655F63A0
:109F800066675F73657428292072657475726E65E3
:109F900064202573207768656E20617474656D7028
:109FA00074696E6720746F2073657420424C455F3E
:109FB00047415454535F4346475F534552564943C4
:109FC000455F4348414E4745442E0000496E737536
:109FD0006666696369656E742052414D20616C6CE0
:109FE0006F636174656420666F72207468652053C6
:109FF0006F66744465766963652E00004368616E20
:10A000006765207468652052414D207374617274D5
:10A01000206C6F636174696F6E2066726F6D2030A3
:10A0200078257820746F20307825782E0000000085
:10A030004D6178696D756D2052414D2073697A6567
:10A0400020666F72206170706C69636174696F6EF5
:10A0500020697320307825782E00000073645F62D9
:10A060006C655F656E61626C652829207265747528
:10A07000726E65642025732E000000006E72665FAC
:10A080007364685F626C650004A302000CA30200A5
:10A09000080000006E72665F7364685F736F630030
:10A0A000FCA2020004A3020008000000FFFFFFFF63
:10A0B000FFFFFFFFFFFFFFFFFFFFFFFF00000000AC
:10A0C000000000000000D60106010000858A0200A1
:10A0D000F58A0200818A0200756172745F6C6F6795
:10A0E0005F6261636B656E64000000004261636BD8
:10A0F000656E647320666C757368656400000000AB
:10A1000061707000C03200207F00000040330020EA
:10A110001B5B313B33316D0025734C6F67732064DB
:10A12000726F70706564202825642925730D0A00FC
:10A130001B5B306D00000000257300003C25733E62
:10A140002025733A200000000D0A0000202530323F
:10A1500078000000202020007C0000002563000023
:10A160001B5B313B33306D001B5B313B33326D0089
:10A170001B5B313B33336D001B5B313B33346D0074
:10A180001B5B313B33356D001B5B313B33366D0060
:10A190001B5B313B33376D006572726F72000000DC
:10A1A0007761726E696E6700696E666F000000000D
:10A1B000646562756700000030A1020060A10200C2
:10A1C00010A1020068A1020070A1020078A10200A3
:10A1D00080A1020088A1020090A1020000000000FE
:10A1E00098A10200A0A10200A8A10200B0A1020053
:10A1F0000020202020202020202028282828282057
:10A20000202020202020202020202020202020204E
:10A2100020881010101010101010101010101010B6
:10A2200010040404040404040404041010101010A6
:10A230001010414141414141010101010101010170
:10A2400001010101010101010101010110101010C2
:10A250001010424242424242020202020202020242
:10A260000202020202020202020202021010101096
:10A2700020000000000000000000000000000000BE
:10A2800000000000000000000000000000000000CE
:10A2900000000000000000000000000000000000BE
:10A2A00000000000000000000000000000000000AE
:10A2B000000000000000000000000000000000009E
:10A2C000000000000000000000000000000000008E
:10A2D000000000000000000000000000000000007E
:10A2E000000000000000000000000000000000006E
:0CA2F00000000000F02B00200000000027
:08A2FC00696702000000000088
:08A30400BD6202000000000030
:08A30C0091670200000000004F
:10A31400CD860200000000004D890200000000000C
:10A32400D02D0020982E0020A02E0020D82D002013
:04A33400180000000D
:10A338006098020000000000689802000000000019
:10A3480070980200000000007498020000000000ED
:10A358007C9802000000000000A102000000030336
:10A36800849802000000000090980200000000009D
:10A378005898020000000000149E02000000030329
:10A388007CA002000000030394A002000000030365
:10A398009C98020000000000089E020000000000D7
:10A3A800CCA0020000000000D8A00200E82B00208A
:08A3B80088BEFF7F01000000D8
:10A3C0000090D003000000000020004000000000CA
:10A3D000002000400000000000000000FF0000001E
:10A3E000000000000000000000000000000000006D
:10A3F000000000000000000000000000000000005D
:10A40000000000000000000000000000000000004C
:10A41000000000000000000000000000000000003C
:10A42000000000000000000000000000000000002C
:10A43000000000000000000000000000000000001C
:08A44000256202000162020026
:04000003200096E55E
:00000001FF
